{
  "contractName": "DirtOracle",
  "abi": [
    {
      "inputs": [],
      "payable": false,
      "stateMutability": "nonpayable",
      "type": "constructor"
    },
    {
      "anonymous": false,
      "inputs": [
        {
          "indexed": true,
          "name": "manager",
          "type": "address"
        },
        {
          "indexed": true,
          "name": "dataFeed",
          "type": "bytes32"
        },
        {
          "indexed": false,
          "name": "minRequiredSources",
          "type": "uint16"
        }
      ],
      "name": "DataFeedCreation",
      "type": "event"
    },
    {
      "anonymous": false,
      "inputs": [
        {
          "indexed": true,
          "name": "manager",
          "type": "address"
        },
        {
          "indexed": true,
          "name": "dataFeed",
          "type": "bytes32"
        },
        {
          "indexed": true,
          "name": "newManager",
          "type": "address"
        }
      ],
      "name": "ManagerAddition",
      "type": "event"
    },
    {
      "anonymous": false,
      "inputs": [
        {
          "indexed": true,
          "name": "manager",
          "type": "address"
        },
        {
          "indexed": true,
          "name": "dataFeed",
          "type": "bytes32"
        },
        {
          "indexed": true,
          "name": "firedManager",
          "type": "address"
        }
      ],
      "name": "ManagerRemoval",
      "type": "event"
    },
    {
      "anonymous": false,
      "inputs": [
        {
          "indexed": true,
          "name": "manager",
          "type": "address"
        },
        {
          "indexed": true,
          "name": "dataFeed",
          "type": "bytes32"
        },
        {
          "indexed": true,
          "name": "source",
          "type": "bytes32"
        },
        {
          "indexed": false,
          "name": "sourceDataId",
          "type": "bytes32"
        }
      ],
      "name": "SourceAddition",
      "type": "event"
    },
    {
      "anonymous": false,
      "inputs": [
        {
          "indexed": true,
          "name": "manager",
          "type": "address"
        },
        {
          "indexed": true,
          "name": "dataFeed",
          "type": "bytes32"
        },
        {
          "indexed": true,
          "name": "source",
          "type": "bytes32"
        }
      ],
      "name": "SourceRemoval",
      "type": "event"
    },
    {
      "anonymous": false,
      "inputs": [
        {
          "indexed": true,
          "name": "manager",
          "type": "address"
        },
        {
          "indexed": true,
          "name": "dataFeed",
          "type": "bytes32"
        },
        {
          "indexed": true,
          "name": "source",
          "type": "bytes32"
        },
        {
          "indexed": false,
          "name": "signer",
          "type": "address"
        }
      ],
      "name": "SignerAddition",
      "type": "event"
    },
    {
      "anonymous": false,
      "inputs": [
        {
          "indexed": true,
          "name": "manager",
          "type": "address"
        },
        {
          "indexed": true,
          "name": "dataFeed",
          "type": "bytes32"
        },
        {
          "indexed": true,
          "name": "source",
          "type": "bytes32"
        },
        {
          "indexed": false,
          "name": "signer",
          "type": "address"
        }
      ],
      "name": "SignerRemoval",
      "type": "event"
    },
    {
      "anonymous": false,
      "inputs": [
        {
          "indexed": true,
          "name": "manager",
          "type": "address"
        },
        {
          "indexed": true,
          "name": "dataFeed",
          "type": "bytes32"
        },
        {
          "indexed": true,
          "name": "newReader",
          "type": "address"
        }
      ],
      "name": "ReaderAddition",
      "type": "event"
    },
    {
      "anonymous": false,
      "inputs": [
        {
          "indexed": true,
          "name": "manager",
          "type": "address"
        },
        {
          "indexed": true,
          "name": "dataFeed",
          "type": "bytes32"
        },
        {
          "indexed": true,
          "name": "firedReader",
          "type": "address"
        }
      ],
      "name": "ReaderRemoval",
      "type": "event"
    },
    {
      "anonymous": false,
      "inputs": [
        {
          "indexed": true,
          "name": "manager",
          "type": "address"
        },
        {
          "indexed": true,
          "name": "dataFeed",
          "type": "bytes32"
        },
        {
          "indexed": false,
          "name": "newMin",
          "type": "uint16"
        }
      ],
      "name": "MinRequiredSourcesUpdated",
      "type": "event"
    },
    {
      "anonymous": false,
      "inputs": [
        {
          "indexed": false,
          "name": "manager",
          "type": "address"
        },
        {
          "indexed": false,
          "name": "dataFeed",
          "type": "bytes32"
        },
        {
          "indexed": false,
          "name": "isFree",
          "type": "bool"
        }
      ],
      "name": "IsFreeUpdated",
      "type": "event"
    },
    {
      "anonymous": false,
      "inputs": [
        {
          "indexed": true,
          "name": "dataFeed",
          "type": "bytes32"
        },
        {
          "indexed": true,
          "name": "signerAddress",
          "type": "address"
        },
        {
          "indexed": false,
          "name": "value",
          "type": "int128"
        },
        {
          "indexed": false,
          "name": "epochTime",
          "type": "uint256"
        }
      ],
      "name": "SignerReported",
      "type": "event"
    },
    {
      "anonymous": false,
      "inputs": [
        {
          "indexed": true,
          "name": "reporterAddress",
          "type": "address"
        },
        {
          "indexed": true,
          "name": "dataFeed",
          "type": "bytes32"
        },
        {
          "indexed": false,
          "name": "value",
          "type": "int128"
        },
        {
          "indexed": false,
          "name": "epochTime",
          "type": "uint256"
        },
        {
          "indexed": false,
          "name": "signerAddresses",
          "type": "address[]"
        },
        {
          "indexed": false,
          "name": "signerValues",
          "type": "int128[]"
        }
      ],
      "name": "MedianValueWritten",
      "type": "event"
    },
    {
      "constant": false,
      "inputs": [
        {
          "name": "dataFeed",
          "type": "bytes32"
        },
        {
          "name": "dataIds",
          "type": "bytes32[]"
        },
        {
          "name": "values",
          "type": "int128[]"
        },
        {
          "name": "epochTime",
          "type": "uint256[]"
        },
        {
          "name": "signatures",
          "type": "bytes[]"
        }
      ],
      "name": "post",
      "outputs": [],
      "payable": false,
      "stateMutability": "nonpayable",
      "type": "function"
    },
    {
      "constant": true,
      "inputs": [
        {
          "name": "dataFeed",
          "type": "bytes32"
        }
      ],
      "name": "getValue",
      "outputs": [
        {
          "name": "",
          "type": "int128"
        }
      ],
      "payable": false,
      "stateMutability": "view",
      "type": "function"
    },
    {
      "constant": true,
      "inputs": [
        {
          "name": "dataFeed",
          "type": "bytes32"
        }
      ],
      "name": "getValueAndTime",
      "outputs": [
        {
          "name": "value",
          "type": "int128"
        },
        {
          "name": "blockTime",
          "type": "uint256"
        },
        {
          "name": "epochTime",
          "type": "uint256"
        }
      ],
      "payable": false,
      "stateMutability": "view",
      "type": "function"
    },
    {
      "constant": false,
      "inputs": [
        {
          "name": "name",
          "type": "bytes32"
        },
        {
          "name": "minRequiredSources",
          "type": "uint16"
        },
        {
          "name": "isFree",
          "type": "bool"
        }
      ],
      "name": "createDataFeed",
      "outputs": [],
      "payable": false,
      "stateMutability": "nonpayable",
      "type": "function"
    },
    {
      "constant": false,
      "inputs": [
        {
          "name": "dataFeed",
          "type": "bytes32"
        },
        {
          "name": "m",
          "type": "address"
        }
      ],
      "name": "addManager",
      "outputs": [],
      "payable": false,
      "stateMutability": "nonpayable",
      "type": "function"
    },
    {
      "constant": false,
      "inputs": [
        {
          "name": "dataFeed",
          "type": "bytes32"
        },
        {
          "name": "m",
          "type": "address"
        }
      ],
      "name": "removeManager",
      "outputs": [],
      "payable": false,
      "stateMutability": "nonpayable",
      "type": "function"
    },
    {
      "constant": false,
      "inputs": [
        {
          "name": "dataFeed",
          "type": "bytes32"
        },
        {
          "name": "src",
          "type": "bytes32"
        },
        {
          "name": "sourceDataId",
          "type": "bytes32"
        }
      ],
      "name": "addSource",
      "outputs": [],
      "payable": false,
      "stateMutability": "nonpayable",
      "type": "function"
    },
    {
      "constant": false,
      "inputs": [
        {
          "name": "dataFeed",
          "type": "bytes32"
        },
        {
          "name": "src",
          "type": "bytes32"
        }
      ],
      "name": "removeSource",
      "outputs": [],
      "payable": false,
      "stateMutability": "nonpayable",
      "type": "function"
    },
    {
      "constant": false,
      "inputs": [
        {
          "name": "dataFeed",
          "type": "bytes32"
        },
        {
          "name": "src",
          "type": "bytes32"
        },
        {
          "name": "signer",
          "type": "address"
        }
      ],
      "name": "addSigner",
      "outputs": [],
      "payable": false,
      "stateMutability": "nonpayable",
      "type": "function"
    },
    {
      "constant": false,
      "inputs": [
        {
          "name": "dataFeed",
          "type": "bytes32"
        },
        {
          "name": "signer",
          "type": "address"
        }
      ],
      "name": "removeSigner",
      "outputs": [],
      "payable": false,
      "stateMutability": "nonpayable",
      "type": "function"
    },
    {
      "constant": false,
      "inputs": [
        {
          "name": "dataFeed",
          "type": "bytes32"
        },
        {
          "name": "sources",
          "type": "bytes32[]"
        },
        {
          "name": "sourceDataIds",
          "type": "bytes32[]"
        },
        {
          "name": "signers",
          "type": "address[]"
        }
      ],
      "name": "batchAddSourceAndSigner",
      "outputs": [],
      "payable": false,
      "stateMutability": "nonpayable",
      "type": "function"
    },
    {
      "constant": false,
      "inputs": [
        {
          "name": "dataFeed",
          "type": "bytes32"
        },
        {
          "name": "newMin",
          "type": "uint16"
        }
      ],
      "name": "setMinRequiredSources",
      "outputs": [],
      "payable": false,
      "stateMutability": "nonpayable",
      "type": "function"
    },
    {
      "constant": false,
      "inputs": [
        {
          "name": "dataFeed",
          "type": "bytes32"
        },
        {
          "name": "isFree",
          "type": "bool"
        }
      ],
      "name": "setIsFree",
      "outputs": [],
      "payable": false,
      "stateMutability": "nonpayable",
      "type": "function"
    },
    {
      "constant": false,
      "inputs": [
        {
          "name": "dataFeed",
          "type": "bytes32"
        },
        {
          "name": "r",
          "type": "address"
        }
      ],
      "name": "addReader",
      "outputs": [],
      "payable": false,
      "stateMutability": "nonpayable",
      "type": "function"
    },
    {
      "constant": false,
      "inputs": [
        {
          "name": "dataFeed",
          "type": "bytes32"
        },
        {
          "name": "r",
          "type": "address"
        }
      ],
      "name": "removeReader",
      "outputs": [],
      "payable": false,
      "stateMutability": "nonpayable",
      "type": "function"
    }
  ],
  "bytecode": "0x608060405234801561001057600080fd5b50614296806100206000396000f3fe608060405234801561001057600080fd5b5060043610610112576000357c0100000000000000000000000000000000000000000000000000000000900480639da1e7fc116100b4578063f3bf4f3111610083578063f3bf4f311461025f578063f9aa153a14610291578063f9f64b87146102ad578063fcb58b11146102c957610112565b80639da1e7fc146101ef578063b0b052c21461020b578063b21aa96c14610227578063edf842991461024357610112565b806369843940116100f0578063698439401461016b57806371300e3f1461019b5780638a30ad93146101b75780638d5fbf81146101d357610112565b80631ed9d1a9146101175780634a07d97e14610133578063683f303a1461014f575b600080fd5b610131600480360361012c9190810190612dae565b6102e5565b005b61014d60048036036101489190810190612fc7565b610579565b005b61016960048036036101649190810190612d72565b610903565b005b61018560048036036101809190810190612d49565b610ade565b6040516101929190613c28565b60405180910390f35b6101b560048036036101b091908101906130f0565b610bda565b005b6101d160048036036101cc9190810190612d72565b610e13565b005b6101ed60048036036101e89190810190612f4f565b610fee565b005b61020960048036036102049190810190612f8b565b6110fb565b005b61022560048036036102209190810190612d72565b611429565b005b610241600480360361023c9190810190612d72565b611594565b005b61025d60048036036102589190810190612e67565b61179e565b005b61027960048036036102749190810190612d49565b611d36565b60405161028893929190613c96565b60405180910390f35b6102ab60048036036102a691908101906130b4565b611e4b565b005b6102c760048036036102c29190810190613016565b611ffe565b005b6102e360048036036102de9190810190612d72565b61238e565b005b8660008082815260200190815260200160002060070160003373ffffffffffffffffffffffffffffffffffffffff1673ffffffffffffffffffffffffffffffffffffffff16815260200190815260200160002060009054906101000a900460ff16610385576040517f08c379a000000000000000000000000000000000000000000000000000000000815260040161037c9061400d565b60405180910390fd5b848490508787905014801561039f57508282905087879050145b6103de576040517f08c379a00000000000000000000000000000000000000000000000000000000081526004016103d590613dcd565b60405180910390fd5b6000878790501415610425576040517f08c379a000000000000000000000000000000000000000000000000000000000815260040161041c90613ecd565b60405180910390fd5b60008060008a815260200190815260200160002060080160009054906101000a900461ffff1661ffff161415610490576040517f08c379a000000000000000000000000000000000000000000000000000000000815260040161048790613ccd565b60405180910390fd5b60008090505b8787905081101561056e5760008060008b815260200190815260200160002060030160008a8a858181106104c657fe5b90506020020135815260200190815260200160002060009054906101000a900461ffff1661ffff161415610524576105238989898481811061050457fe5b9050602002013588888581811061051757fe5b90506020020135611ffe565b5b6105618989898481811061053457fe5b9050602002013586868581811061054757fe5b905060200201602061055c9190810190612d20565b610579565b8080600101915050610496565b505050505050505050565b8260008082815260200190815260200160002060070160003373ffffffffffffffffffffffffffffffffffffffff1673ffffffffffffffffffffffffffffffffffffffff16815260200190815260200160002060009054906101000a900460ff16610619576040517f08c379a00000000000000000000000000000000000000000000000000000000081526004016106109061400d565b60405180910390fd5b600073ffffffffffffffffffffffffffffffffffffffff168273ffffffffffffffffffffffffffffffffffffffff161415610689576040517f08c379a000000000000000000000000000000000000000000000000000000000815260040161068090613fed565b60405180910390fd5b60008060008681526020019081526020016000209050600081600301600086815260200190815260200160002060009054906101000a900461ffff1661ffff16141561070a576040517f08c379a000000000000000000000000000000000000000000000000000000000815260040161070190613d0d565b60405180910390fd5b60006001028160020160008573ffffffffffffffffffffffffffffffffffffffff1673ffffffffffffffffffffffffffffffffffffffff1681526020019081526020016000205414610791576040517f08c379a000000000000000000000000000000000000000000000000000000000815260040161078890613f2d565b60405180910390fd5b60148160010160008681526020019081526020016000208054905011156107ed576040517f08c379a00000000000000000000000000000000000000000000000000000000081526004016107e490613d8d565b60405180910390fd5b838160020160008573ffffffffffffffffffffffffffffffffffffffff1673ffffffffffffffffffffffffffffffffffffffff168152602001908152602001600020819055508060010160008581526020019081526020016000208390806001815401808255809150509060018203906000526020600020016000909192909190916101000a81548173ffffffffffffffffffffffffffffffffffffffff021916908373ffffffffffffffffffffffffffffffffffffffff1602179055505083853373ffffffffffffffffffffffffffffffffffffffff167f6b1709948f0f41fbabae4f0c313418d060186480e2a2bcfb87770facec752415866040516108f49190613b76565b60405180910390a45050505050565b8160008082815260200190815260200160002060070160003373ffffffffffffffffffffffffffffffffffffffff1673ffffffffffffffffffffffffffffffffffffffff16815260200190815260200160002060009054906101000a900460ff166109a3576040517f08c379a000000000000000000000000000000000000000000000000000000000815260040161099a9061400d565b60405180910390fd5b600073ffffffffffffffffffffffffffffffffffffffff168273ffffffffffffffffffffffffffffffffffffffff161415610a13576040517f08c379a0000000000000000000000000000000000000000000000000000000008152600401610a0a90613e8d565b60405180910390fd5b600080600085815260200190815260200160002060060160008473ffffffffffffffffffffffffffffffffffffffff1673ffffffffffffffffffffffffffffffffffffffff16815260200190815260200160002060006101000a81548160ff0219169083151502179055508173ffffffffffffffffffffffffffffffffffffffff16833373ffffffffffffffffffffffffffffffffffffffff167fda84d50676cadb9cef699fb523a85e2d1179685a1d6ae1503763f1d9ae72609060405160405180910390a4505050565b600081600080600083815260200190815260200160002090508060080160029054906101000a900460ff16610bad5760008083815260200190815260200160002060060160003373ffffffffffffffffffffffffffffffffffffffff1673ffffffffffffffffffffffffffffffffffffffff16815260200190815260200160002060009054906101000a900460ff16610bac576040517f08c379a0000000000000000000000000000000000000000000000000000000008152600401610ba390613ded565b60405180910390fd5b5b6001600085815260200190815260200160002060000160009054906101000a9004600f0b92505050919050565b600080600085815260200190815260200160002060080160009054906101000a900461ffff1661ffff1614610c44576040517f08c379a0000000000000000000000000000000000000000000000000000000008152600401610c3b90613e0d565b60405180910390fd5b6102008261ffff1610610c8c576040517f08c379a0000000000000000000000000000000000000000000000000000000008152600401610c8390613f6d565b60405180910390fd5b600160008085815260200190815260200160002060070160003373ffffffffffffffffffffffffffffffffffffffff1673ffffffffffffffffffffffffffffffffffffffff16815260200190815260200160002060006101000a81548160ff021916908315150217905550600160008085815260200190815260200160002060060160003373ffffffffffffffffffffffffffffffffffffffff1673ffffffffffffffffffffffffffffffffffffffff16815260200190815260200160002060006101000a81548160ff0219169083151502179055508060008085815260200190815260200160002060080160026101000a81548160ff0219169083151502179055508160008085815260200190815260200160002060080160006101000a81548161ffff021916908361ffff160217905550823373ffffffffffffffffffffffffffffffffffffffff167f8adfebd07d438662b75a84aa35658743170bd6574ff8701e58aa68cf3312bab784604051610e06919061402d565b60405180910390a3505050565b8160008082815260200190815260200160002060070160003373ffffffffffffffffffffffffffffffffffffffff1673ffffffffffffffffffffffffffffffffffffffff16815260200190815260200160002060009054906101000a900460ff16610eb3576040517f08c379a0000000000000000000000000000000000000000000000000000000008152600401610eaa9061400d565b60405180910390fd5b600073ffffffffffffffffffffffffffffffffffffffff168273ffffffffffffffffffffffffffffffffffffffff161415610f23576040517f08c379a0000000000000000000000000000000000000000000000000000000008152600401610f1a90613f8d565b60405180910390fd5b600160008085815260200190815260200160002060060160008473ffffffffffffffffffffffffffffffffffffffff1673ffffffffffffffffffffffffffffffffffffffff16815260200190815260200160002060006101000a81548160ff0219169083151502179055508173ffffffffffffffffffffffffffffffffffffffff16833373ffffffffffffffffffffffffffffffffffffffff167ffb6475ced741683cd12211262e0dbd5fabc36be42d317f87aa9e83df7242a8fc60405160405180910390a4505050565b8160008082815260200190815260200160002060070160003373ffffffffffffffffffffffffffffffffffffffff1673ffffffffffffffffffffffffffffffffffffffff16815260200190815260200160002060009054906101000a900460ff1661108e576040517f08c379a00000000000000000000000000000000000000000000000000000000081526004016110859061400d565b60405180910390fd5b8160008085815260200190815260200160002060080160026101000a81548160ff0219169083151502179055507fe83c3bc8e2d0a141db4c6ab89d9a5ca986a4edc0bdb1a74e753265c13dc7db353384846040516110ee93929190613b91565b60405180910390a1505050565b8160008082815260200190815260200160002060070160003373ffffffffffffffffffffffffffffffffffffffff1673ffffffffffffffffffffffffffffffffffffffff16815260200190815260200160002060009054906101000a900460ff1661119b576040517f08c379a00000000000000000000000000000000000000000000000000000000081526004016111929061400d565b60405180910390fd5b60008060008581526020019081526020016000209050600081600301600085815260200190815260200160002060009054906101000a900461ffff16905060008260040160008460050160009054906101000a900461ffff1661ffff1661ffff168152602001908152602001600020549050600083600301600087815260200190815260200160002060006101000a81548161ffff021916908361ffff16021790555060006001028360040160008560050160009054906101000a900461ffff1661ffff1661ffff168152602001908152602001600020819055508183600301600083815260200190815260200160002060006101000a81548161ffff021916908361ffff160217905550808360040160008461ffff1661ffff168152602001908152602001600020819055506000836001016000878152602001908152602001600020905060008090505b818054905081101561138157600082828154811061130157fe5b9060005260206000200160009054906101000a900473ffffffffffffffffffffffffffffffffffffffff1690508560020160008273ffffffffffffffffffffffffffffffffffffffff1673ffffffffffffffffffffffffffffffffffffffff168152602001908152602001600020600090555080806001019150506112e7565b5083600101600087815260200190815260200160002060006113a39190612aa9565b83600501600081819054906101000a900461ffff16809291906001900391906101000a81548161ffff021916908361ffff1602179055505085873373ffffffffffffffffffffffffffffffffffffffff167fc1a9fc62b8033041c11ff0c436c83008f1e4ec6fec7db3d036a78571dfe64d1260405160405180910390a450505050505050565b8160008082815260200190815260200160002060070160003373ffffffffffffffffffffffffffffffffffffffff1673ffffffffffffffffffffffffffffffffffffffff16815260200190815260200160002060009054906101000a900460ff166114c9576040517f08c379a00000000000000000000000000000000000000000000000000000000081526004016114c09061400d565b60405180910390fd5b600160008085815260200190815260200160002060070160008473ffffffffffffffffffffffffffffffffffffffff1673ffffffffffffffffffffffffffffffffffffffff16815260200190815260200160002060006101000a81548160ff0219169083151502179055508173ffffffffffffffffffffffffffffffffffffffff16833373ffffffffffffffffffffffffffffffffffffffff167f2596a56cf263a4dd9bc8a72774f71037c1aaee5e27b4ac660f84fec19d7de5f760405160405180910390a4505050565b8160008082815260200190815260200160002060070160003373ffffffffffffffffffffffffffffffffffffffff1673ffffffffffffffffffffffffffffffffffffffff16815260200190815260200160002060009054906101000a900460ff16611634576040517f08c379a000000000000000000000000000000000000000000000000000000000815260040161162b9061400d565b60405180910390fd5b60008084815260200190815260200160002060070160008373ffffffffffffffffffffffffffffffffffffffff1673ffffffffffffffffffffffffffffffffffffffff16815260200190815260200160002060009054906101000a900460ff166116d3576040517f08c379a00000000000000000000000000000000000000000000000000000000081526004016116ca90613d4d565b60405180910390fd5b600080600085815260200190815260200160002060070160008473ffffffffffffffffffffffffffffffffffffffff1673ffffffffffffffffffffffffffffffffffffffff16815260200190815260200160002060006101000a81548160ff0219169083151502179055508173ffffffffffffffffffffffffffffffffffffffff16833373ffffffffffffffffffffffffffffffffffffffff167f046097ebaced0801e580cbd6f896b21319151cc80b4de4ff0445b7640b0d0dc660405160405180910390a4505050565b61182b89878780806020026020016040519081016040528093929190818152602001838360200280828437600081840152601f19601f82011690508083019250505050505050868680806020026020016040519081016040528093929190818152602001838360200280828437600081840152601f19601f82011690508083019250505050505050612676565b60008060008b815260200190815260200160002090508060080160009054906101000a900461ffff1661ffff1687879050101561189d576040517f08c379a000000000000000000000000000000000000000000000000000000000815260040161189490613f4d565b60405180910390fd5b600080905060008090506060898990506040519080825280602002602001820160405280156118db5781602001602082028038833980820191505090505b50905060008090505b8a8a9050811015611c985760006119e38e8e8481811061190057fe5b905060200201358d8d8581811061191357fe5b9050602002016020611928919081019061313f565b8c8c8681811061193457fe5b905060200201358b8b8781811061194757fe5b905060200281018035600160200383360303811261196457600080fd5b8083019250508135905060208201915067ffffffffffffffff81111561198957600080fd5b60018102360382131561199b57600080fd5b8080601f016020809104026020016040519081016040528093929190818152602001838380828437600081840152601f19601f820116905080830192505050505050506127ee565b9050808383815181106119f257fe5b602002602001019073ffffffffffffffffffffffffffffffffffffffff16908173ffffffffffffffffffffffffffffffffffffffff168152505060008660020160008373ffffffffffffffffffffffffffffffffffffffff1673ffffffffffffffffffffffffffffffffffffffff1681526020019081526020016000205490506000600102811415611ab9576040517f08c379a0000000000000000000000000000000000000000000000000000000008152600401611ab090613d6d565b60405180910390fd5b8e8e84818110611ac557fe5b905060200201358760000160008381526020019081526020016000205414611b22576040517f08c379a0000000000000000000000000000000000000000000000000000000008152600401611b1990613fcd565b60405180910390fd5b600060018860030160008a60020160008773ffffffffffffffffffffffffffffffffffffffff1673ffffffffffffffffffffffffffffffffffffffff16815260200190815260200160002054815260200190815260200160002060009054906101000a900461ffff1603905060ff8161ffff1611611c0b576000819050600060028260ff1689908060020a820491505081611bb957fe5b0614611bfa576040517f08c379a0000000000000000000000000000000000000000000000000000000008152600401611bf190613e4d565b60405180910390fd5b8060ff1660020a8701965050611c88565b600060088261ffff16908060020a82049150509050600060028260ff168a908060020a820491505081611c3a57fe5b0614611c7b576040517f08c379a0000000000000000000000000000000000000000000000000000000008152600401611c7290613e4d565b60405180910390fd5b8060ff1660020a88019750505b50505080806001019150506118e4565b50611d278d828c8c80806020026020016040519081016040528093929190818152602001838360200280828437600081840152601f19601f820116905080830192505050505050508b8b80806020026020016040519081016040528093929190818152602001838360200280828437600081840152601f19601f820116905080830192505050505050506128ba565b50505050505050505050505050565b600080600083600080600083815260200190815260200160002090508060080160029054906101000a900460ff16611e085760008083815260200190815260200160002060060160003373ffffffffffffffffffffffffffffffffffffffff1673ffffffffffffffffffffffffffffffffffffffff16815260200190815260200160002060009054906101000a900460ff16611e07576040517f08c379a0000000000000000000000000000000000000000000000000000000008152600401611dfe90613ded565b60405180910390fd5b5b60006001600088815260200190815260200160002090508060000160009054906101000a9004600f0b816001015482600201549550955095505050509193909250565b8160008082815260200190815260200160002060070160003373ffffffffffffffffffffffffffffffffffffffff1673ffffffffffffffffffffffffffffffffffffffff16815260200190815260200160002060009054906101000a900460ff16611eeb576040517f08c379a0000000000000000000000000000000000000000000000000000000008152600401611ee29061400d565b60405180910390fd5b60008261ffff1611611f32576040517f08c379a0000000000000000000000000000000000000000000000000000000008152600401611f2990613dad565b60405180910390fd5b6102008261ffff1610611f7a576040517f08c379a0000000000000000000000000000000000000000000000000000000008152600401611f7190613ead565b60405180910390fd5b8160008085815260200190815260200160002060080160006101000a81548161ffff021916908361ffff160217905550823373ffffffffffffffffffffffffffffffffffffffff167f49675ae7e9f659087ef6ee7bf7338315e5691b56baac3fa09982657842e79eb584604051611ff1919061402d565b60405180910390a3505050565b8260008082815260200190815260200160002060070160003373ffffffffffffffffffffffffffffffffffffffff1673ffffffffffffffffffffffffffffffffffffffff16815260200190815260200160002060009054906101000a900460ff1661209e576040517f08c379a00000000000000000000000000000000000000000000000000000000081526004016120959061400d565b60405180910390fd5b60006001028314156120e5576040517f08c379a00000000000000000000000000000000000000000000000000000000081526004016120dc90613e6d565b60405180910390fd5b600060010282141561212c576040517f08c379a000000000000000000000000000000000000000000000000000000000815260040161212390613fad565b60405180910390fd5b6000806000868152602001908152602001600020905060008160080160009054906101000a900461ffff1661ffff161161219b576040517f08c379a000000000000000000000000000000000000000000000000000000000815260040161219290613ccd565b60405180910390fd5b600081600301600086815260200190815260200160002060009054906101000a900461ffff1661ffff1614612205576040517f08c379a00000000000000000000000000000000000000000000000000000000081526004016121fc90613ced565b60405180910390fd5b6102008160050160009054906101000a900461ffff1661ffff161061225f576040517f08c379a000000000000000000000000000000000000000000000000000000000815260040161225690613e2d565b60405180910390fd5b80600501600081819054906101000a900461ffff168092919060010191906101000a81548161ffff021916908361ffff1602179055505060008086815260200190815260200160002060050160009054906101000a900461ffff1681600301600086815260200190815260200160002060006101000a81548161ffff021916908361ffff160217905550838160040160008360050160009054906101000a900461ffff1661ffff1661ffff16815260200190815260200160002081905550828160000160008681526020019081526020016000208190555083853373ffffffffffffffffffffffffffffffffffffffff167fd7200eacb82a167d6f9d2e66741919ca80e097199bfdad7064c39e136f923e3b8660405161237f9190613bc8565b60405180910390a45050505050565b8160008082815260200190815260200160002060070160003373ffffffffffffffffffffffffffffffffffffffff1673ffffffffffffffffffffffffffffffffffffffff16815260200190815260200160002060009054906101000a900460ff1661242e576040517f08c379a00000000000000000000000000000000000000000000000000000000081526004016124259061400d565b60405180910390fd5b6000806000858152602001908152602001600020905060008160020160008573ffffffffffffffffffffffffffffffffffffffff1673ffffffffffffffffffffffffffffffffffffffff1681526020019081526020016000205490506000826001016000838152602001908152602001600020905060008090505b81805490508110156125d8578573ffffffffffffffffffffffffffffffffffffffff168282815481106124d857fe5b9060005260206000200160009054906101000a900473ffffffffffffffffffffffffffffffffffffffff1673ffffffffffffffffffffffffffffffffffffffff1614156125cb578160018380549050038154811061253257fe5b9060005260206000200160009054906101000a900473ffffffffffffffffffffffffffffffffffffffff1682828154811061256957fe5b9060005260206000200160006101000a81548173ffffffffffffffffffffffffffffffffffffffff021916908373ffffffffffffffffffffffffffffffffffffffff160217905550818054809190600190036125c59190612aca565b506125d8565b80806001019150506124a9565b508260020160008673ffffffffffffffffffffffffffffffffffffffff1673ffffffffffffffffffffffffffffffffffffffff1681526020019081526020016000206000905581863373ffffffffffffffffffffffffffffffffffffffff167f83b30ec2f4a7e34db581007fa2892f7da39ede2fb1903d8196ba04b1f169138d886040516126669190613b76565b60405180910390a4505050505050565b60008260008151811061268557fe5b6020026020010151905060006001600086815260200190815260200160002060020154905060008090505b84518110156127e657818482815181106126c657fe5b60200260200101511161270e576040517f08c379a000000000000000000000000000000000000000000000000000000000815260040161270590613f0d565b60405180910390fd5b61012c420184828151811061271f57fe5b602002602001015110612767576040517f08c379a000000000000000000000000000000000000000000000000000000000815260040161275e90613d2d565b60405180910390fd5b82600f0b85828151811061277757fe5b6020026020010151600f0b12156127c3576040517f08c379a00000000000000000000000000000000000000000000000000000000081526004016127ba90613eed565b60405180910390fd5b8481815181106127cf57fe5b6020026020010151925080806001019150506126b0565b505050505050565b600080600080848060200190516128089190810190613065565b925092509250600187878a60405160200161282593929190613b13565b6040516020818303038152906040528051906020012060405160200161284b9190613b50565b60405160208183030381529060405280519060200120828585604051600081526020016040526040516128819493929190613be3565b6020604051602081039080840390855afa1580156128a3573d6000803e3d6000fd5b505050602060405103519350505050949350505050565b600080600060018551908060020a82049150509050600060028651816128dc57fe5b06141561295f576000600243816128ef57fe5b06141561292d5784600182038151811061290557fe5b6020026020010151925083600182038151811061291e57fe5b6020026020010151915061295a565b84818151811061293957fe5b6020026020010151925083818151811061294f57fe5b602002602001015191505b61298c565b84818151811061296b57fe5b6020026020010151925083818151811061298157fe5b602002602001015191505b826001600089815260200190815260200160002060000160006101000a8154816fffffffffffffffffffffffffffffffff0219169083600f0b6fffffffffffffffffffffffffffffffff160217905550816001600089815260200190815260200160002060020181905550426001600089815260200190815260200160002060010181905550863373ffffffffffffffffffffffffffffffffffffffff167f59fe40ef51603559cd2e841aa91192007423ced71bd36682786fdf79a10df913600160008b815260200190815260200160002060000160009054906101000a9004600f0b600160008c8152602001908152602001600020600201548a8a604051612a989493929190613c43565b60405180910390a350505050505050565b5080546000825590600052602060002090810190612ac79190612af6565b50565b815481835581811115612af157818360005260206000209182019101612af09190612af6565b5b505050565b612b1891905b80821115612b14576000816000905550600101612afc565b5090565b90565b600081359050612b2a816141c9565b92915050565b60008083601f840112612b4257600080fd5b8235905067ffffffffffffffff811115612b5b57600080fd5b602083019150836020820283011115612b7357600080fd5b9250929050565b60008083601f840112612b8c57600080fd5b8235905067ffffffffffffffff811115612ba557600080fd5b602083019150836020820283011115612bbd57600080fd5b9250929050565b60008083601f840112612bd657600080fd5b8235905067ffffffffffffffff811115612bef57600080fd5b602083019150836020820283011115612c0757600080fd5b9250929050565b60008083601f840112612c2057600080fd5b8235905067ffffffffffffffff811115612c3957600080fd5b602083019150836020820283011115612c5157600080fd5b9250929050565b60008083601f840112612c6a57600080fd5b8235905067ffffffffffffffff811115612c8357600080fd5b602083019150836020820283011115612c9b57600080fd5b9250929050565b600081359050612cb1816141e0565b92915050565b600081359050612cc6816141f7565b92915050565b600081519050612cdb816141f7565b92915050565b600081359050612cf08161420e565b92915050565b600081359050612d0581614225565b92915050565b600081519050612d1a8161423c565b92915050565b600060208284031215612d3257600080fd5b6000612d4084828501612b1b565b91505092915050565b600060208284031215612d5b57600080fd5b6000612d6984828501612cb7565b91505092915050565b60008060408385031215612d8557600080fd5b6000612d9385828601612cb7565b9250506020612da485828601612b1b565b9150509250929050565b60008060008060008060006080888a031215612dc957600080fd5b6000612dd78a828b01612cb7565b975050602088013567ffffffffffffffff811115612df457600080fd5b612e008a828b01612b7a565b9650965050604088013567ffffffffffffffff811115612e1f57600080fd5b612e2b8a828b01612b7a565b9450945050606088013567ffffffffffffffff811115612e4a57600080fd5b612e568a828b01612b30565b925092505092959891949750929550565b600080600080600080600080600060a08a8c031215612e8557600080fd5b6000612e938c828d01612cb7565b99505060208a013567ffffffffffffffff811115612eb057600080fd5b612ebc8c828d01612b7a565b985098505060408a013567ffffffffffffffff811115612edb57600080fd5b612ee78c828d01612c0e565b965096505060608a013567ffffffffffffffff811115612f0657600080fd5b612f128c828d01612c58565b945094505060808a013567ffffffffffffffff811115612f3157600080fd5b612f3d8c828d01612bc4565b92509250509295985092959850929598565b60008060408385031215612f6257600080fd5b6000612f7085828601612cb7565b9250506020612f8185828601612ca2565b9150509250929050565b60008060408385031215612f9e57600080fd5b6000612fac85828601612cb7565b9250506020612fbd85828601612cb7565b9150509250929050565b600080600060608486031215612fdc57600080fd5b6000612fea86828701612cb7565b9350506020612ffb86828701612cb7565b925050604061300c86828701612b1b565b9150509250925092565b60008060006060848603121561302b57600080fd5b600061303986828701612cb7565b935050602061304a86828701612cb7565b925050604061305b86828701612cb7565b9150509250925092565b60008060006060848603121561307a57600080fd5b600061308886828701612ccc565b935050602061309986828701612ccc565b92505060406130aa86828701612d0b565b9150509250925092565b600080604083850312156130c757600080fd5b60006130d585828601612cb7565b92505060206130e685828601612cf6565b9150509250929050565b60008060006060848603121561310557600080fd5b600061311386828701612cb7565b935050602061312486828701612cf6565b925050604061313586828701612ca2565b9150509250925092565b60006020828403121561315157600080fd5b600061315f84828501612ce1565b91505092915050565b600061317483836131a7565b60208301905092915050565b600061318c83836132b6565b60208301905092915050565b6131a181614150565b82525050565b6131b0816140d6565b82525050565b6131bf816140d6565b82525050565b60006131d082614068565b6131da8185614098565b93506131e583614048565b8060005b838110156132165781516131fd8882613168565b97506132088361407e565b9250506001810190506131e9565b5085935050505092915050565b600061322e82614073565b61323881856140a9565b935061324383614058565b8060005b8381101561327457815161325b8882613180565b97506132668361408b565b925050600181019050613247565b5085935050505092915050565b61328a816140e8565b82525050565b613299816140f4565b82525050565b6132b06132ab826140f4565b614186565b82525050565b6132bf816140fe565b82525050565b6132ce816140fe565b82525050565b6132e56132e0826140fe565b614190565b82525050565b60006132f86017836140ba565b91507f446174616665656420646f6573206e6f742065786973740000000000000000006000830152602082019050919050565b60006133386015836140ba565b91507f536f7572636520616c72656164792065786973747300000000000000000000006000830152602082019050919050565b6000613378601b836140ba565b91507f496e76616c696420736f7572636520666f7220646174614665656400000000006000830152602082019050919050565b60006133b8603d836140ba565b91507f56616c75652074696d657374616d702063616e6e6f74206265206d6f7265207460008301527f68616e2035206d696e7574657320616674657220626c6f636b74696d650000006020830152604082019050919050565b600061341e601c836140cb565b91507f19457468657265756d205369676e6564204d6573736167653a0a3332000000006000830152601c82019050919050565b600061345e6022836140ba565b91507f4461746166656564206f72204d616e6167657220646f6573206e6f742065786960008301527f73740000000000000000000000000000000000000000000000000000000000006020830152604082019050919050565b60006134c4601b836140ba565b91507f5369676e617475726520627920696e76616c696420736f7572636500000000006000830152602082019050919050565b60006135046027836140ba565b91507f536f757263652063616e6e6f742068617665206d6f7265207468616e2032302060008301527f5369676e657273000000000000000000000000000000000000000000000000006020830152604082019050919050565b600061356a6014836140ba565b91507f6d696e206d75737420626520706f7369746976650000000000000000000000006000830152602082019050919050565b60006135aa6023836140ba565b91507f496e707574206c69737473206d757374206265206f6620657175616c206c656e60008301527f67746800000000000000000000000000000000000000000000000000000000006020830152604082019050919050565b60006136106013836140ba565b91507f756e617574686f72697a656420726561646572000000000000000000000000006000830152602082019050919050565b60006136506017836140ba565b91507f446174614665656420616c7265616479206578697374730000000000000000006000830152602082019050919050565b6000613690601a836140ba565b91507f52656163686564206d6178206f662035313120736f75726365730000000000006000830152602082019050919050565b60006136d06015836140ba565b91507f536f7572636520616c7265616479207369676e656400000000000000000000006000830152602082019050919050565b60006137106012836140ba565b91507f536f757263652063616e6e6f74206265203000000000000000000000000000006000830152602082019050919050565b6000613750601e836140ba565b91507f52656164657220616464726573732073686f756c64206e6f74206265203000006000830152602082019050919050565b60006137906019836140ba565b91507f6d696e206d757374206265206c657373207468616e20353132000000000000006000830152602082019050919050565b60006137d0602b836140ba565b91507f536f7572636520616e64205369676e6572206c697374732073686f756c64206e60008301527f6f7420626520656d7074790000000000000000000000000000000000000000006020830152604082019050919050565b60006138366013836140ba565b91507f4c697374206d75737420626520736f72746564000000000000000000000000006000830152602082019050919050565b6000613876601d836140ba565b91507f56616c7565206d757374206265206e65776572207468616e206c6173740000006000830152602082019050919050565b60006138b66023836140ba565b91507f5369676e657220616c726561647920616464656420746f207468697320536f7560008301527f72636500000000000000000000000000000000000000000000000000000000006020830152604082019050919050565b600061391c6012836140ba565b91507f4e6f7420656e6f75676820736f757263657300000000000000000000000000006000830152602082019050919050565b600061395c601b836140ba565b91507f4d757374207265717569726520203c2035313220736f757263657300000000006000830152602082019050919050565b600061399c600d836140ba565b91507f4e6f20636f6e74726163742030000000000000000000000000000000000000006000830152602082019050919050565b60006139dc6018836140ba565b91507f736f757263654461746149642063616e6e6f74206265203000000000000000006000830152602082019050919050565b6000613a1c601a836140ba565b91507f496e76616c6964206461746120494420666f7220736f757263650000000000006000830152602082019050919050565b6000613a5c600b836140ba565b91507f4e6f207369676e657220300000000000000000000000000000000000000000006000830152602082019050919050565b6000613a9c600d836140ba565b91507f6e6f742061206d616e61676572000000000000000000000000000000000000006000830152602082019050919050565b613ad88161410b565b82525050565b613ae781614139565b82525050565b613afe613af982614139565b6141a2565b82525050565b613b0d81614143565b82525050565b6000613b1f82866132d4565b601082019150613b2f8285613aed565b602082019150613b3f828461329f565b602082019150819050949350505050565b6000613b5b82613411565b9150613b67828461329f565b60208201915081905092915050565b6000602082019050613b8b60008301846131b6565b92915050565b6000606082019050613ba66000830186613198565b613bb36020830185613290565b613bc06040830184613281565b949350505050565b6000602082019050613bdd6000830184613290565b92915050565b6000608082019050613bf86000830187613290565b613c056020830186613b04565b613c126040830185613290565b613c1f6060830184613290565b95945050505050565b6000602082019050613c3d60008301846132c5565b92915050565b6000608082019050613c5860008301876132c5565b613c656020830186613ade565b8181036040830152613c7781856131c5565b90508181036060830152613c8b8184613223565b905095945050505050565b6000606082019050613cab60008301866132c5565b613cb86020830185613ade565b613cc56040830184613ade565b949350505050565b60006020820190508181036000830152613ce6816132eb565b9050919050565b60006020820190508181036000830152613d068161332b565b9050919050565b60006020820190508181036000830152613d268161336b565b9050919050565b60006020820190508181036000830152613d46816133ab565b9050919050565b60006020820190508181036000830152613d6681613451565b9050919050565b60006020820190508181036000830152613d86816134b7565b9050919050565b60006020820190508181036000830152613da6816134f7565b9050919050565b60006020820190508181036000830152613dc68161355d565b9050919050565b60006020820190508181036000830152613de68161359d565b9050919050565b60006020820190508181036000830152613e0681613603565b9050919050565b60006020820190508181036000830152613e2681613643565b9050919050565b60006020820190508181036000830152613e4681613683565b9050919050565b60006020820190508181036000830152613e66816136c3565b9050919050565b60006020820190508181036000830152613e8681613703565b9050919050565b60006020820190508181036000830152613ea681613743565b9050919050565b60006020820190508181036000830152613ec681613783565b9050919050565b60006020820190508181036000830152613ee6816137c3565b9050919050565b60006020820190508181036000830152613f0681613829565b9050919050565b60006020820190508181036000830152613f2681613869565b9050919050565b60006020820190508181036000830152613f46816138a9565b9050919050565b60006020820190508181036000830152613f668161390f565b9050919050565b60006020820190508181036000830152613f868161394f565b9050919050565b60006020820190508181036000830152613fa68161398f565b9050919050565b60006020820190508181036000830152613fc6816139cf565b9050919050565b60006020820190508181036000830152613fe681613a0f565b9050919050565b6000602082019050818103600083015261400681613a4f565b9050919050565b6000602082019050818103600083015261402681613a8f565b9050919050565b60006020820190506140426000830184613acf565b92915050565b6000819050602082019050919050565b6000819050602082019050919050565b600081519050919050565b600081519050919050565b6000602082019050919050565b6000602082019050919050565b600082825260208201905092915050565b600082825260208201905092915050565b600082825260208201905092915050565b600081905092915050565b60006140e182614119565b9050919050565b60008115159050919050565b6000819050919050565b600081600f0b9050919050565b600061ffff82169050919050565b600073ffffffffffffffffffffffffffffffffffffffff82169050919050565b6000819050919050565b600060ff82169050919050565b600061415b82614162565b9050919050565b600061416d82614174565b9050919050565b600061417f82614119565b9050919050565b6000819050919050565b600061419b826141ac565b9050919050565b6000819050919050565b600070010000000000000000000000000000000082029050919050565b6141d2816140d6565b81146141dd57600080fd5b50565b6141e9816140e8565b81146141f457600080fd5b50565b614200816140f4565b811461420b57600080fd5b50565b614217816140fe565b811461422257600080fd5b50565b61422e8161410b565b811461423957600080fd5b50565b61424581614143565b811461425057600080fd5b5056fea365627a7a7230582033f14489b4e7eefbd7c93e0bd08ed02b084a389e0b838ed703bcbf7d301e14316c6578706572696d656e74616cf564736f6c634300050a0040",
  "source": "pragma solidity ^0.5.0;\npragma experimental ABIEncoderV2; // Needed for using bytes[] parameter type.\n\ncontract DirtOracle {\n\n  // Anyone can create a new DataFeed with `createDataFeed()`.\n  // Only the managers of a DataFeed can edit parameters (whitelists and config) of the dataFeed.\n  // Anyone can post updates to the dataFeed data with `post()`, but the data is only accepted if it meets the dataFeed's configured criteria.\n  struct DataFeedConfig {\n    mapping (bytes32 => bytes32) sourceToDataId;\n\n    // Whitelists, all editable only by managers\n    mapping (bytes32 => address[]) sourceToSigners;\n    mapping (address => bytes32) signerToSource;\n\n    mapping (bytes32 => uint16) sourceToId;\n    mapping (uint16 => bytes32) idToSource;\n    // Source IDs are assigned in incrementing order in a packed manner in the range [1, 511].\n    // If a source is deleted, the last source is reassigned its ID and the last source ID is freed up.\n    uint16 lastSourceId;\n\n    mapping (address => bool) readers;\n    mapping (address => bool) managers;\n\n    uint16 minRequiredSources;\n\n    bool isFree; // If True, any address may read from this Datafeed at no cost.\n  }\n\n  struct DataFeedData {\n    // Last accepted data\n    int128 value;\n    uint256 blockTime;\n    uint256 epochTime;\n  }\n\n  /*************** State attributes ***************/\n\n  // A map from dataFeed name to DataFeed.\n  mapping (bytes32 => DataFeedConfig) internal dataFeeds_config;\n  mapping (bytes32 => DataFeedData) internal dataFeeds_data;\n\n  /*************** Emitted Events *****************/\n\n  // when a data feed is created\n  event DataFeedCreation(\n    address indexed manager,\n    bytes32 indexed dataFeed,\n    uint16 minRequiredSources\n  );\n\n  // when an existing manager adds a new manager\n  event ManagerAddition(\n    address indexed manager,\n    bytes32 indexed dataFeed,\n    address indexed newManager\n  );\n\n  // when an existing manager removes a existing manager\n  event ManagerRemoval(\n    address indexed manager,\n    bytes32 indexed dataFeed,\n    address indexed firedManager\n  );\n\n  // when a source is added\n  event SourceAddition(\n    address indexed manager,\n    bytes32 indexed dataFeed,\n    bytes32 indexed source,\n    bytes32 sourceDataId\n  );\n\n  // when a source is removed\n  event SourceRemoval(\n    address indexed manager,\n    bytes32 indexed dataFeed,\n    bytes32 indexed source\n  );\n\n  // when a signer is added\n  event SignerAddition(\n    address indexed manager,\n    bytes32 indexed dataFeed,\n    bytes32 indexed source,\n    address signer\n  );\n\n  // when a signer is removed\n  event SignerRemoval(\n    address indexed manager,\n    bytes32 indexed dataFeed,\n    bytes32 indexed source,\n    address signer\n  );\n\n  // when a reader is added\n  event ReaderAddition(\n    address indexed manager,\n    bytes32 indexed dataFeed,\n    address indexed newReader\n  );\n\n  // when a reader is removed\n  event ReaderRemoval(\n    address indexed manager,\n    bytes32 indexed dataFeed,\n    address indexed firedReader\n  );\n\n  // when min required sources is updated\n  event MinRequiredSourcesUpdated(\n    address indexed manager,\n    bytes32 indexed dataFeed,\n    uint16 newMin\n  );\n\n  event IsFreeUpdated(\n    address manager,\n    bytes32 dataFeed,\n    bool isFree\n  );\n\n  // when a valid source reports a value\n  event SignerReported(\n    bytes32 indexed dataFeed,\n    address indexed signerAddress,\n    int128 value,\n    uint256 epochTime\n  );\n\n  // when contract writes a median value\n  event MedianValueWritten(\n    address indexed reporterAddress,\n    bytes32 indexed dataFeed,\n    int128 value,\n    uint256 epochTime,\n    address[] signerAddresses,\n    int128[] signerValues\n  );\n\n  /*********************** Modifiers *******************/\n\n  modifier managersOnly(bytes32 dataFeed) {\n    require(dataFeeds_config[dataFeed].managers[msg.sender], 'not a manager');\n    _;\n  }\n\n  modifier readersOnly(bytes32 dataFeed) {\n    DataFeedConfig storage m = dataFeeds_config[dataFeed];\n    if (!m.isFree) {\n      require(\n        dataFeeds_config[dataFeed].readers[msg.sender],\n        \"unauthorized reader\"\n      );\n    }\n    _;\n  }\n\n  /*********************** Public methods *******************/\n\n  constructor() public {}\n\n  /*********************** External methods *******************/\n\n  // Posts a new sorted value list for a dataFeed.\n  function post(bytes32 dataFeed, bytes32[] calldata dataIds, int128[] calldata values, uint256[] calldata epochTime,\n      bytes[] calldata signatures) external {\n    checkAcceptableValue(dataFeed, values, epochTime);\n\n    DataFeedConfig storage m = dataFeeds_config[dataFeed];\n    require(values.length >= m.minRequiredSources, \"Not enough sources\");\n\n    // 512-bit vector to keep track of sources.\n    // Each ID goes into a single slot in the 2 block vector of [bloom1, bloom0].\n    // IDs are in [1, 511].\n    uint256 bloom1 = 0;\n    uint256 bloom0 = 0;\n\n    address[] memory signers = new address[](values.length);\n\n    for (uint i = 0; i < values.length; i++) {\n      // Check that signer is authorized.\n      address signer = recover(dataIds[i], values[i], epochTime[i], signatures[i]);\n      signers[i] = signer;\n\n      bytes32 source = m.signerToSource[signer];\n      require(source != 0, \"Signature by invalid source\");\n      require(m.sourceToDataId[source] == dataIds[i], \"Invalid data ID for source\");\n\n      // emit SignerReported(dataFeed, signer, values[i], epochTime[i]);\n\n      uint16 sourceId = m.sourceToId[m.signerToSource[signer]] - 1;\n      if (sourceId <= 255) {\n        uint8 slot = uint8(sourceId); // Lower byte\n        require((bloom0 >> slot) % 2 == 0, \"Source already signed\");\n        bloom0 += uint256(2) ** slot;\n      } else {\n        uint8 slot = uint8(sourceId >> 8); // Upper byte\n        require((bloom1 >> slot) % 2 == 0, \"Source already signed\");\n        bloom1 += uint256(2) ** slot;\n      }\n    }\n\n    acceptValue(dataFeed, signers, values, epochTime);\n  }\n\n  function getValue(bytes32 dataFeed) external view readersOnly(dataFeed) returns (int128) {\n    return dataFeeds_data[dataFeed].value;\n  }\n\n  function getValueAndTime(bytes32 dataFeed) external view readersOnly(dataFeed)\n      returns (int128 value, uint256 blockTime, uint256 epochTime) {\n    DataFeedData storage m = dataFeeds_data[dataFeed];\n    return (m.value, m.blockTime, m.epochTime);\n  }\n\n  // Initializes a new DataFeed with the sender as the sole manager and reader.\n  function createDataFeed(\n    bytes32 name,\n    uint16 minRequiredSources,\n    bool isFree\n  )\n    external\n  {\n    require(dataFeeds_config[name].minRequiredSources == 0, \"DataFeed already exists\");\n    require(minRequiredSources < 512, \"Must require  < 512 sources\");\n    dataFeeds_config[name].managers[msg.sender] = true;\n    dataFeeds_config[name].readers[msg.sender] = true;\n    dataFeeds_config[name].isFree = isFree;\n    dataFeeds_config[name].minRequiredSources = minRequiredSources;\n\n    emit DataFeedCreation(msg.sender, name, minRequiredSources);\n  }\n\n  function addManager(bytes32 dataFeed, address m) external managersOnly(dataFeed) {\n    dataFeeds_config[dataFeed].managers[m] = true;\n\n    emit ManagerAddition(msg.sender, dataFeed, m);\n  }\n\n  function removeManager(bytes32 dataFeed, address m) external managersOnly(dataFeed) {\n    require(\n      dataFeeds_config[dataFeed].managers[m],\n      \"Datafeed or Manager does not exist\"\n    );\n    dataFeeds_config[dataFeed].managers[m] = false;\n\n    emit ManagerRemoval(msg.sender, dataFeed, m);\n  }\n\n  function addSource(bytes32 dataFeed, bytes32 src, bytes32 sourceDataId) public managersOnly(dataFeed) {\n    require(src != 0, \"Source cannot be 0\");\n    require(sourceDataId != 0, \"sourceDataId cannot be 0\");\n    DataFeedConfig storage m = dataFeeds_config[dataFeed];\n    require(m.minRequiredSources > 0, \"Datafeed does not exist\");\n    require(m.sourceToId[src] == 0, \"Source already exists\");\n    require(m.lastSourceId < 512, \"Reached max of 511 sources\");\n    m.lastSourceId++;\n    m.sourceToId[src] = dataFeeds_config[dataFeed].lastSourceId;\n    m.idToSource[m.lastSourceId] = src;\n    m.sourceToDataId[src] = sourceDataId;\n\n    emit SourceAddition(msg.sender, dataFeed, src, sourceDataId);\n  }\n\n  function removeSource(bytes32 dataFeed, bytes32 src) public managersOnly(dataFeed) {\n    DataFeedConfig storage m = dataFeeds_config[dataFeed];\n\n    // Reassign source in last slot to take the removed source's ID.\n    uint16 idToReassign = m.sourceToId[src];\n    bytes32 lastSource = m.idToSource[m.lastSourceId];\n\n    m.sourceToId[src] = 0;\n    m.idToSource[m.lastSourceId] = 0;\n\n    m.sourceToId[lastSource] = idToReassign;\n    m.idToSource[idToReassign] = lastSource;\n\n    // Delete source's signers.\n    address[] storage signersToDelete = m.sourceToSigners[src];\n    for (uint i = 0; i < signersToDelete.length; i++) {\n      address signer = signersToDelete[i];\n      delete m.signerToSource[signer];\n    }\n    delete m.sourceToSigners[src];\n\n    m.lastSourceId--;\n\n    emit SourceRemoval(msg.sender, dataFeed, src);\n  }\n\n  function addSigner(bytes32 dataFeed, bytes32 src, address signer) public managersOnly(dataFeed) {\n    require(signer != address(0), \"No signer 0\");\n\n    DataFeedConfig storage m = dataFeeds_config[dataFeed];\n    require(m.sourceToId[src] != 0, \"Invalid source for dataFeed\");\n    require(m.signerToSource[signer] == 0, \"Signer already added to this Source\");\n    require(\n      m.sourceToSigners[src].length <= 20,\n      \"Source cannot have more than 20 Signers\"\n    );\n    m.signerToSource[signer] = src;\n    m.sourceToSigners[src].push(signer);\n\n    emit SignerAddition(msg.sender, dataFeed, src, signer);\n  }\n\n  function removeSigner(bytes32 dataFeed, address signer) external managersOnly(dataFeed) {\n    DataFeedConfig storage m = dataFeeds_config[dataFeed];\n    bytes32 src = m.signerToSource[signer];\n    address[] storage sourcesSigners = m.sourceToSigners[src];\n\n    for (uint i = 0; i < sourcesSigners.length; i++) {\n      if (sourcesSigners[i] == signer) {\n        sourcesSigners[i] = sourcesSigners[sourcesSigners.length - 1];\n        sourcesSigners.length--;\n        break;\n      }\n    }\n    delete m.signerToSource[signer];\n\n    emit SignerRemoval(msg.sender, dataFeed, src, signer);\n  }\n\n  // Convenience function for adding sources and signers at the same time.\n  // Adds source if it doesn't exist yet.\n  function batchAddSourceAndSigner(\n    bytes32 dataFeed,\n    bytes32[] calldata sources,\n    bytes32[] calldata sourceDataIds,\n    address[] calldata signers\n  ) external managersOnly(dataFeed) {\n    require(sources.length == sourceDataIds.length && sources.length == signers.length, \"Input lists must be of equal length\");\n    require(sources.length != 0, \"Source and Signer lists should not be empty\");\n    require(\n      dataFeeds_config[dataFeed].minRequiredSources != 0,\n      \"Datafeed does not exist\"\n    );\n    for (uint i = 0; i < sources.length; i++) {\n      if (dataFeeds_config[dataFeed].sourceToId[sources[i]] == 0) {\n        addSource(dataFeed, sources[i], sourceDataIds[i]);\n      }\n      addSigner(dataFeed, sources[i], signers[i]);\n    }\n  }\n\n  function setMinRequiredSources(bytes32 dataFeed, uint16 newMin) external managersOnly(dataFeed) {\n    require(newMin > 0, \"min must be positive\");\n    require(newMin < 512, \"min must be less than 512\");\n    dataFeeds_config[dataFeed].minRequiredSources = newMin;\n\n    emit MinRequiredSourcesUpdated(msg.sender, dataFeed, newMin);\n  }\n\n  function setIsFree(bytes32 dataFeed, bool isFree) external managersOnly(dataFeed) {\n    dataFeeds_config[dataFeed].isFree = isFree;\n    emit IsFreeUpdated(msg.sender, dataFeed, isFree);\n  }\n\n  function addReader(bytes32 dataFeed, address r) external managersOnly(dataFeed) {\n    require (r != address(0), \"No contract 0\");\n    dataFeeds_config[dataFeed].readers[r] = true;\n\n    emit ReaderAddition(msg.sender, dataFeed, r);\n  }\n\n  function removeReader(bytes32 dataFeed, address r) external managersOnly(dataFeed) {\n    require(r != address(0), \"Reader address should not be 0\");\n    dataFeeds_config[dataFeed].readers[r] = false;\n\n    emit ReaderRemoval(msg.sender, dataFeed, r);\n  }\n\n  /*********************** Internal methods *******************/\n\n  function checkAcceptableValue(bytes32 dataFeed, int128[] memory values, uint256[] memory epochTime) internal view {\n    int128 prevValue = values[0];\n    uint256 lastUpdatedTime = dataFeeds_data[dataFeed].epochTime;\n\n    for (uint i = 0; i < values.length; i++) {\n        require(epochTime[i] > lastUpdatedTime, \"Value must be newer than last\");\n        require(\n          epochTime[i] < (block.timestamp + 300),\n          \"Value timestamp cannot be more than 5 minutes after blocktime\"\n        );\n        require(values[i] >= prevValue, \"List must be sorted\");\n        prevValue = values[i];\n    }\n  }\n\n  // Recovers the signer of the dataFeed data.\n  function recover(\n    bytes32 dataId,\n    int128 value,\n    uint256 time,\n    bytes memory signature\n  )\n  internal pure returns (address)\n  {\n    (bytes32 r, bytes32 s, uint8 v) = abi.decode(\n      signature, (bytes32, bytes32, uint8)\n    );\n    return ecrecover(\n        keccak256(\n          abi.encodePacked(\n            \"\\x19Ethereum Signed Message:\\n32\",\n            keccak256(abi.encodePacked(value, time, dataId))\n          )\n        ),\n        v, r, s\n    );\n  }\n\n  // @dev This function was split out of `post()` due to stack variable count limitations.\n  function acceptValue(\n    bytes32 dataFeed,\n    address[] memory signers,\n    int128[] memory values,\n    uint256[] memory epochTime\n  ) internal {\n\n    // Set value to median.\n    int128 medianValue;\n    uint256 medianEpochTime;\n    uint256 midPoint = values.length >> 1;\n\n    if (values.length % 2 == 0) {\n      if (block.number % 2 == 0) {\n        // lower values of middle two\n        medianValue = values[midPoint - 1];\n        medianEpochTime = epochTime[midPoint - 1];\n      } else {\n        // higher values of middle two\n        medianValue = values[midPoint];\n        medianEpochTime = epochTime[midPoint];\n      }\n    } else {\n      medianValue = values[midPoint];\n      medianEpochTime = epochTime[midPoint];\n    }\n\n    dataFeeds_data[dataFeed].value = medianValue;\n    dataFeeds_data[dataFeed].epochTime = medianEpochTime;\n\n    dataFeeds_data[dataFeed].blockTime = block.timestamp;\n\n    emit MedianValueWritten(\n      msg.sender,\n      dataFeed,\n      dataFeeds_data[dataFeed].value,\n      dataFeeds_data[dataFeed].epochTime,\n      signers,\n      values\n    );\n  }\n}\n",
  "sourcePath": "/Users/park/Documents/dirt/dirtoracle/contracts/DirtOracle.sol",
  "compiler": {
    "name": "solc",
    "version": "0.5.10+commit.5a6ea5b1.Emscripten.clang"
  },
  "schemaVersion": "3.0.8",
  "updatedAt": "2019-08-12T19:10:03.312Z",
  "devdoc": {
    "methods": {}
  },
  "userdoc": {
    "methods": {
      "constructor": "********************* Public methods ******************",
      "post(bytes32,bytes32[],int128[],uint256[],bytes[])": {
        "notice": "********************* External methods ******************"
      }
    }
  }
}