{
  "contractName": "DirtOracle",
  "abi": [
    {
      "constant": true,
      "inputs": [
        {
          "name": "",
          "type": "bytes32"
        }
      ],
      "name": "dataFeeds_config",
      "outputs": [
        {
          "name": "lastSourceId",
          "type": "uint16"
        },
        {
          "name": "minRequiredSources",
          "type": "uint16"
        },
        {
          "name": "isFree",
          "type": "bool"
        }
      ],
      "payable": false,
      "stateMutability": "view",
      "type": "function",
      "signature": "0x313456e5"
    },
    {
      "inputs": [],
      "payable": false,
      "stateMutability": "nonpayable",
      "type": "constructor",
      "signature": "constructor"
    },
    {
      "anonymous": false,
      "inputs": [
        {
          "indexed": true,
          "name": "manager",
          "type": "address"
        },
        {
          "indexed": true,
          "name": "dataFeed",
          "type": "bytes32"
        },
        {
          "indexed": false,
          "name": "minRequiredSources",
          "type": "uint16"
        }
      ],
      "name": "DataFeedCreation",
      "type": "event",
      "signature": "0x8adfebd07d438662b75a84aa35658743170bd6574ff8701e58aa68cf3312bab7"
    },
    {
      "anonymous": false,
      "inputs": [
        {
          "indexed": true,
          "name": "manager",
          "type": "address"
        },
        {
          "indexed": true,
          "name": "dataFeed",
          "type": "bytes32"
        },
        {
          "indexed": true,
          "name": "newManager",
          "type": "address"
        }
      ],
      "name": "ManagerAddition",
      "type": "event",
      "signature": "0x2596a56cf263a4dd9bc8a72774f71037c1aaee5e27b4ac660f84fec19d7de5f7"
    },
    {
      "anonymous": false,
      "inputs": [
        {
          "indexed": true,
          "name": "manager",
          "type": "address"
        },
        {
          "indexed": true,
          "name": "dataFeed",
          "type": "bytes32"
        },
        {
          "indexed": true,
          "name": "firedManager",
          "type": "address"
        }
      ],
      "name": "ManagerRemoval",
      "type": "event",
      "signature": "0x046097ebaced0801e580cbd6f896b21319151cc80b4de4ff0445b7640b0d0dc6"
    },
    {
      "anonymous": false,
      "inputs": [
        {
          "indexed": true,
          "name": "manager",
          "type": "address"
        },
        {
          "indexed": true,
          "name": "dataFeed",
          "type": "bytes32"
        },
        {
          "indexed": true,
          "name": "source",
          "type": "bytes32"
        },
        {
          "indexed": false,
          "name": "sourceDataId",
          "type": "bytes32"
        }
      ],
      "name": "SourceAddition",
      "type": "event",
      "signature": "0xd7200eacb82a167d6f9d2e66741919ca80e097199bfdad7064c39e136f923e3b"
    },
    {
      "anonymous": false,
      "inputs": [
        {
          "indexed": true,
          "name": "manager",
          "type": "address"
        },
        {
          "indexed": true,
          "name": "dataFeed",
          "type": "bytes32"
        },
        {
          "indexed": true,
          "name": "source",
          "type": "bytes32"
        }
      ],
      "name": "SourceRemoval",
      "type": "event",
      "signature": "0xc1a9fc62b8033041c11ff0c436c83008f1e4ec6fec7db3d036a78571dfe64d12"
    },
    {
      "anonymous": false,
      "inputs": [
        {
          "indexed": true,
          "name": "manager",
          "type": "address"
        },
        {
          "indexed": true,
          "name": "dataFeed",
          "type": "bytes32"
        },
        {
          "indexed": true,
          "name": "source",
          "type": "bytes32"
        },
        {
          "indexed": false,
          "name": "signer",
          "type": "address"
        }
      ],
      "name": "SignerAddition",
      "type": "event",
      "signature": "0x6b1709948f0f41fbabae4f0c313418d060186480e2a2bcfb87770facec752415"
    },
    {
      "anonymous": false,
      "inputs": [
        {
          "indexed": true,
          "name": "manager",
          "type": "address"
        },
        {
          "indexed": true,
          "name": "dataFeed",
          "type": "bytes32"
        },
        {
          "indexed": true,
          "name": "source",
          "type": "bytes32"
        },
        {
          "indexed": false,
          "name": "signer",
          "type": "address"
        }
      ],
      "name": "SignerRemoval",
      "type": "event",
      "signature": "0x83b30ec2f4a7e34db581007fa2892f7da39ede2fb1903d8196ba04b1f169138d"
    },
    {
      "anonymous": false,
      "inputs": [
        {
          "indexed": true,
          "name": "manager",
          "type": "address"
        },
        {
          "indexed": true,
          "name": "dataFeed",
          "type": "bytes32"
        },
        {
          "indexed": true,
          "name": "newReader",
          "type": "address"
        }
      ],
      "name": "ReaderAddition",
      "type": "event",
      "signature": "0xfb6475ced741683cd12211262e0dbd5fabc36be42d317f87aa9e83df7242a8fc"
    },
    {
      "anonymous": false,
      "inputs": [
        {
          "indexed": true,
          "name": "manager",
          "type": "address"
        },
        {
          "indexed": true,
          "name": "dataFeed",
          "type": "bytes32"
        },
        {
          "indexed": true,
          "name": "firedReader",
          "type": "address"
        }
      ],
      "name": "ReaderRemoval",
      "type": "event",
      "signature": "0xda84d50676cadb9cef699fb523a85e2d1179685a1d6ae1503763f1d9ae726090"
    },
    {
      "anonymous": false,
      "inputs": [
        {
          "indexed": true,
          "name": "manager",
          "type": "address"
        },
        {
          "indexed": true,
          "name": "dataFeed",
          "type": "bytes32"
        },
        {
          "indexed": false,
          "name": "newMin",
          "type": "uint16"
        }
      ],
      "name": "MinRequiredSourcesUpdated",
      "type": "event",
      "signature": "0x49675ae7e9f659087ef6ee7bf7338315e5691b56baac3fa09982657842e79eb5"
    },
    {
      "anonymous": false,
      "inputs": [
        {
          "indexed": false,
          "name": "manager",
          "type": "address"
        },
        {
          "indexed": false,
          "name": "dataFeed",
          "type": "bytes32"
        },
        {
          "indexed": false,
          "name": "isFree",
          "type": "bool"
        }
      ],
      "name": "IsFreeUpdated",
      "type": "event",
      "signature": "0xe83c3bc8e2d0a141db4c6ab89d9a5ca986a4edc0bdb1a74e753265c13dc7db35"
    },
    {
      "anonymous": false,
      "inputs": [
        {
          "indexed": true,
          "name": "dataFeed",
          "type": "bytes32"
        },
        {
          "indexed": true,
          "name": "signerAddress",
          "type": "address"
        },
        {
          "indexed": false,
          "name": "value",
          "type": "int128"
        },
        {
          "indexed": false,
          "name": "epochTime",
          "type": "uint256"
        }
      ],
      "name": "SignerReported",
      "type": "event",
      "signature": "0x5dc086cad81c82edae1f55dcf15307218c21a1c31fbe3e45a1e972f96e3be907"
    },
    {
      "anonymous": false,
      "inputs": [
        {
          "indexed": true,
          "name": "reporterAddress",
          "type": "address"
        },
        {
          "indexed": true,
          "name": "dataFeed",
          "type": "bytes32"
        },
        {
          "indexed": false,
          "name": "value",
          "type": "int128"
        },
        {
          "indexed": false,
          "name": "epochTime",
          "type": "uint256"
        },
        {
          "indexed": false,
          "name": "signerAddresses",
          "type": "address[]"
        },
        {
          "indexed": false,
          "name": "signerValues",
          "type": "int128[]"
        }
      ],
      "name": "MedianValueWritten",
      "type": "event",
      "signature": "0x59fe40ef51603559cd2e841aa91192007423ced71bd36682786fdf79a10df913"
    },
    {
      "constant": false,
      "inputs": [
        {
          "name": "dataFeed",
          "type": "bytes32"
        },
        {
          "name": "dataIds",
          "type": "bytes32[]"
        },
        {
          "name": "values",
          "type": "int128[]"
        },
        {
          "name": "epochTime",
          "type": "uint256[]"
        },
        {
          "name": "signatures",
          "type": "bytes[]"
        }
      ],
      "name": "post",
      "outputs": [],
      "payable": false,
      "stateMutability": "nonpayable",
      "type": "function",
      "signature": "0xedf84299"
    },
    {
      "constant": true,
      "inputs": [
        {
          "name": "dataFeed",
          "type": "bytes32"
        }
      ],
      "name": "getValue",
      "outputs": [
        {
          "name": "",
          "type": "int128"
        }
      ],
      "payable": false,
      "stateMutability": "view",
      "type": "function",
      "signature": "0x69843940"
    },
    {
      "constant": true,
      "inputs": [
        {
          "name": "dataFeed",
          "type": "bytes32"
        }
      ],
      "name": "getValueAndTime",
      "outputs": [
        {
          "name": "value",
          "type": "int128"
        },
        {
          "name": "blockTime",
          "type": "uint256"
        },
        {
          "name": "epochTime",
          "type": "uint256"
        }
      ],
      "payable": false,
      "stateMutability": "view",
      "type": "function",
      "signature": "0xf3bf4f31"
    },
    {
      "constant": false,
      "inputs": [
        {
          "name": "name",
          "type": "bytes32"
        },
        {
          "name": "minRequiredSources",
          "type": "uint16"
        },
        {
          "name": "isFree",
          "type": "bool"
        }
      ],
      "name": "createDataFeed",
      "outputs": [],
      "payable": false,
      "stateMutability": "nonpayable",
      "type": "function",
      "signature": "0x71300e3f"
    },
    {
      "constant": false,
      "inputs": [
        {
          "name": "dataFeed",
          "type": "bytes32"
        },
        {
          "name": "m",
          "type": "address"
        }
      ],
      "name": "addManager",
      "outputs": [],
      "payable": false,
      "stateMutability": "nonpayable",
      "type": "function",
      "signature": "0xb0b052c2"
    },
    {
      "constant": false,
      "inputs": [
        {
          "name": "dataFeed",
          "type": "bytes32"
        },
        {
          "name": "m",
          "type": "address"
        }
      ],
      "name": "removeManager",
      "outputs": [],
      "payable": false,
      "stateMutability": "nonpayable",
      "type": "function",
      "signature": "0xb21aa96c"
    },
    {
      "constant": false,
      "inputs": [
        {
          "name": "dataFeed",
          "type": "bytes32"
        },
        {
          "name": "src",
          "type": "bytes32"
        },
        {
          "name": "sourceDataId",
          "type": "bytes32"
        }
      ],
      "name": "addSource",
      "outputs": [],
      "payable": false,
      "stateMutability": "nonpayable",
      "type": "function",
      "signature": "0xf9f64b87"
    },
    {
      "constant": false,
      "inputs": [
        {
          "name": "dataFeed",
          "type": "bytes32"
        },
        {
          "name": "src",
          "type": "bytes32"
        }
      ],
      "name": "removeSource",
      "outputs": [],
      "payable": false,
      "stateMutability": "nonpayable",
      "type": "function",
      "signature": "0x9da1e7fc"
    },
    {
      "constant": false,
      "inputs": [
        {
          "name": "dataFeed",
          "type": "bytes32"
        },
        {
          "name": "src",
          "type": "bytes32"
        },
        {
          "name": "signer",
          "type": "address"
        }
      ],
      "name": "addSigner",
      "outputs": [],
      "payable": false,
      "stateMutability": "nonpayable",
      "type": "function",
      "signature": "0x4a07d97e"
    },
    {
      "constant": false,
      "inputs": [
        {
          "name": "dataFeed",
          "type": "bytes32"
        },
        {
          "name": "signer",
          "type": "address"
        }
      ],
      "name": "removeSigner",
      "outputs": [],
      "payable": false,
      "stateMutability": "nonpayable",
      "type": "function",
      "signature": "0xfcb58b11"
    },
    {
      "constant": false,
      "inputs": [
        {
          "name": "dataFeed",
          "type": "bytes32"
        },
        {
          "name": "sources",
          "type": "bytes32[]"
        },
        {
          "name": "sourceDataIds",
          "type": "bytes32[]"
        },
        {
          "name": "signers",
          "type": "address[]"
        }
      ],
      "name": "batchAddSourceAndSigner",
      "outputs": [],
      "payable": false,
      "stateMutability": "nonpayable",
      "type": "function",
      "signature": "0x1ed9d1a9"
    },
    {
      "constant": false,
      "inputs": [
        {
          "name": "dataFeed",
          "type": "bytes32"
        },
        {
          "name": "newMin",
          "type": "uint16"
        }
      ],
      "name": "setMinRequiredSources",
      "outputs": [],
      "payable": false,
      "stateMutability": "nonpayable",
      "type": "function",
      "signature": "0xf9aa153a"
    },
    {
      "constant": false,
      "inputs": [
        {
          "name": "dataFeed",
          "type": "bytes32"
        },
        {
          "name": "isFree",
          "type": "bool"
        }
      ],
      "name": "setIsFree",
      "outputs": [],
      "payable": false,
      "stateMutability": "nonpayable",
      "type": "function",
      "signature": "0x8d5fbf81"
    },
    {
      "constant": false,
      "inputs": [
        {
          "name": "dataFeed",
          "type": "bytes32"
        },
        {
          "name": "r",
          "type": "address"
        }
      ],
      "name": "addReader",
      "outputs": [],
      "payable": false,
      "stateMutability": "nonpayable",
      "type": "function",
      "signature": "0x8a30ad93"
    },
    {
      "constant": false,
      "inputs": [
        {
          "name": "dataFeed",
          "type": "bytes32"
        },
        {
          "name": "r",
          "type": "address"
        }
      ],
      "name": "removeReader",
      "outputs": [],
      "payable": false,
      "stateMutability": "nonpayable",
      "type": "function",
      "signature": "0x683f303a"
    }
  ],
  "bytecode": "0x608060405234801561001057600080fd5b5061435d806100206000396000f3fe608060405234801561001057600080fd5b506004361061011d576000357c0100000000000000000000000000000000000000000000000000000000900480639da1e7fc116100b4578063f3bf4f3111610083578063f3bf4f311461029c578063f9aa153a146102ce578063f9f64b87146102ea578063fcb58b11146103065761011d565b80639da1e7fc1461022c578063b0b052c214610248578063b21aa96c14610264578063edf84299146102805761011d565b806369843940116100f057806369843940146101a857806371300e3f146101d85780638a30ad93146101f45780638d5fbf81146102105761011d565b80631ed9d1a914610122578063313456e51461013e5780634a07d97e14610170578063683f303a1461018c575b600080fd5b61013c60048036036101379190810190612e3e565b610322565b005b61015860048036036101539190810190612dd9565b6105b6565b604051610167939291906140d8565b60405180910390f35b61018a60048036036101859190810190613057565b610609565b005b6101a660048036036101a19190810190612e02565b610993565b005b6101c260048036036101bd9190810190612dd9565b610b6e565b6040516101cf9190613cb8565b60405180910390f35b6101f260048036036101ed9190810190613180565b610c6a565b005b61020e60048036036102099190810190612e02565b610ea3565b005b61022a60048036036102259190810190612fdf565b61107e565b005b6102466004803603610241919081019061301b565b61118b565b005b610262600480360361025d9190810190612e02565b6114b9565b005b61027e60048036036102799190810190612e02565b611624565b005b61029a60048036036102959190810190612ef7565b61182e565b005b6102b660048036036102b19190810190612dd9565b611dc6565b6040516102c593929190613d26565b60405180910390f35b6102e860048036036102e39190810190613144565b611edb565b005b61030460048036036102ff91908101906130a6565b61208e565b005b610320600480360361031b9190810190612e02565b61241e565b005b8660008082815260200190815260200160002060070160003373ffffffffffffffffffffffffffffffffffffffff1673ffffffffffffffffffffffffffffffffffffffff16815260200190815260200160002060009054906101000a900460ff166103c2576040517f08c379a00000000000000000000000000000000000000000000000000000000081526004016103b99061409d565b60405180910390fd5b84849050878790501480156103dc57508282905087879050145b61041b576040517f08c379a000000000000000000000000000000000000000000000000000000000815260040161041290613e5d565b60405180910390fd5b6000878790501415610462576040517f08c379a000000000000000000000000000000000000000000000000000000000815260040161045990613f5d565b60405180910390fd5b60008060008a815260200190815260200160002060050160029054906101000a900461ffff1661ffff1614156104cd576040517f08c379a00000000000000000000000000000000000000000000000000000000081526004016104c490613d5d565b60405180910390fd5b60008090505b878790508110156105ab5760008060008b815260200190815260200160002060030160008a8a8581811061050357fe5b90506020020135815260200190815260200160002060009054906101000a900461ffff1661ffff161415610561576105608989898481811061054157fe5b9050602002013588888581811061055457fe5b9050602002013561208e565b5b61059e8989898481811061057157fe5b9050602002013586868581811061058457fe5b90506020020160206105999190810190612db0565b610609565b80806001019150506104d3565b505050505050505050565b60006020528060005260406000206000915090508060050160009054906101000a900461ffff16908060050160029054906101000a900461ffff16908060080160009054906101000a900460ff16905083565b8260008082815260200190815260200160002060070160003373ffffffffffffffffffffffffffffffffffffffff1673ffffffffffffffffffffffffffffffffffffffff16815260200190815260200160002060009054906101000a900460ff166106a9576040517f08c379a00000000000000000000000000000000000000000000000000000000081526004016106a09061409d565b60405180910390fd5b600073ffffffffffffffffffffffffffffffffffffffff168273ffffffffffffffffffffffffffffffffffffffff161415610719576040517f08c379a00000000000000000000000000000000000000000000000000000000081526004016107109061407d565b60405180910390fd5b60008060008681526020019081526020016000209050600081600301600086815260200190815260200160002060009054906101000a900461ffff1661ffff16141561079a576040517f08c379a000000000000000000000000000000000000000000000000000000000815260040161079190613d9d565b60405180910390fd5b60006001028160020160008573ffffffffffffffffffffffffffffffffffffffff1673ffffffffffffffffffffffffffffffffffffffff1681526020019081526020016000205414610821576040517f08c379a000000000000000000000000000000000000000000000000000000000815260040161081890613fbd565b60405180910390fd5b601481600101600086815260200190815260200160002080549050111561087d576040517f08c379a000000000000000000000000000000000000000000000000000000000815260040161087490613e1d565b60405180910390fd5b838160020160008573ffffffffffffffffffffffffffffffffffffffff1673ffffffffffffffffffffffffffffffffffffffff168152602001908152602001600020819055508060010160008581526020019081526020016000208390806001815401808255809150509060018203906000526020600020016000909192909190916101000a81548173ffffffffffffffffffffffffffffffffffffffff021916908373ffffffffffffffffffffffffffffffffffffffff1602179055505083853373ffffffffffffffffffffffffffffffffffffffff167f6b1709948f0f41fbabae4f0c313418d060186480e2a2bcfb87770facec752415866040516109849190613c06565b60405180910390a45050505050565b8160008082815260200190815260200160002060070160003373ffffffffffffffffffffffffffffffffffffffff1673ffffffffffffffffffffffffffffffffffffffff16815260200190815260200160002060009054906101000a900460ff16610a33576040517f08c379a0000000000000000000000000000000000000000000000000000000008152600401610a2a9061409d565b60405180910390fd5b600073ffffffffffffffffffffffffffffffffffffffff168273ffffffffffffffffffffffffffffffffffffffff161415610aa3576040517f08c379a0000000000000000000000000000000000000000000000000000000008152600401610a9a90613f1d565b60405180910390fd5b600080600085815260200190815260200160002060060160008473ffffffffffffffffffffffffffffffffffffffff1673ffffffffffffffffffffffffffffffffffffffff16815260200190815260200160002060006101000a81548160ff0219169083151502179055508173ffffffffffffffffffffffffffffffffffffffff16833373ffffffffffffffffffffffffffffffffffffffff167fda84d50676cadb9cef699fb523a85e2d1179685a1d6ae1503763f1d9ae72609060405160405180910390a4505050565b600081600080600083815260200190815260200160002090508060080160009054906101000a900460ff16610c3d5760008083815260200190815260200160002060060160003373ffffffffffffffffffffffffffffffffffffffff1673ffffffffffffffffffffffffffffffffffffffff16815260200190815260200160002060009054906101000a900460ff16610c3c576040517f08c379a0000000000000000000000000000000000000000000000000000000008152600401610c3390613e7d565b60405180910390fd5b5b6001600085815260200190815260200160002060000160009054906101000a9004600f0b92505050919050565b600080600085815260200190815260200160002060050160029054906101000a900461ffff1661ffff1614610cd4576040517f08c379a0000000000000000000000000000000000000000000000000000000008152600401610ccb90613e9d565b60405180910390fd5b6102008261ffff1610610d1c576040517f08c379a0000000000000000000000000000000000000000000000000000000008152600401610d1390613ffd565b60405180910390fd5b600160008085815260200190815260200160002060070160003373ffffffffffffffffffffffffffffffffffffffff1673ffffffffffffffffffffffffffffffffffffffff16815260200190815260200160002060006101000a81548160ff021916908315150217905550600160008085815260200190815260200160002060060160003373ffffffffffffffffffffffffffffffffffffffff1673ffffffffffffffffffffffffffffffffffffffff16815260200190815260200160002060006101000a81548160ff0219169083151502179055508060008085815260200190815260200160002060080160006101000a81548160ff0219169083151502179055508160008085815260200190815260200160002060050160026101000a81548161ffff021916908361ffff160217905550823373ffffffffffffffffffffffffffffffffffffffff167f8adfebd07d438662b75a84aa35658743170bd6574ff8701e58aa68cf3312bab784604051610e9691906140bd565b60405180910390a3505050565b8160008082815260200190815260200160002060070160003373ffffffffffffffffffffffffffffffffffffffff1673ffffffffffffffffffffffffffffffffffffffff16815260200190815260200160002060009054906101000a900460ff16610f43576040517f08c379a0000000000000000000000000000000000000000000000000000000008152600401610f3a9061409d565b60405180910390fd5b600073ffffffffffffffffffffffffffffffffffffffff168273ffffffffffffffffffffffffffffffffffffffff161415610fb3576040517f08c379a0000000000000000000000000000000000000000000000000000000008152600401610faa9061401d565b60405180910390fd5b600160008085815260200190815260200160002060060160008473ffffffffffffffffffffffffffffffffffffffff1673ffffffffffffffffffffffffffffffffffffffff16815260200190815260200160002060006101000a81548160ff0219169083151502179055508173ffffffffffffffffffffffffffffffffffffffff16833373ffffffffffffffffffffffffffffffffffffffff167ffb6475ced741683cd12211262e0dbd5fabc36be42d317f87aa9e83df7242a8fc60405160405180910390a4505050565b8160008082815260200190815260200160002060070160003373ffffffffffffffffffffffffffffffffffffffff1673ffffffffffffffffffffffffffffffffffffffff16815260200190815260200160002060009054906101000a900460ff1661111e576040517f08c379a00000000000000000000000000000000000000000000000000000000081526004016111159061409d565b60405180910390fd5b8160008085815260200190815260200160002060080160006101000a81548160ff0219169083151502179055507fe83c3bc8e2d0a141db4c6ab89d9a5ca986a4edc0bdb1a74e753265c13dc7db3533848460405161117e93929190613c21565b60405180910390a1505050565b8160008082815260200190815260200160002060070160003373ffffffffffffffffffffffffffffffffffffffff1673ffffffffffffffffffffffffffffffffffffffff16815260200190815260200160002060009054906101000a900460ff1661122b576040517f08c379a00000000000000000000000000000000000000000000000000000000081526004016112229061409d565b60405180910390fd5b60008060008581526020019081526020016000209050600081600301600085815260200190815260200160002060009054906101000a900461ffff16905060008260040160008460050160009054906101000a900461ffff1661ffff1661ffff168152602001908152602001600020549050600083600301600087815260200190815260200160002060006101000a81548161ffff021916908361ffff16021790555060006001028360040160008560050160009054906101000a900461ffff1661ffff1661ffff168152602001908152602001600020819055508183600301600083815260200190815260200160002060006101000a81548161ffff021916908361ffff160217905550808360040160008461ffff1661ffff168152602001908152602001600020819055506000836001016000878152602001908152602001600020905060008090505b818054905081101561141157600082828154811061139157fe5b9060005260206000200160009054906101000a900473ffffffffffffffffffffffffffffffffffffffff1690508560020160008273ffffffffffffffffffffffffffffffffffffffff1673ffffffffffffffffffffffffffffffffffffffff16815260200190815260200160002060009055508080600101915050611377565b5083600101600087815260200190815260200160002060006114339190612b39565b83600501600081819054906101000a900461ffff16809291906001900391906101000a81548161ffff021916908361ffff1602179055505085873373ffffffffffffffffffffffffffffffffffffffff167fc1a9fc62b8033041c11ff0c436c83008f1e4ec6fec7db3d036a78571dfe64d1260405160405180910390a450505050505050565b8160008082815260200190815260200160002060070160003373ffffffffffffffffffffffffffffffffffffffff1673ffffffffffffffffffffffffffffffffffffffff16815260200190815260200160002060009054906101000a900460ff16611559576040517f08c379a00000000000000000000000000000000000000000000000000000000081526004016115509061409d565b60405180910390fd5b600160008085815260200190815260200160002060070160008473ffffffffffffffffffffffffffffffffffffffff1673ffffffffffffffffffffffffffffffffffffffff16815260200190815260200160002060006101000a81548160ff0219169083151502179055508173ffffffffffffffffffffffffffffffffffffffff16833373ffffffffffffffffffffffffffffffffffffffff167f2596a56cf263a4dd9bc8a72774f71037c1aaee5e27b4ac660f84fec19d7de5f760405160405180910390a4505050565b8160008082815260200190815260200160002060070160003373ffffffffffffffffffffffffffffffffffffffff1673ffffffffffffffffffffffffffffffffffffffff16815260200190815260200160002060009054906101000a900460ff166116c4576040517f08c379a00000000000000000000000000000000000000000000000000000000081526004016116bb9061409d565b60405180910390fd5b60008084815260200190815260200160002060070160008373ffffffffffffffffffffffffffffffffffffffff1673ffffffffffffffffffffffffffffffffffffffff16815260200190815260200160002060009054906101000a900460ff16611763576040517f08c379a000000000000000000000000000000000000000000000000000000000815260040161175a90613ddd565b60405180910390fd5b600080600085815260200190815260200160002060070160008473ffffffffffffffffffffffffffffffffffffffff1673ffffffffffffffffffffffffffffffffffffffff16815260200190815260200160002060006101000a81548160ff0219169083151502179055508173ffffffffffffffffffffffffffffffffffffffff16833373ffffffffffffffffffffffffffffffffffffffff167f046097ebaced0801e580cbd6f896b21319151cc80b4de4ff0445b7640b0d0dc660405160405180910390a4505050565b6118bb89878780806020026020016040519081016040528093929190818152602001838360200280828437600081840152601f19601f82011690508083019250505050505050868680806020026020016040519081016040528093929190818152602001838360200280828437600081840152601f19601f82011690508083019250505050505050612706565b60008060008b815260200190815260200160002090508060050160029054906101000a900461ffff1661ffff1687879050101561192d576040517f08c379a000000000000000000000000000000000000000000000000000000000815260040161192490613fdd565b60405180910390fd5b6000809050600080905060608989905060405190808252806020026020018201604052801561196b5781602001602082028038833980820191505090505b50905060008090505b8a8a9050811015611d28576000611a738e8e8481811061199057fe5b905060200201358d8d858181106119a357fe5b90506020020160206119b891908101906131cf565b8c8c868181106119c457fe5b905060200201358b8b878181106119d757fe5b90506020028101803560016020038336030381126119f457600080fd5b8083019250508135905060208201915067ffffffffffffffff811115611a1957600080fd5b600181023603821315611a2b57600080fd5b8080601f016020809104026020016040519081016040528093929190818152602001838380828437600081840152601f19601f8201169050808301925050505050505061287e565b905080838381518110611a8257fe5b602002602001019073ffffffffffffffffffffffffffffffffffffffff16908173ffffffffffffffffffffffffffffffffffffffff168152505060008660020160008373ffffffffffffffffffffffffffffffffffffffff1673ffffffffffffffffffffffffffffffffffffffff1681526020019081526020016000205490506000600102811415611b49576040517f08c379a0000000000000000000000000000000000000000000000000000000008152600401611b4090613dfd565b60405180910390fd5b8e8e84818110611b5557fe5b905060200201358760000160008381526020019081526020016000205414611bb2576040517f08c379a0000000000000000000000000000000000000000000000000000000008152600401611ba99061405d565b60405180910390fd5b600060018860030160008a60020160008773ffffffffffffffffffffffffffffffffffffffff1673ffffffffffffffffffffffffffffffffffffffff16815260200190815260200160002054815260200190815260200160002060009054906101000a900461ffff1603905060ff8161ffff1611611c9b576000819050600060028260ff1689908060020a820491505081611c4957fe5b0614611c8a576040517f08c379a0000000000000000000000000000000000000000000000000000000008152600401611c8190613edd565b60405180910390fd5b8060ff1660020a8701965050611d18565b600060088261ffff16908060020a82049150509050600060028260ff168a908060020a820491505081611cca57fe5b0614611d0b576040517f08c379a0000000000000000000000000000000000000000000000000000000008152600401611d0290613edd565b60405180910390fd5b8060ff1660020a88019750505b5050508080600101915050611974565b50611db78d828c8c80806020026020016040519081016040528093929190818152602001838360200280828437600081840152601f19601f820116905080830192505050505050508b8b80806020026020016040519081016040528093929190818152602001838360200280828437600081840152601f19601f8201169050808301925050505050505061294a565b50505050505050505050505050565b600080600083600080600083815260200190815260200160002090508060080160009054906101000a900460ff16611e985760008083815260200190815260200160002060060160003373ffffffffffffffffffffffffffffffffffffffff1673ffffffffffffffffffffffffffffffffffffffff16815260200190815260200160002060009054906101000a900460ff16611e97576040517f08c379a0000000000000000000000000000000000000000000000000000000008152600401611e8e90613e7d565b60405180910390fd5b5b60006001600088815260200190815260200160002090508060000160009054906101000a9004600f0b816001015482600201549550955095505050509193909250565b8160008082815260200190815260200160002060070160003373ffffffffffffffffffffffffffffffffffffffff1673ffffffffffffffffffffffffffffffffffffffff16815260200190815260200160002060009054906101000a900460ff16611f7b576040517f08c379a0000000000000000000000000000000000000000000000000000000008152600401611f729061409d565b60405180910390fd5b60008261ffff1611611fc2576040517f08c379a0000000000000000000000000000000000000000000000000000000008152600401611fb990613e3d565b60405180910390fd5b6102008261ffff161061200a576040517f08c379a000000000000000000000000000000000000000000000000000000000815260040161200190613f3d565b60405180910390fd5b8160008085815260200190815260200160002060050160026101000a81548161ffff021916908361ffff160217905550823373ffffffffffffffffffffffffffffffffffffffff167f49675ae7e9f659087ef6ee7bf7338315e5691b56baac3fa09982657842e79eb58460405161208191906140bd565b60405180910390a3505050565b8260008082815260200190815260200160002060070160003373ffffffffffffffffffffffffffffffffffffffff1673ffffffffffffffffffffffffffffffffffffffff16815260200190815260200160002060009054906101000a900460ff1661212e576040517f08c379a00000000000000000000000000000000000000000000000000000000081526004016121259061409d565b60405180910390fd5b6000600102831415612175576040517f08c379a000000000000000000000000000000000000000000000000000000000815260040161216c90613efd565b60405180910390fd5b60006001028214156121bc576040517f08c379a00000000000000000000000000000000000000000000000000000000081526004016121b39061403d565b60405180910390fd5b6000806000868152602001908152602001600020905060008160050160029054906101000a900461ffff1661ffff161161222b576040517f08c379a000000000000000000000000000000000000000000000000000000000815260040161222290613d5d565b60405180910390fd5b600081600301600086815260200190815260200160002060009054906101000a900461ffff1661ffff1614612295576040517f08c379a000000000000000000000000000000000000000000000000000000000815260040161228c90613d7d565b60405180910390fd5b6102008160050160009054906101000a900461ffff1661ffff16106122ef576040517f08c379a00000000000000000000000000000000000000000000000000000000081526004016122e690613ebd565b60405180910390fd5b80600501600081819054906101000a900461ffff168092919060010191906101000a81548161ffff021916908361ffff1602179055505060008086815260200190815260200160002060050160009054906101000a900461ffff1681600301600086815260200190815260200160002060006101000a81548161ffff021916908361ffff160217905550838160040160008360050160009054906101000a900461ffff1661ffff1661ffff16815260200190815260200160002081905550828160000160008681526020019081526020016000208190555083853373ffffffffffffffffffffffffffffffffffffffff167fd7200eacb82a167d6f9d2e66741919ca80e097199bfdad7064c39e136f923e3b8660405161240f9190613c58565b60405180910390a45050505050565b8160008082815260200190815260200160002060070160003373ffffffffffffffffffffffffffffffffffffffff1673ffffffffffffffffffffffffffffffffffffffff16815260200190815260200160002060009054906101000a900460ff166124be576040517f08c379a00000000000000000000000000000000000000000000000000000000081526004016124b59061409d565b60405180910390fd5b6000806000858152602001908152602001600020905060008160020160008573ffffffffffffffffffffffffffffffffffffffff1673ffffffffffffffffffffffffffffffffffffffff1681526020019081526020016000205490506000826001016000838152602001908152602001600020905060008090505b8180549050811015612668578573ffffffffffffffffffffffffffffffffffffffff1682828154811061256857fe5b9060005260206000200160009054906101000a900473ffffffffffffffffffffffffffffffffffffffff1673ffffffffffffffffffffffffffffffffffffffff16141561265b57816001838054905003815481106125c257fe5b9060005260206000200160009054906101000a900473ffffffffffffffffffffffffffffffffffffffff168282815481106125f957fe5b9060005260206000200160006101000a81548173ffffffffffffffffffffffffffffffffffffffff021916908373ffffffffffffffffffffffffffffffffffffffff160217905550818054809190600190036126559190612b5a565b50612668565b8080600101915050612539565b508260020160008673ffffffffffffffffffffffffffffffffffffffff1673ffffffffffffffffffffffffffffffffffffffff1681526020019081526020016000206000905581863373ffffffffffffffffffffffffffffffffffffffff167f83b30ec2f4a7e34db581007fa2892f7da39ede2fb1903d8196ba04b1f169138d886040516126f69190613c06565b60405180910390a4505050505050565b60008260008151811061271557fe5b6020026020010151905060006001600086815260200190815260200160002060020154905060008090505b8451811015612876578184828151811061275657fe5b60200260200101511161279e576040517f08c379a000000000000000000000000000000000000000000000000000000000815260040161279590613f9d565b60405180910390fd5b61012c42018482815181106127af57fe5b6020026020010151106127f7576040517f08c379a00000000000000000000000000000000000000000000000000000000081526004016127ee90613dbd565b60405180910390fd5b82600f0b85828151811061280757fe5b6020026020010151600f0b1215612853576040517f08c379a000000000000000000000000000000000000000000000000000000000815260040161284a90613f7d565b60405180910390fd5b84818151811061285f57fe5b602002602001015192508080600101915050612740565b505050505050565b6000806000808480602001905161289891908101906130f5565b925092509250600187878a6040516020016128b593929190613ba3565b604051602081830303815290604052805190602001206040516020016128db9190613be0565b60405160208183030381529060405280519060200120828585604051600081526020016040526040516129119493929190613c73565b6020604051602081039080840390855afa158015612933573d6000803e3d6000fd5b505050602060405103519350505050949350505050565b600080600060018551908060020a820491505090506000600286518161296c57fe5b0614156129ef5760006002438161297f57fe5b0614156129bd5784600182038151811061299557fe5b602002602001015192508360018203815181106129ae57fe5b602002602001015191506129ea565b8481815181106129c957fe5b602002602001015192508381815181106129df57fe5b602002602001015191505b612a1c565b8481815181106129fb57fe5b60200260200101519250838181518110612a1157fe5b602002602001015191505b826001600089815260200190815260200160002060000160006101000a8154816fffffffffffffffffffffffffffffffff0219169083600f0b6fffffffffffffffffffffffffffffffff160217905550816001600089815260200190815260200160002060020181905550426001600089815260200190815260200160002060010181905550863373ffffffffffffffffffffffffffffffffffffffff167f59fe40ef51603559cd2e841aa91192007423ced71bd36682786fdf79a10df913600160008b815260200190815260200160002060000160009054906101000a9004600f0b600160008c8152602001908152602001600020600201548a8a604051612b289493929190613cd3565b60405180910390a350505050505050565b5080546000825590600052602060002090810190612b579190612b86565b50565b815481835581811115612b8157818360005260206000209182019101612b809190612b86565b5b505050565b612ba891905b80821115612ba4576000816000905550600101612b8c565b5090565b90565b600081359050612bba81614290565b92915050565b60008083601f840112612bd257600080fd5b8235905067ffffffffffffffff811115612beb57600080fd5b602083019150836020820283011115612c0357600080fd5b9250929050565b60008083601f840112612c1c57600080fd5b8235905067ffffffffffffffff811115612c3557600080fd5b602083019150836020820283011115612c4d57600080fd5b9250929050565b60008083601f840112612c6657600080fd5b8235905067ffffffffffffffff811115612c7f57600080fd5b602083019150836020820283011115612c9757600080fd5b9250929050565b60008083601f840112612cb057600080fd5b8235905067ffffffffffffffff811115612cc957600080fd5b602083019150836020820283011115612ce157600080fd5b9250929050565b60008083601f840112612cfa57600080fd5b8235905067ffffffffffffffff811115612d1357600080fd5b602083019150836020820283011115612d2b57600080fd5b9250929050565b600081359050612d41816142a7565b92915050565b600081359050612d56816142be565b92915050565b600081519050612d6b816142be565b92915050565b600081359050612d80816142d5565b92915050565b600081359050612d95816142ec565b92915050565b600081519050612daa81614303565b92915050565b600060208284031215612dc257600080fd5b6000612dd084828501612bab565b91505092915050565b600060208284031215612deb57600080fd5b6000612df984828501612d47565b91505092915050565b60008060408385031215612e1557600080fd5b6000612e2385828601612d47565b9250506020612e3485828601612bab565b9150509250929050565b60008060008060008060006080888a031215612e5957600080fd5b6000612e678a828b01612d47565b975050602088013567ffffffffffffffff811115612e8457600080fd5b612e908a828b01612c0a565b9650965050604088013567ffffffffffffffff811115612eaf57600080fd5b612ebb8a828b01612c0a565b9450945050606088013567ffffffffffffffff811115612eda57600080fd5b612ee68a828b01612bc0565b925092505092959891949750929550565b600080600080600080600080600060a08a8c031215612f1557600080fd5b6000612f238c828d01612d47565b99505060208a013567ffffffffffffffff811115612f4057600080fd5b612f4c8c828d01612c0a565b985098505060408a013567ffffffffffffffff811115612f6b57600080fd5b612f778c828d01612c9e565b965096505060608a013567ffffffffffffffff811115612f9657600080fd5b612fa28c828d01612ce8565b945094505060808a013567ffffffffffffffff811115612fc157600080fd5b612fcd8c828d01612c54565b92509250509295985092959850929598565b60008060408385031215612ff257600080fd5b600061300085828601612d47565b925050602061301185828601612d32565b9150509250929050565b6000806040838503121561302e57600080fd5b600061303c85828601612d47565b925050602061304d85828601612d47565b9150509250929050565b60008060006060848603121561306c57600080fd5b600061307a86828701612d47565b935050602061308b86828701612d47565b925050604061309c86828701612bab565b9150509250925092565b6000806000606084860312156130bb57600080fd5b60006130c986828701612d47565b93505060206130da86828701612d47565b92505060406130eb86828701612d47565b9150509250925092565b60008060006060848603121561310a57600080fd5b600061311886828701612d5c565b935050602061312986828701612d5c565b925050604061313a86828701612d9b565b9150509250925092565b6000806040838503121561315757600080fd5b600061316585828601612d47565b925050602061317685828601612d86565b9150509250929050565b60008060006060848603121561319557600080fd5b60006131a386828701612d47565b93505060206131b486828701612d86565b92505060406131c586828701612d32565b9150509250925092565b6000602082840312156131e157600080fd5b60006131ef84828501612d71565b91505092915050565b60006132048383613237565b60208301905092915050565b600061321c8383613346565b60208301905092915050565b61323181614217565b82525050565b6132408161419d565b82525050565b61324f8161419d565b82525050565b60006132608261412f565b61326a818561415f565b93506132758361410f565b8060005b838110156132a657815161328d88826131f8565b975061329883614145565b925050600181019050613279565b5085935050505092915050565b60006132be8261413a565b6132c88185614170565b93506132d38361411f565b8060005b838110156133045781516132eb8882613210565b97506132f683614152565b9250506001810190506132d7565b5085935050505092915050565b61331a816141af565b82525050565b613329816141bb565b82525050565b61334061333b826141bb565b61424d565b82525050565b61334f816141c5565b82525050565b61335e816141c5565b82525050565b613375613370826141c5565b614257565b82525050565b6000613388601783614181565b91507f446174616665656420646f6573206e6f742065786973740000000000000000006000830152602082019050919050565b60006133c8601583614181565b91507f536f7572636520616c72656164792065786973747300000000000000000000006000830152602082019050919050565b6000613408601b83614181565b91507f496e76616c696420736f7572636520666f7220646174614665656400000000006000830152602082019050919050565b6000613448603d83614181565b91507f56616c75652074696d657374616d702063616e6e6f74206265206d6f7265207460008301527f68616e2035206d696e7574657320616674657220626c6f636b74696d650000006020830152604082019050919050565b60006134ae601c83614192565b91507f19457468657265756d205369676e6564204d6573736167653a0a3332000000006000830152601c82019050919050565b60006134ee602283614181565b91507f4461746166656564206f72204d616e6167657220646f6573206e6f742065786960008301527f73740000000000000000000000000000000000000000000000000000000000006020830152604082019050919050565b6000613554601b83614181565b91507f5369676e617475726520627920696e76616c696420736f7572636500000000006000830152602082019050919050565b6000613594602783614181565b91507f536f757263652063616e6e6f742068617665206d6f7265207468616e2032302060008301527f5369676e657273000000000000000000000000000000000000000000000000006020830152604082019050919050565b60006135fa601483614181565b91507f6d696e206d75737420626520706f7369746976650000000000000000000000006000830152602082019050919050565b600061363a602383614181565b91507f496e707574206c69737473206d757374206265206f6620657175616c206c656e60008301527f67746800000000000000000000000000000000000000000000000000000000006020830152604082019050919050565b60006136a0601383614181565b91507f756e617574686f72697a656420726561646572000000000000000000000000006000830152602082019050919050565b60006136e0601783614181565b91507f446174614665656420616c7265616479206578697374730000000000000000006000830152602082019050919050565b6000613720601a83614181565b91507f52656163686564206d6178206f662035313120736f75726365730000000000006000830152602082019050919050565b6000613760601583614181565b91507f536f7572636520616c7265616479207369676e656400000000000000000000006000830152602082019050919050565b60006137a0601283614181565b91507f536f757263652063616e6e6f74206265203000000000000000000000000000006000830152602082019050919050565b60006137e0601e83614181565b91507f52656164657220616464726573732073686f756c64206e6f74206265203000006000830152602082019050919050565b6000613820601983614181565b91507f6d696e206d757374206265206c657373207468616e20353132000000000000006000830152602082019050919050565b6000613860602b83614181565b91507f536f7572636520616e64205369676e6572206c697374732073686f756c64206e60008301527f6f7420626520656d7074790000000000000000000000000000000000000000006020830152604082019050919050565b60006138c6601383614181565b91507f4c697374206d75737420626520736f72746564000000000000000000000000006000830152602082019050919050565b6000613906601d83614181565b91507f56616c7565206d757374206265206e65776572207468616e206c6173740000006000830152602082019050919050565b6000613946602383614181565b91507f5369676e657220616c726561647920616464656420746f207468697320536f7560008301527f72636500000000000000000000000000000000000000000000000000000000006020830152604082019050919050565b60006139ac601283614181565b91507f4e6f7420656e6f75676820736f757263657300000000000000000000000000006000830152602082019050919050565b60006139ec601b83614181565b91507f4d757374207265717569726520203c2035313220736f757263657300000000006000830152602082019050919050565b6000613a2c600d83614181565b91507f4e6f20636f6e74726163742030000000000000000000000000000000000000006000830152602082019050919050565b6000613a6c601883614181565b91507f736f757263654461746149642063616e6e6f74206265203000000000000000006000830152602082019050919050565b6000613aac601a83614181565b91507f496e76616c6964206461746120494420666f7220736f757263650000000000006000830152602082019050919050565b6000613aec600b83614181565b91507f4e6f207369676e657220300000000000000000000000000000000000000000006000830152602082019050919050565b6000613b2c600d83614181565b91507f6e6f742061206d616e61676572000000000000000000000000000000000000006000830152602082019050919050565b613b68816141d2565b82525050565b613b7781614200565b82525050565b613b8e613b8982614200565b614269565b82525050565b613b9d8161420a565b82525050565b6000613baf8286613364565b601082019150613bbf8285613b7d565b602082019150613bcf828461332f565b602082019150819050949350505050565b6000613beb826134a1565b9150613bf7828461332f565b60208201915081905092915050565b6000602082019050613c1b6000830184613246565b92915050565b6000606082019050613c366000830186613228565b613c436020830185613320565b613c506040830184613311565b949350505050565b6000602082019050613c6d6000830184613320565b92915050565b6000608082019050613c886000830187613320565b613c956020830186613b94565b613ca26040830185613320565b613caf6060830184613320565b95945050505050565b6000602082019050613ccd6000830184613355565b92915050565b6000608082019050613ce86000830187613355565b613cf56020830186613b6e565b8181036040830152613d078185613255565b90508181036060830152613d1b81846132b3565b905095945050505050565b6000606082019050613d3b6000830186613355565b613d486020830185613b6e565b613d556040830184613b6e565b949350505050565b60006020820190508181036000830152613d768161337b565b9050919050565b60006020820190508181036000830152613d96816133bb565b9050919050565b60006020820190508181036000830152613db6816133fb565b9050919050565b60006020820190508181036000830152613dd68161343b565b9050919050565b60006020820190508181036000830152613df6816134e1565b9050919050565b60006020820190508181036000830152613e1681613547565b9050919050565b60006020820190508181036000830152613e3681613587565b9050919050565b60006020820190508181036000830152613e56816135ed565b9050919050565b60006020820190508181036000830152613e768161362d565b9050919050565b60006020820190508181036000830152613e9681613693565b9050919050565b60006020820190508181036000830152613eb6816136d3565b9050919050565b60006020820190508181036000830152613ed681613713565b9050919050565b60006020820190508181036000830152613ef681613753565b9050919050565b60006020820190508181036000830152613f1681613793565b9050919050565b60006020820190508181036000830152613f36816137d3565b9050919050565b60006020820190508181036000830152613f5681613813565b9050919050565b60006020820190508181036000830152613f7681613853565b9050919050565b60006020820190508181036000830152613f96816138b9565b9050919050565b60006020820190508181036000830152613fb6816138f9565b9050919050565b60006020820190508181036000830152613fd681613939565b9050919050565b60006020820190508181036000830152613ff68161399f565b9050919050565b60006020820190508181036000830152614016816139df565b9050919050565b6000602082019050818103600083015261403681613a1f565b9050919050565b6000602082019050818103600083015261405681613a5f565b9050919050565b6000602082019050818103600083015261407681613a9f565b9050919050565b6000602082019050818103600083015261409681613adf565b9050919050565b600060208201905081810360008301526140b681613b1f565b9050919050565b60006020820190506140d26000830184613b5f565b92915050565b60006060820190506140ed6000830186613b5f565b6140fa6020830185613b5f565b6141076040830184613311565b949350505050565b6000819050602082019050919050565b6000819050602082019050919050565b600081519050919050565b600081519050919050565b6000602082019050919050565b6000602082019050919050565b600082825260208201905092915050565b600082825260208201905092915050565b600082825260208201905092915050565b600081905092915050565b60006141a8826141e0565b9050919050565b60008115159050919050565b6000819050919050565b600081600f0b9050919050565b600061ffff82169050919050565b600073ffffffffffffffffffffffffffffffffffffffff82169050919050565b6000819050919050565b600060ff82169050919050565b600061422282614229565b9050919050565b60006142348261423b565b9050919050565b6000614246826141e0565b9050919050565b6000819050919050565b600061426282614273565b9050919050565b6000819050919050565b600070010000000000000000000000000000000082029050919050565b6142998161419d565b81146142a457600080fd5b50565b6142b0816141af565b81146142bb57600080fd5b50565b6142c7816141bb565b81146142d257600080fd5b50565b6142de816141c5565b81146142e957600080fd5b50565b6142f5816141d2565b811461430057600080fd5b50565b61430c8161420a565b811461431757600080fd5b5056fea365627a7a72305820bfff78794d01bc123acfc658814ecf0b8ddf11dd580108edec45dd5ec655a0376c6578706572696d656e74616cf564736f6c634300050a0040",
  "source": "pragma solidity ^0.5.0;\npragma experimental ABIEncoderV2; // Needed for using bytes[] parameter type.\n\ncontract DirtOracle {\n\n  // Anyone can create a new DataFeed with `createDataFeed()`.\n  // Only the managers of a DataFeed can edit parameters (whitelists and config) of the dataFeed.\n  // Anyone can post updates to the dataFeed data with `post()`, but the data is only accepted if it meets the dataFeed's configured criteria.\n  struct DataFeedConfig {\n    mapping (bytes32 => bytes32) sourceToDataId;\n\n    // Whitelists, all editable only by managers\n    mapping (bytes32 => address[]) sourceToSigners;\n    mapping (address => bytes32) signerToSource;\n\n    mapping (bytes32 => uint16) sourceToId;\n    mapping (uint16 => bytes32) idToSource;\n    // Source IDs are assigned in incrementing order in a packed manner in the range [1, 511].\n    // If a source is deleted, the last source is reassigned its ID and the last source ID is freed up.\n    uint16 lastSourceId;\n\n    uint16 minRequiredSources;\n\n    mapping (address => bool) readers;\n    mapping (address => bool) managers;\n\n    bool isFree; // If True, any address may read from this Datafeed at no cost.\n  }\n\n  struct DataFeedData {\n    // Last accepted data\n    int128 value;\n    uint256 blockTime;\n    uint256 epochTime;\n  }\n\n  /*************** State attributes ***************/\n\n  // A map from dataFeed name to DataFeed.\n  mapping (bytes32 => DataFeedConfig) public dataFeeds_config;\n  mapping (bytes32 => DataFeedData) internal dataFeeds_data;\n\n  /*************** Emitted Events *****************/\n\n  // when a data feed is created\n  event DataFeedCreation(\n    address indexed manager,\n    bytes32 indexed dataFeed,\n    uint16 minRequiredSources\n  );\n\n  // when an existing manager adds a new manager\n  event ManagerAddition(\n    address indexed manager,\n    bytes32 indexed dataFeed,\n    address indexed newManager\n  );\n\n  // when an existing manager removes a existing manager\n  event ManagerRemoval(\n    address indexed manager,\n    bytes32 indexed dataFeed,\n    address indexed firedManager\n  );\n\n  // when a source is added\n  event SourceAddition(\n    address indexed manager,\n    bytes32 indexed dataFeed,\n    bytes32 indexed source,\n    bytes32 sourceDataId\n  );\n\n  // when a source is removed\n  event SourceRemoval(\n    address indexed manager,\n    bytes32 indexed dataFeed,\n    bytes32 indexed source\n  );\n\n  // when a signer is added\n  event SignerAddition(\n    address indexed manager,\n    bytes32 indexed dataFeed,\n    bytes32 indexed source,\n    address signer\n  );\n\n  // when a signer is removed\n  event SignerRemoval(\n    address indexed manager,\n    bytes32 indexed dataFeed,\n    bytes32 indexed source,\n    address signer\n  );\n\n  // when a reader is added\n  event ReaderAddition(\n    address indexed manager,\n    bytes32 indexed dataFeed,\n    address indexed newReader\n  );\n\n  // when a reader is removed\n  event ReaderRemoval(\n    address indexed manager,\n    bytes32 indexed dataFeed,\n    address indexed firedReader\n  );\n\n  // when min required sources is updated\n  event MinRequiredSourcesUpdated(\n    address indexed manager,\n    bytes32 indexed dataFeed,\n    uint16 newMin\n  );\n\n  event IsFreeUpdated(\n    address manager,\n    bytes32 dataFeed,\n    bool isFree\n  );\n\n  // when a valid source reports a value\n  event SignerReported(\n    bytes32 indexed dataFeed,\n    address indexed signerAddress,\n    int128 value,\n    uint256 epochTime\n  );\n\n  // when contract writes a median value\n  event MedianValueWritten(\n    address indexed reporterAddress,\n    bytes32 indexed dataFeed,\n    int128 value,\n    uint256 epochTime,\n    address[] signerAddresses,\n    int128[] signerValues\n  );\n\n  /*********************** Modifiers *******************/\n\n  modifier managersOnly(bytes32 dataFeed) {\n    require(dataFeeds_config[dataFeed].managers[msg.sender], 'not a manager');\n    _;\n  }\n\n  modifier readersOnly(bytes32 dataFeed) {\n    DataFeedConfig storage m = dataFeeds_config[dataFeed];\n    if (!m.isFree) {\n      require(\n        dataFeeds_config[dataFeed].readers[msg.sender],\n        \"unauthorized reader\"\n      );\n    }\n    _;\n  }\n\n  /*********************** Public methods *******************/\n\n  constructor() public {}\n\n  /*********************** External methods *******************/\n\n  // Posts a new sorted value list for a dataFeed.\n  function post(bytes32 dataFeed, bytes32[] calldata dataIds, int128[] calldata values, uint256[] calldata epochTime,\n      bytes[] calldata signatures) external {\n    checkAcceptableValue(dataFeed, values, epochTime);\n\n    DataFeedConfig storage m = dataFeeds_config[dataFeed];\n    require(values.length >= m.minRequiredSources, \"Not enough sources\");\n\n    // 512-bit vector to keep track of sources.\n    // Each ID goes into a single slot in the 2 block vector of [bloom1, bloom0].\n    // IDs are in [1, 511].\n    uint256 bloom1 = 0;\n    uint256 bloom0 = 0;\n\n    address[] memory signers = new address[](values.length);\n\n    for (uint i = 0; i < values.length; i++) {\n      // Check that signer is authorized.\n      address signer = recover(dataIds[i], values[i], epochTime[i], signatures[i]);\n      signers[i] = signer;\n\n      bytes32 source = m.signerToSource[signer];\n      require(source != 0, \"Signature by invalid source\");\n      require(m.sourceToDataId[source] == dataIds[i], \"Invalid data ID for source\");\n\n      // emit SignerReported(dataFeed, signer, values[i], epochTime[i]);\n\n      uint16 sourceId = m.sourceToId[m.signerToSource[signer]] - 1;\n      if (sourceId <= 255) {\n        uint8 slot = uint8(sourceId); // Lower byte\n        require((bloom0 >> slot) % 2 == 0, \"Source already signed\");\n        bloom0 += uint256(2) ** slot;\n      } else {\n        uint8 slot = uint8(sourceId >> 8); // Upper byte\n        require((bloom1 >> slot) % 2 == 0, \"Source already signed\");\n        bloom1 += uint256(2) ** slot;\n      }\n    }\n\n    acceptValue(dataFeed, signers, values, epochTime);\n  }\n\n  function getValue(bytes32 dataFeed) external view readersOnly(dataFeed) returns (int128) {\n    return dataFeeds_data[dataFeed].value;\n  }\n\n  function getValueAndTime(bytes32 dataFeed) external view readersOnly(dataFeed)\n      returns (int128 value, uint256 blockTime, uint256 epochTime) {\n    DataFeedData storage m = dataFeeds_data[dataFeed];\n    return (m.value, m.blockTime, m.epochTime);\n  }\n\n  // Initializes a new DataFeed with the sender as the sole manager and reader.\n  function createDataFeed(\n    bytes32 name,\n    uint16 minRequiredSources,\n    bool isFree\n  )\n    external\n  {\n    require(dataFeeds_config[name].minRequiredSources == 0, \"DataFeed already exists\");\n    require(minRequiredSources < 512, \"Must require  < 512 sources\");\n    dataFeeds_config[name].managers[msg.sender] = true;\n    dataFeeds_config[name].readers[msg.sender] = true;\n    dataFeeds_config[name].isFree = isFree;\n    dataFeeds_config[name].minRequiredSources = minRequiredSources;\n\n    emit DataFeedCreation(msg.sender, name, minRequiredSources);\n  }\n\n  function addManager(bytes32 dataFeed, address m) external managersOnly(dataFeed) {\n    dataFeeds_config[dataFeed].managers[m] = true;\n\n    emit ManagerAddition(msg.sender, dataFeed, m);\n  }\n\n  function removeManager(bytes32 dataFeed, address m) external managersOnly(dataFeed) {\n    require(\n      dataFeeds_config[dataFeed].managers[m],\n      \"Datafeed or Manager does not exist\"\n    );\n    dataFeeds_config[dataFeed].managers[m] = false;\n\n    emit ManagerRemoval(msg.sender, dataFeed, m);\n  }\n\n  function addSource(bytes32 dataFeed, bytes32 src, bytes32 sourceDataId) public managersOnly(dataFeed) {\n    require(src != 0, \"Source cannot be 0\");\n    require(sourceDataId != 0, \"sourceDataId cannot be 0\");\n    DataFeedConfig storage m = dataFeeds_config[dataFeed];\n    require(m.minRequiredSources > 0, \"Datafeed does not exist\");\n    require(m.sourceToId[src] == 0, \"Source already exists\");\n    require(m.lastSourceId < 512, \"Reached max of 511 sources\");\n    m.lastSourceId++;\n    m.sourceToId[src] = dataFeeds_config[dataFeed].lastSourceId;\n    m.idToSource[m.lastSourceId] = src;\n    m.sourceToDataId[src] = sourceDataId;\n\n    emit SourceAddition(msg.sender, dataFeed, src, sourceDataId);\n  }\n\n  function removeSource(bytes32 dataFeed, bytes32 src) public managersOnly(dataFeed) {\n    DataFeedConfig storage m = dataFeeds_config[dataFeed];\n\n    // Reassign source in last slot to take the removed source's ID.\n    uint16 idToReassign = m.sourceToId[src];\n    bytes32 lastSource = m.idToSource[m.lastSourceId];\n\n    m.sourceToId[src] = 0;\n    m.idToSource[m.lastSourceId] = 0;\n\n    m.sourceToId[lastSource] = idToReassign;\n    m.idToSource[idToReassign] = lastSource;\n\n    // Delete source's signers.\n    address[] storage signersToDelete = m.sourceToSigners[src];\n    for (uint i = 0; i < signersToDelete.length; i++) {\n      address signer = signersToDelete[i];\n      delete m.signerToSource[signer];\n    }\n    delete m.sourceToSigners[src];\n\n    m.lastSourceId--;\n\n    emit SourceRemoval(msg.sender, dataFeed, src);\n  }\n\n  function addSigner(bytes32 dataFeed, bytes32 src, address signer) public managersOnly(dataFeed) {\n    require(signer != address(0), \"No signer 0\");\n\n    DataFeedConfig storage m = dataFeeds_config[dataFeed];\n    require(m.sourceToId[src] != 0, \"Invalid source for dataFeed\");\n    require(m.signerToSource[signer] == 0, \"Signer already added to this Source\");\n    require(\n      m.sourceToSigners[src].length <= 20,\n      \"Source cannot have more than 20 Signers\"\n    );\n    m.signerToSource[signer] = src;\n    m.sourceToSigners[src].push(signer);\n\n    emit SignerAddition(msg.sender, dataFeed, src, signer);\n  }\n\n  function removeSigner(bytes32 dataFeed, address signer) external managersOnly(dataFeed) {\n    DataFeedConfig storage m = dataFeeds_config[dataFeed];\n    bytes32 src = m.signerToSource[signer];\n    address[] storage sourcesSigners = m.sourceToSigners[src];\n\n    for (uint i = 0; i < sourcesSigners.length; i++) {\n      if (sourcesSigners[i] == signer) {\n        sourcesSigners[i] = sourcesSigners[sourcesSigners.length - 1];\n        sourcesSigners.length--;\n        break;\n      }\n    }\n    delete m.signerToSource[signer];\n\n    emit SignerRemoval(msg.sender, dataFeed, src, signer);\n  }\n\n  // Convenience function for adding sources and signers at the same time.\n  // Adds source if it doesn't exist yet.\n  function batchAddSourceAndSigner(\n    bytes32 dataFeed,\n    bytes32[] calldata sources,\n    bytes32[] calldata sourceDataIds,\n    address[] calldata signers\n  ) external managersOnly(dataFeed) {\n    require(sources.length == sourceDataIds.length && sources.length == signers.length, \"Input lists must be of equal length\");\n    require(sources.length != 0, \"Source and Signer lists should not be empty\");\n    require(\n      dataFeeds_config[dataFeed].minRequiredSources != 0,\n      \"Datafeed does not exist\"\n    );\n    for (uint i = 0; i < sources.length; i++) {\n      if (dataFeeds_config[dataFeed].sourceToId[sources[i]] == 0) {\n        addSource(dataFeed, sources[i], sourceDataIds[i]);\n      }\n      addSigner(dataFeed, sources[i], signers[i]);\n    }\n  }\n\n  function setMinRequiredSources(bytes32 dataFeed, uint16 newMin) external managersOnly(dataFeed) {\n    require(newMin > 0, \"min must be positive\");\n    require(newMin < 512, \"min must be less than 512\");\n    dataFeeds_config[dataFeed].minRequiredSources = newMin;\n\n    emit MinRequiredSourcesUpdated(msg.sender, dataFeed, newMin);\n  }\n\n  function setIsFree(bytes32 dataFeed, bool isFree) external managersOnly(dataFeed) {\n    dataFeeds_config[dataFeed].isFree = isFree;\n    emit IsFreeUpdated(msg.sender, dataFeed, isFree);\n  }\n\n  function addReader(bytes32 dataFeed, address r) external managersOnly(dataFeed) {\n    require (r != address(0), \"No contract 0\");\n    dataFeeds_config[dataFeed].readers[r] = true;\n\n    emit ReaderAddition(msg.sender, dataFeed, r);\n  }\n\n  function removeReader(bytes32 dataFeed, address r) external managersOnly(dataFeed) {\n    require(r != address(0), \"Reader address should not be 0\");\n    dataFeeds_config[dataFeed].readers[r] = false;\n\n    emit ReaderRemoval(msg.sender, dataFeed, r);\n  }\n\n  /*********************** Internal methods *******************/\n\n  function checkAcceptableValue(bytes32 dataFeed, int128[] memory values, uint256[] memory epochTime) internal view {\n    int128 prevValue = values[0];\n    uint256 lastUpdatedTime = dataFeeds_data[dataFeed].epochTime;\n\n    for (uint i = 0; i < values.length; i++) {\n        require(epochTime[i] > lastUpdatedTime, \"Value must be newer than last\");\n        require(\n          epochTime[i] < (block.timestamp + 300),\n          \"Value timestamp cannot be more than 5 minutes after blocktime\"\n        );\n        require(values[i] >= prevValue, \"List must be sorted\");\n        prevValue = values[i];\n    }\n  }\n\n  // Recovers the signer of the dataFeed data.\n  function recover(\n    bytes32 dataId,\n    int128 value,\n    uint256 time,\n    bytes memory signature\n  )\n  internal pure returns (address)\n  {\n    (bytes32 r, bytes32 s, uint8 v) = abi.decode(\n      signature, (bytes32, bytes32, uint8)\n    );\n    return ecrecover(\n        keccak256(\n          abi.encodePacked(\n            \"\\x19Ethereum Signed Message:\\n32\",\n            keccak256(abi.encodePacked(value, time, dataId))\n          )\n        ),\n        v, r, s\n    );\n  }\n\n  // @dev This function was split out of `post()` due to stack variable count limitations.\n  function acceptValue(\n    bytes32 dataFeed,\n    address[] memory signers,\n    int128[] memory values,\n    uint256[] memory epochTime\n  ) internal {\n\n    // Set value to median.\n    int128 medianValue;\n    uint256 medianEpochTime;\n    uint256 midPoint = values.length >> 1;\n\n    if (values.length % 2 == 0) {\n      if (block.number % 2 == 0) {\n        // lower values of middle two\n        medianValue = values[midPoint - 1];\n        medianEpochTime = epochTime[midPoint - 1];\n      } else {\n        // higher values of middle two\n        medianValue = values[midPoint];\n        medianEpochTime = epochTime[midPoint];\n      }\n    } else {\n      medianValue = values[midPoint];\n      medianEpochTime = epochTime[midPoint];\n    }\n\n    dataFeeds_data[dataFeed].value = medianValue;\n    dataFeeds_data[dataFeed].epochTime = medianEpochTime;\n\n    dataFeeds_data[dataFeed].blockTime = block.timestamp;\n\n    emit MedianValueWritten(\n      msg.sender,\n      dataFeed,\n      dataFeeds_data[dataFeed].value,\n      dataFeeds_data[dataFeed].epochTime,\n      signers,\n      values\n    );\n  }\n}\n",
  "sourcePath": "/Users/park/Documents/dirt/dirtoracle/contracts/DirtOracle.sol",
  "compiler": {
    "name": "solc",
    "version": "0.5.10+commit.5a6ea5b1.Emscripten.clang"
  },
  "schemaVersion": "3.0.8",
  "updatedAt": "2019-08-14T00:38:28.450Z",
  "devdoc": {
    "methods": {}
  },
  "userdoc": {
    "methods": {
      "constructor": "********************* Public methods ******************",
      "post(bytes32,bytes32[],int128[],uint256[],bytes[])": {
        "notice": "********************* External methods ******************"
      }
    }
  }
}