{
  "contractName": "OpenMarketFeed",
  "abi": [
    {
      "constant": true,
      "inputs": [
        {
          "name": "",
          "type": "bytes32"
        }
      ],
      "name": "marketFeeds_config",
      "outputs": [
        {
          "name": "marketId",
          "type": "bytes32"
        },
        {
          "name": "lastSourceId",
          "type": "uint16"
        },
        {
          "name": "minRequiredSources",
          "type": "uint256"
        }
      ],
      "payable": false,
      "stateMutability": "view",
      "type": "function",
      "signature": "0x34c3fc0b"
    },
    {
      "inputs": [],
      "payable": false,
      "stateMutability": "nonpayable",
      "type": "constructor",
      "signature": "constructor"
    },
    {
      "anonymous": false,
      "inputs": [
        {
          "indexed": false,
          "name": "marketFeed",
          "type": "bytes32"
        },
        {
          "indexed": false,
          "name": "marketId",
          "type": "bytes32"
        },
        {
          "indexed": false,
          "name": "minRequiredSources",
          "type": "uint256"
        },
        {
          "indexed": false,
          "name": "creator",
          "type": "address"
        }
      ],
      "name": "MarketFeedCreation",
      "type": "event",
      "signature": "0xf9116d74deb371481a5df9a2894182235e9f36ca18be8f25571e0e5bef0089b8"
    },
    {
      "anonymous": false,
      "inputs": [
        {
          "indexed": true,
          "name": "marketFeed",
          "type": "bytes32"
        },
        {
          "indexed": false,
          "name": "source",
          "type": "bytes32"
        },
        {
          "indexed": false,
          "name": "sourceMarketId",
          "type": "bytes32"
        },
        {
          "indexed": true,
          "name": "manager",
          "type": "address"
        }
      ],
      "name": "SourceAddition",
      "type": "event",
      "signature": "0xf206efbe88443c86839da95f5403e6e20f056e4331fec4488cbbbbcc9677fe10"
    },
    {
      "anonymous": false,
      "inputs": [
        {
          "indexed": true,
          "name": "marketFeed",
          "type": "bytes32"
        },
        {
          "indexed": false,
          "name": "source",
          "type": "bytes32"
        },
        {
          "indexed": true,
          "name": "manager",
          "type": "address"
        }
      ],
      "name": "SourceRemoval",
      "type": "event",
      "signature": "0x0d549742286f307761ed550ff1ece440d671490fba4c8261d06235004fbb4b12"
    },
    {
      "anonymous": false,
      "inputs": [
        {
          "indexed": true,
          "name": "marketFeed",
          "type": "bytes32"
        },
        {
          "indexed": false,
          "name": "source",
          "type": "bytes32"
        },
        {
          "indexed": false,
          "name": "signer",
          "type": "address"
        },
        {
          "indexed": true,
          "name": "manager",
          "type": "address"
        }
      ],
      "name": "SignerAddition",
      "type": "event",
      "signature": "0x6d38e604625a7ef9ba6572aff336b890fe4d6d9bafa3947b5d930190c62224c3"
    },
    {
      "anonymous": false,
      "inputs": [
        {
          "indexed": true,
          "name": "marketFeed",
          "type": "bytes32"
        },
        {
          "indexed": false,
          "name": "source",
          "type": "bytes32"
        },
        {
          "indexed": false,
          "name": "signer",
          "type": "address"
        },
        {
          "indexed": false,
          "name": "manager",
          "type": "address"
        }
      ],
      "name": "SignerRemoval",
      "type": "event",
      "signature": "0x24cc7b1731c02813cbe4af99f660071eb819095830fb67befda1ff22d14fb689"
    },
    {
      "anonymous": false,
      "inputs": [
        {
          "indexed": true,
          "name": "marketFeed",
          "type": "bytes32"
        },
        {
          "indexed": false,
          "name": "newMin",
          "type": "uint256"
        },
        {
          "indexed": false,
          "name": "manager",
          "type": "address"
        }
      ],
      "name": "MinRequiredSourcesUpdated",
      "type": "event",
      "signature": "0xdb360fc215f8332007db83948fc8f5255bcf7a65676dfa92af730d3af24e65a1"
    },
    {
      "anonymous": false,
      "inputs": [
        {
          "indexed": false,
          "name": "marketFeed",
          "type": "bytes32"
        },
        {
          "indexed": false,
          "name": "source",
          "type": "bytes32"
        },
        {
          "indexed": false,
          "name": "reporter",
          "type": "address"
        },
        {
          "indexed": false,
          "name": "epochTime",
          "type": "uint256"
        }
      ],
      "name": "SourceReported",
      "type": "event",
      "signature": "0xf21fee1c906094cf3d1a60094ce803aed0f4519a60be16c69cde7357de06bc32"
    },
    {
      "anonymous": false,
      "inputs": [
        {
          "indexed": false,
          "name": "marketFeed",
          "type": "bytes32"
        },
        {
          "indexed": false,
          "name": "val",
          "type": "uint256"
        },
        {
          "indexed": false,
          "name": "age",
          "type": "uint256"
        },
        {
          "indexed": false,
          "name": "reporterAddress",
          "type": "address"
        }
      ],
      "name": "MedianPriceWritten",
      "type": "event",
      "signature": "0x9f382770ef5935cf322bbf20bd42bae318eae23b4b96fcea8976ef81e9a11a03"
    },
    {
      "constant": false,
      "inputs": [
        {
          "name": "marketFeed",
          "type": "bytes32"
        },
        {
          "name": "marketIds",
          "type": "bytes32[]"
        },
        {
          "name": "prices",
          "type": "uint256[]"
        },
        {
          "name": "epochTime",
          "type": "uint256[]"
        },
        {
          "name": "signatures",
          "type": "bytes[]"
        }
      ],
      "name": "post",
      "outputs": [],
      "payable": false,
      "stateMutability": "nonpayable",
      "type": "function",
      "signature": "0x61962d92"
    },
    {
      "constant": true,
      "inputs": [
        {
          "name": "marketFeed",
          "type": "bytes32"
        }
      ],
      "name": "getPrice",
      "outputs": [
        {
          "name": "",
          "type": "uint256"
        }
      ],
      "payable": false,
      "stateMutability": "view",
      "type": "function",
      "signature": "0x31d98b3f"
    },
    {
      "constant": true,
      "inputs": [
        {
          "name": "marketFeed",
          "type": "bytes32"
        }
      ],
      "name": "getPriceAndTime",
      "outputs": [
        {
          "name": "price",
          "type": "uint256"
        },
        {
          "name": "blockTime",
          "type": "uint256"
        },
        {
          "name": "epochTime",
          "type": "uint256"
        }
      ],
      "payable": false,
      "stateMutability": "view",
      "type": "function",
      "signature": "0x15522820"
    },
    {
      "constant": false,
      "inputs": [
        {
          "name": "name",
          "type": "bytes32"
        },
        {
          "name": "marketId",
          "type": "bytes32"
        },
        {
          "name": "minRequiredSources",
          "type": "uint256"
        }
      ],
      "name": "createMarketFeed",
      "outputs": [],
      "payable": false,
      "stateMutability": "nonpayable",
      "type": "function",
      "signature": "0xc2d13bc5"
    },
    {
      "constant": false,
      "inputs": [
        {
          "name": "marketFeed",
          "type": "bytes32"
        },
        {
          "name": "m",
          "type": "address"
        }
      ],
      "name": "addManager",
      "outputs": [],
      "payable": false,
      "stateMutability": "nonpayable",
      "type": "function",
      "signature": "0xb0b052c2"
    },
    {
      "constant": false,
      "inputs": [
        {
          "name": "marketFeed",
          "type": "bytes32"
        },
        {
          "name": "m",
          "type": "address"
        }
      ],
      "name": "removeManager",
      "outputs": [],
      "payable": false,
      "stateMutability": "nonpayable",
      "type": "function",
      "signature": "0xb21aa96c"
    },
    {
      "constant": false,
      "inputs": [
        {
          "name": "marketFeed",
          "type": "bytes32"
        },
        {
          "name": "src",
          "type": "bytes32"
        },
        {
          "name": "sourceMarketId",
          "type": "bytes32"
        }
      ],
      "name": "addSource",
      "outputs": [],
      "payable": false,
      "stateMutability": "nonpayable",
      "type": "function",
      "signature": "0xf9f64b87"
    },
    {
      "constant": false,
      "inputs": [
        {
          "name": "marketFeed",
          "type": "bytes32"
        },
        {
          "name": "src",
          "type": "bytes32"
        }
      ],
      "name": "removeSource",
      "outputs": [],
      "payable": false,
      "stateMutability": "nonpayable",
      "type": "function",
      "signature": "0x9da1e7fc"
    },
    {
      "constant": false,
      "inputs": [
        {
          "name": "marketFeed",
          "type": "bytes32"
        },
        {
          "name": "src",
          "type": "bytes32"
        },
        {
          "name": "signer",
          "type": "address"
        }
      ],
      "name": "addSigner",
      "outputs": [],
      "payable": false,
      "stateMutability": "nonpayable",
      "type": "function",
      "signature": "0x4a07d97e"
    },
    {
      "constant": false,
      "inputs": [
        {
          "name": "marketFeed",
          "type": "bytes32"
        },
        {
          "name": "signer",
          "type": "address"
        }
      ],
      "name": "removeSigner",
      "outputs": [],
      "payable": false,
      "stateMutability": "nonpayable",
      "type": "function",
      "signature": "0xfcb58b11"
    },
    {
      "constant": false,
      "inputs": [
        {
          "name": "marketFeed",
          "type": "bytes32"
        },
        {
          "name": "sources",
          "type": "bytes32[]"
        },
        {
          "name": "sourceMarketIds",
          "type": "bytes32[]"
        },
        {
          "name": "signers",
          "type": "address[]"
        }
      ],
      "name": "batchAddSourceAndSigner",
      "outputs": [],
      "payable": false,
      "stateMutability": "nonpayable",
      "type": "function",
      "signature": "0x1ed9d1a9"
    },
    {
      "constant": false,
      "inputs": [
        {
          "name": "marketFeed",
          "type": "bytes32"
        },
        {
          "name": "newMin",
          "type": "uint256"
        }
      ],
      "name": "setMinRequiredSources",
      "outputs": [],
      "payable": false,
      "stateMutability": "nonpayable",
      "type": "function",
      "signature": "0x544fe5a1"
    },
    {
      "constant": false,
      "inputs": [
        {
          "name": "marketFeed",
          "type": "bytes32"
        },
        {
          "name": "r",
          "type": "address"
        }
      ],
      "name": "addReader",
      "outputs": [],
      "payable": false,
      "stateMutability": "nonpayable",
      "type": "function",
      "signature": "0x8a30ad93"
    },
    {
      "constant": false,
      "inputs": [
        {
          "name": "marketFeed",
          "type": "bytes32"
        },
        {
          "name": "r",
          "type": "address"
        }
      ],
      "name": "removeReader",
      "outputs": [],
      "payable": false,
      "stateMutability": "nonpayable",
      "type": "function",
      "signature": "0x683f303a"
    }
  ],
  "bytecode": "0x608060405234801561001057600080fd5b50613668806100206000396000f3fe608060405234801561001057600080fd5b5060043610610112576000357c010000000000000000000000000000000000000000000000000000000090048063683f303a116100b4578063b21aa96c11610083578063b21aa96c1461028b578063c2d13bc5146102a7578063f9f64b87146102c3578063fcb58b11146102df57610112565b8063683f303a1461021b5780638a30ad93146102375780639da1e7fc14610253578063b0b052c21461026f57610112565b806334c3fc0b116100f057806334c3fc0b146101955780634a07d97e146101c7578063544fe5a1146101e357806361962d92146101ff57610112565b806315522820146101175780631ed9d1a91461014957806331d98b3f14610165575b600080fd5b610131600480360361012c919081019061260d565b6102fb565b604051610140939291906134cb565b60405180910390f35b610163600480360361015e9190810190612672565b61041c565b005b61017f600480360361017a919081019061260d565b6105fe565b60405161018c9190613487565b60405180910390f35b6101af60048036036101aa919081019061260d565b610718565b6040516101be93929190613146565b60405180910390f35b6101e160048036036101dc919081019061284f565b610750565b005b6101fd60048036036101f8919081019061298b565b6109f8565b005b6102196004803603610214919081019061272b565b610b34565b005b61023560048036036102309190810190612636565b6110bd565b005b610251600480360361024c9190810190612636565b6111cd565b005b61026d60048036036102689190810190612813565b61134d565b005b61028960048036036102849190810190612636565b611685565b005b6102a560048036036102a09190810190612636565b611795565b005b6102c160048036036102bc91908101906128ed565b6118a5565b005b6102dd60048036036102d8919081019061289e565b611a8c565b005b6102f960048036036102f49190810190612636565b611d7d565b005b60008060008360008082815260200190815260200160002060070160003373ffffffffffffffffffffffffffffffffffffffff1673ffffffffffffffffffffffffffffffffffffffff16815260200190815260200160002060009054906101000a900460ff166103a0576040517f08c379a0000000000000000000000000000000000000000000000000000000008152600401610397906132c7565b60405180910390fd5b600060016000878152602001908152602001600020905060008160000154116103fe576040517f08c379a00000000000000000000000000000000000000000000000000000000081526004016103f590613407565b60405180910390fd5b80600001548160010154826002015494509450945050509193909250565b8660008082815260200190815260200160002060080160003373ffffffffffffffffffffffffffffffffffffffff1673ffffffffffffffffffffffffffffffffffffffff16815260200190815260200160002060009054906101000a900460ff166104bc576040517f08c379a00000000000000000000000000000000000000000000000000000000081526004016104b390613467565b60405180910390fd5b84849050878790501480156104d657508282905087879050145b610515576040517f08c379a000000000000000000000000000000000000000000000000000000000815260040161050c906132a7565b60405180910390fd5b60008090505b878790508110156105f35760008060008b815260200190815260200160002060040160008a8a8581811061054b57fe5b90506020020135815260200190815260200160002060009054906101000a900461ffff1661ffff1614156105a9576105a88989898481811061058957fe5b9050602002013588888581811061059c57fe5b90506020020135611a8c565b5b6105e6898989848181106105b957fe5b905060200201358686858181106105cc57fe5b90506020020160206105e191908101906125e4565b610750565b808060010191505061051b565b505050505050505050565b60008160008082815260200190815260200160002060070160003373ffffffffffffffffffffffffffffffffffffffff1673ffffffffffffffffffffffffffffffffffffffff16815260200190815260200160002060009054906101000a900460ff166106a0576040517f08c379a0000000000000000000000000000000000000000000000000000000008152600401610697906132c7565b60405180910390fd5b60006001600085815260200190815260200160002060000154116106f9576040517f08c379a00000000000000000000000000000000000000000000000000000000081526004016106f090613407565b60405180910390fd5b6001600084815260200190815260200160002060000154915050919050565b60006020528060005260406000206000915090508060000154908060060160009054906101000a900461ffff16908060090154905083565b8260008082815260200190815260200160002060080160003373ffffffffffffffffffffffffffffffffffffffff1673ffffffffffffffffffffffffffffffffffffffff16815260200190815260200160002060009054906101000a900460ff166107f0576040517f08c379a00000000000000000000000000000000000000000000000000000000081526004016107e790613467565b60405180910390fd5b600073ffffffffffffffffffffffffffffffffffffffff168273ffffffffffffffffffffffffffffffffffffffff161415610860576040517f08c379a000000000000000000000000000000000000000000000000000000000815260040161085790613447565b60405180910390fd5b60008060008681526020019081526020016000209050600081600401600086815260200190815260200160002060009054906101000a900461ffff1661ffff1614156108e1576040517f08c379a00000000000000000000000000000000000000000000000000000000081526004016108d890613367565b60405180910390fd5b838160030160008573ffffffffffffffffffffffffffffffffffffffff1673ffffffffffffffffffffffffffffffffffffffff168152602001908152602001600020819055508060020160008581526020019081526020016000208390806001815401808255809150509060018203906000526020600020016000909192909190916101000a81548173ffffffffffffffffffffffffffffffffffffffff021916908373ffffffffffffffffffffffffffffffffffffffff160217905550503373ffffffffffffffffffffffffffffffffffffffff16857f6d38e604625a7ef9ba6572aff336b890fe4d6d9bafa3947b5d930190c62224c386866040516109e9929190613033565b60405180910390a35050505050565b8160008082815260200190815260200160002060080160003373ffffffffffffffffffffffffffffffffffffffff1673ffffffffffffffffffffffffffffffffffffffff16815260200190815260200160002060009054906101000a900460ff16610a98576040517f08c379a0000000000000000000000000000000000000000000000000000000008152600401610a8f90613467565b60405180910390fd5b60008211610adb576040517f08c379a0000000000000000000000000000000000000000000000000000000008152600401610ad290613287565b60405180910390fd5b8160008085815260200190815260200160002060090181905550827fdb360fc215f8332007db83948fc8f5255bcf7a65676dfa92af730d3af24e65a18333604051610b279291906134a2565b60405180910390a2505050565b610bc189878780806020026020016040519081016040528093929190818152602001838360200280828437600081840152601f19601f82011690508083019250505050505050868680806020026020016040519081016040528093929190818152602001838360200280828437600081840152601f19601f82011690508083019250505050505050612051565b60008060008b815260200190815260200160002090508060090154878790501015610c21576040517f08c379a0000000000000000000000000000000000000000000000000000000008152600401610c1890613387565b60405180910390fd5b6000809050600080905060008090505b89899050811015610fdf576000610d228d8d84818110610c4d57fe5b905060200201358c8c85818110610c6057fe5b905060200201358b8b86818110610c7357fe5b905060200201358a8a87818110610c8657fe5b9050602002810180356001602003833603038112610ca357600080fd5b8083019250508135905060208201915067ffffffffffffffff811115610cc857600080fd5b600181023603821315610cda57600080fd5b8080601f016020809104026020016040519081016040528093929190818152602001838380828437600081840152601f19601f820116905080830192505050505050506121ab565b905060008560030160008373ffffffffffffffffffffffffffffffffffffffff1673ffffffffffffffffffffffffffffffffffffffff1681526020019081526020016000205490506000600102811415610db1576040517f08c379a0000000000000000000000000000000000000000000000000000000008152600401610da890613267565b60405180910390fd5b8d8d84818110610dbd57fe5b905060200201358660010160008381526020019081526020016000205414610e1a576040517f08c379a0000000000000000000000000000000000000000000000000000000008152600401610e11906133c7565b60405180910390fd5b7ff21fee1c906094cf3d1a60094ce803aed0f4519a60be16c69cde7357de06bc328f82848d8d88818110610e4a57fe5b90506020020135604051610e6194939291906130bc565b60405180910390a1600060018760040160008960030160008773ffffffffffffffffffffffffffffffffffffffff1673ffffffffffffffffffffffffffffffffffffffff16815260200190815260200160002054815260200190815260200160002060009054906101000a900461ffff1603905060ff8161ffff1611610f52576000819050600060028260ff1688908060020a820491505081610f0057fe5b0614610f41576040517f08c379a0000000000000000000000000000000000000000000000000000000008152600401610f3890613307565b60405180910390fd5b8060ff1660020a8601955050610fcf565b600060088261ffff16908060020a82049150509050600060028260ff1689908060020a820491505081610f8157fe5b0614610fc2576040517f08c379a0000000000000000000000000000000000000000000000000000000008152600401610fb990613307565b60405180910390fd5b8060ff1660020a87019650505b5050508080600101915050610c31565b506110af8c8c8c80806020026020016040519081016040528093929190818152602001838360200280828437600081840152601f19601f820116905080830192505050505050508b8b80806020026020016040519081016040528093929190818152602001838360200280828437600081840152601f19601f820116905080830192505050505050508a8a80806020026020016040519081016040528093929190818152602001838360200280828437600081840152601f19601f82011690508083019250505050505050612277565b505050505050505050505050565b8160008082815260200190815260200160002060080160003373ffffffffffffffffffffffffffffffffffffffff1673ffffffffffffffffffffffffffffffffffffffff16815260200190815260200160002060009054906101000a900460ff1661115d576040517f08c379a000000000000000000000000000000000000000000000000000000000815260040161115490613467565b60405180910390fd5b600080600085815260200190815260200160002060070160008473ffffffffffffffffffffffffffffffffffffffff1673ffffffffffffffffffffffffffffffffffffffff16815260200190815260200160002060006101000a81548160ff021916908315150217905550505050565b8160008082815260200190815260200160002060080160003373ffffffffffffffffffffffffffffffffffffffff1673ffffffffffffffffffffffffffffffffffffffff16815260200190815260200160002060009054906101000a900460ff1661126d576040517f08c379a000000000000000000000000000000000000000000000000000000000815260040161126490613467565b60405180910390fd5b600073ffffffffffffffffffffffffffffffffffffffff168273ffffffffffffffffffffffffffffffffffffffff1614156112dd576040517f08c379a00000000000000000000000000000000000000000000000000000000081526004016112d4906133a7565b60405180910390fd5b600160008085815260200190815260200160002060070160008473ffffffffffffffffffffffffffffffffffffffff1673ffffffffffffffffffffffffffffffffffffffff16815260200190815260200160002060006101000a81548160ff021916908315150217905550505050565b8160008082815260200190815260200160002060080160003373ffffffffffffffffffffffffffffffffffffffff1673ffffffffffffffffffffffffffffffffffffffff16815260200190815260200160002060009054906101000a900460ff166113ed576040517f08c379a00000000000000000000000000000000000000000000000000000000081526004016113e490613467565b60405180910390fd5b60008060008581526020019081526020016000209050600081600401600085815260200190815260200160002060009054906101000a900461ffff16905060008260050160008460060160009054906101000a900461ffff1661ffff1661ffff168152602001908152602001600020549050600083600401600087815260200190815260200160002060006101000a81548161ffff021916908361ffff16021790555060006001028360050160008560060160009054906101000a900461ffff1661ffff1661ffff168152602001908152602001600020819055508183600401600083815260200190815260200160002060006101000a81548161ffff021916908361ffff160217905550808360050160008461ffff1661ffff168152602001908152602001600020819055506000836002016000878152602001908152602001600020905060008090505b81805490508110156115d357600082828154811061155357fe5b9060005260206000200160009054906101000a900473ffffffffffffffffffffffffffffffffffffffff1690508560030160008273ffffffffffffffffffffffffffffffffffffffff1673ffffffffffffffffffffffffffffffffffffffff16815260200190815260200160002060009055508080600101915050611539565b5083600201600087815260200190815260200160002060006115f591906123e1565b83600601600081819054906101000a900461ffff16809291906001900391906101000a81548161ffff021916908361ffff160217905550503373ffffffffffffffffffffffffffffffffffffffff16877f0d549742286f307761ed550ff1ece440d671490fba4c8261d06235004fbb4b12886040516116749190613018565b60405180910390a350505050505050565b8160008082815260200190815260200160002060080160003373ffffffffffffffffffffffffffffffffffffffff1673ffffffffffffffffffffffffffffffffffffffff16815260200190815260200160002060009054906101000a900460ff16611725576040517f08c379a000000000000000000000000000000000000000000000000000000000815260040161171c90613467565b60405180910390fd5b600160008085815260200190815260200160002060080160008473ffffffffffffffffffffffffffffffffffffffff1673ffffffffffffffffffffffffffffffffffffffff16815260200190815260200160002060006101000a81548160ff021916908315150217905550505050565b8160008082815260200190815260200160002060080160003373ffffffffffffffffffffffffffffffffffffffff1673ffffffffffffffffffffffffffffffffffffffff16815260200190815260200160002060009054906101000a900460ff16611835576040517f08c379a000000000000000000000000000000000000000000000000000000000815260040161182c90613467565b60405180910390fd5b600080600085815260200190815260200160002060080160008473ffffffffffffffffffffffffffffffffffffffff1673ffffffffffffffffffffffffffffffffffffffff16815260200190815260200160002060006101000a81548160ff021916908315150217905550505050565b600080600085815260200190815260200160002060090154146118fd576040517f08c379a00000000000000000000000000000000000000000000000000000000081526004016118f490613247565b60405180910390fd5b60008111611940576040517f08c379a000000000000000000000000000000000000000000000000000000000815260040161193790613427565b60405180910390fd5b8160008085815260200190815260200160002060000181905550600160008085815260200190815260200160002060080160003373ffffffffffffffffffffffffffffffffffffffff1673ffffffffffffffffffffffffffffffffffffffff16815260200190815260200160002060006101000a81548160ff021916908315150217905550600160008085815260200190815260200160002060070160003373ffffffffffffffffffffffffffffffffffffffff1673ffffffffffffffffffffffffffffffffffffffff16815260200190815260200160002060006101000a81548160ff02191690831515021790555080600080858152602001908152602001600020600901819055507ff9116d74deb371481a5df9a2894182235e9f36ca18be8f25571e0e5bef0089b883838333604051611a7f9493929190613101565b60405180910390a1505050565b8260008082815260200190815260200160002060080160003373ffffffffffffffffffffffffffffffffffffffff1673ffffffffffffffffffffffffffffffffffffffff16815260200190815260200160002060009054906101000a900460ff16611b2c576040517f08c379a0000000000000000000000000000000000000000000000000000000008152600401611b2390613467565b60405180910390fd5b6000600102831415611b73576040517f08c379a0000000000000000000000000000000000000000000000000000000008152600401611b6a90613327565b60405180910390fd5b60008060008681526020019081526020016000209050600081600401600086815260200190815260200160002060009054906101000a900461ffff1661ffff1614611bf3576040517f08c379a0000000000000000000000000000000000000000000000000000000008152600401611bea90613207565b60405180910390fd5b6102008160060160009054906101000a900461ffff1661ffff1610611c4d576040517f08c379a0000000000000000000000000000000000000000000000000000000008152600401611c44906132e7565b60405180910390fd5b80600601600081819054906101000a900461ffff168092919060010191906101000a81548161ffff021916908361ffff1602179055505060008086815260200190815260200160002060060160009054906101000a900461ffff1681600401600086815260200190815260200160002060006101000a81548161ffff021916908361ffff160217905550838160050160008360060160009054906101000a900461ffff1661ffff1661ffff1681526020019081526020016000208190555082816001016000868152602001908152602001600020819055503373ffffffffffffffffffffffffffffffffffffffff16857ff206efbe88443c86839da95f5403e6e20f056e4331fec4488cbbbbcc9677fe108686604051611d6e929190613093565b60405180910390a35050505050565b8160008082815260200190815260200160002060080160003373ffffffffffffffffffffffffffffffffffffffff1673ffffffffffffffffffffffffffffffffffffffff16815260200190815260200160002060009054906101000a900460ff16611e1d576040517f08c379a0000000000000000000000000000000000000000000000000000000008152600401611e1490613467565b60405180910390fd5b6000806000858152602001908152602001600020905060008160030160008573ffffffffffffffffffffffffffffffffffffffff1673ffffffffffffffffffffffffffffffffffffffff1681526020019081526020016000205490506000826002016000838152602001908152602001600020905060008090505b8180549050811015611fc7578573ffffffffffffffffffffffffffffffffffffffff16828281548110611ec757fe5b9060005260206000200160009054906101000a900473ffffffffffffffffffffffffffffffffffffffff1673ffffffffffffffffffffffffffffffffffffffff161415611fba5781600183805490500381548110611f2157fe5b9060005260206000200160009054906101000a900473ffffffffffffffffffffffffffffffffffffffff16828281548110611f5857fe5b9060005260206000200160006101000a81548173ffffffffffffffffffffffffffffffffffffffff021916908373ffffffffffffffffffffffffffffffffffffffff16021790555081805480919060019003611fb49190612402565b50611fc7565b8080600101915050611e98565b508260030160008673ffffffffffffffffffffffffffffffffffffffff1673ffffffffffffffffffffffffffffffffffffffff16815260200190815260200160002060009055857f24cc7b1731c02813cbe4af99f660071eb819095830fb67befda1ff22d14fb6898387336040516120419392919061305c565b60405180910390a2505050505050565b600080905060006001600086815260200190815260200160002060020154905060008090505b84518110156121a3578184828151811061208d57fe5b6020026020010151116120d5576040517f08c379a00000000000000000000000000000000000000000000000000000000081526004016120cc90613227565b60405180910390fd5b428482815181106120e257fe5b60200260200101511061212a576040517f08c379a0000000000000000000000000000000000000000000000000000000008152600401612121906133e7565b60405180910390fd5b8285828151811061213757fe5b60200260200101511015612180576040517f08c379a000000000000000000000000000000000000000000000000000000000815260040161217790613347565b60405180910390fd5b84818151811061218c57fe5b602002602001015192508080600101915050612077565b505050505050565b600080600080848060200190516121c5919081019061293c565b925092509250600187878a6040516020016121e293929190612fdb565b604051602081830303815290604052805190602001206040516020016122089190612fb5565b604051602081830303815290604052805190602001208285856040516000815260200160405260405161223e94939291906131c2565b6020604051602081039080840390855afa158015612260573d6000803e3d6000fd5b505050602060405103519350505050949350505050565b60008060018451908060020a820491505090506000600285518161229757fe5b0614156122db5760028482815181106122ac57fe5b60200260200101518560018403815181106122c357fe5b602002602001015101816122d357fe5b0491506122ff565b8360018551908060020a8204915050815181106122f457fe5b602002602001015191505b8160016000888152602001908152602001600020600001819055504260016000888152602001908152602001600020600101819055508260018551908060020a82049150508151811061234e57fe5b602002602001015160016000888152602001908152602001600020600201819055507f9f382770ef5935cf322bbf20bd42bae318eae23b4b96fcea8976ef81e9a11a03866001600089815260200190815260200160002060000154600160008a815260200190815260200160002060010154336040516123d1949392919061317d565b60405180910390a1505050505050565b50805460008255906000526020600020908101906123ff919061242e565b50565b81548183558181111561242957818360005260206000209182019101612428919061242e565b5b505050565b61245091905b8082111561244c576000816000905550600101612434565b5090565b90565b600081359050612462816135c9565b92915050565b60008083601f84011261247a57600080fd5b8235905067ffffffffffffffff81111561249357600080fd5b6020830191508360208202830111156124ab57600080fd5b9250929050565b60008083601f8401126124c457600080fd5b8235905067ffffffffffffffff8111156124dd57600080fd5b6020830191508360208202830111156124f557600080fd5b9250929050565b60008083601f84011261250e57600080fd5b8235905067ffffffffffffffff81111561252757600080fd5b60208301915083602082028301111561253f57600080fd5b9250929050565b60008083601f84011261255857600080fd5b8235905067ffffffffffffffff81111561257157600080fd5b60208301915083602082028301111561258957600080fd5b9250929050565b60008135905061259f816135e0565b92915050565b6000815190506125b4816135e0565b92915050565b6000813590506125c9816135f7565b92915050565b6000815190506125de8161360e565b92915050565b6000602082840312156125f657600080fd5b600061260484828501612453565b91505092915050565b60006020828403121561261f57600080fd5b600061262d84828501612590565b91505092915050565b6000806040838503121561264957600080fd5b600061265785828601612590565b925050602061266885828601612453565b9150509250929050565b60008060008060008060006080888a03121561268d57600080fd5b600061269b8a828b01612590565b975050602088013567ffffffffffffffff8111156126b857600080fd5b6126c48a828b016124b2565b9650965050604088013567ffffffffffffffff8111156126e357600080fd5b6126ef8a828b016124b2565b9450945050606088013567ffffffffffffffff81111561270e57600080fd5b61271a8a828b01612468565b925092505092959891949750929550565b600080600080600080600080600060a08a8c03121561274957600080fd5b60006127578c828d01612590565b99505060208a013567ffffffffffffffff81111561277457600080fd5b6127808c828d016124b2565b985098505060408a013567ffffffffffffffff81111561279f57600080fd5b6127ab8c828d01612546565b965096505060608a013567ffffffffffffffff8111156127ca57600080fd5b6127d68c828d01612546565b945094505060808a013567ffffffffffffffff8111156127f557600080fd5b6128018c828d016124fc565b92509250509295985092959850929598565b6000806040838503121561282657600080fd5b600061283485828601612590565b925050602061284585828601612590565b9150509250929050565b60008060006060848603121561286457600080fd5b600061287286828701612590565b935050602061288386828701612590565b925050604061289486828701612453565b9150509250925092565b6000806000606084860312156128b357600080fd5b60006128c186828701612590565b93505060206128d286828701612590565b92505060406128e386828701612590565b9150509250925092565b60008060006060848603121561290257600080fd5b600061291086828701612590565b935050602061292186828701612590565b9250506040612932868287016125ba565b9150509250925092565b60008060006060848603121561295157600080fd5b600061295f868287016125a5565b9350506020612970868287016125a5565b9250506040612981868287016125cf565b9150509250925092565b6000806040838503121561299e57600080fd5b60006129ac85828601612590565b92505060206129bd858286016125ba565b9150509250929050565b6129d08161357f565b82525050565b6129df8161351e565b82525050565b6129ee81613530565b82525050565b612a05612a0082613530565b6135b5565b82525050565b6000612a18601583613502565b91507f536f7572636520616c72656164792065786973747300000000000000000000006000830152602082019050919050565b6000612a58601d83613502565b91507f5072696365206d757374206265206e65776572207468616e206c6173740000006000830152602082019050919050565b6000612a98601c83613513565b91507f19457468657265756d205369676e6564204d6573736167653a0a3332000000006000830152601c82019050919050565b6000612ad8601983613502565b91507f4d61726b65744665656420616c726561647920657869737473000000000000006000830152602082019050919050565b6000612b18601b83613502565b91507f5369676e617475726520627920696e76616c696420736f7572636500000000006000830152602082019050919050565b6000612b58601483613502565b91507f6d696e206d75737420626520706f7369746976650000000000000000000000006000830152602082019050919050565b6000612b98602383613502565b91507f496e707574206c69737473206d757374206265206f6620657175616c206c656e60008301527f67746800000000000000000000000000000000000000000000000000000000006020830152604082019050919050565b6000612bfe601383613502565b91507f756e617574686f72697a656420726561646572000000000000000000000000006000830152602082019050919050565b6000612c3e601a83613502565b91507f52656163686564206d6178206f662035313120736f75726365730000000000006000830152602082019050919050565b6000612c7e601583613502565b91507f536f7572636520616c7265616479207369676e656400000000000000000000006000830152602082019050919050565b6000612cbe601283613502565b91507f536f757263652063616e6e6f74206265203000000000000000000000000000006000830152602082019050919050565b6000612cfe601383613502565b91507f4c697374206d75737420626520736f72746564000000000000000000000000006000830152602082019050919050565b6000612d3e601d83613502565b91507f496e76616c696420736f7572636520666f72206d61726b6574466565640000006000830152602082019050919050565b6000612d7e601283613502565b91507f4e6f7420656e6f75676820736f757263657300000000000000000000000000006000830152602082019050919050565b6000612dbe600d83613502565b91507f4e6f20636f6e74726163742030000000000000000000000000000000000000006000830152602082019050919050565b6000612dfe601c83613502565b91507f496e76616c6964206d61726b657420494420666f7220736f75726365000000006000830152602082019050919050565b6000612e3e601f83613502565b91507f50726963652063616e6e6f7420626520616674657220626c6f636b74696d65006000830152602082019050919050565b6000612e7e601283613502565b91507f496e76616c6964207072696365206665656400000000000000000000000000006000830152602082019050919050565b6000612ebe601983613502565b91507f4d757374207265717569726520203e203020736f7572636573000000000000006000830152602082019050919050565b6000612efe600b83613502565b91507f4e6f207369676e657220300000000000000000000000000000000000000000006000830152602082019050919050565b6000612f3e600d83613502565b91507f6e6f742061206d616e61676572000000000000000000000000000000000000006000830152602082019050919050565b612f7a8161353a565b82525050565b612f8981613568565b82525050565b612fa0612f9b82613568565b6135bf565b82525050565b612faf81613572565b82525050565b6000612fc082612a8b565b9150612fcc82846129f4565b60208201915081905092915050565b6000612fe78286612f8f565b602082019150612ff78285612f8f565b60208201915061300782846129f4565b602082019150819050949350505050565b600060208201905061302d60008301846129e5565b92915050565b600060408201905061304860008301856129e5565b61305560208301846129d6565b9392505050565b600060608201905061307160008301866129e5565b61307e60208301856129d6565b61308b60408301846129c7565b949350505050565b60006040820190506130a860008301856129e5565b6130b560208301846129e5565b9392505050565b60006080820190506130d160008301876129e5565b6130de60208301866129e5565b6130eb60408301856129d6565b6130f86060830184612f80565b95945050505050565b600060808201905061311660008301876129e5565b61312360208301866129e5565b6131306040830185612f80565b61313d60608301846129c7565b95945050505050565b600060608201905061315b60008301866129e5565b6131686020830185612f71565b6131756040830184612f80565b949350505050565b600060808201905061319260008301876129e5565b61319f6020830186612f80565b6131ac6040830185612f80565b6131b960608301846129c7565b95945050505050565b60006080820190506131d760008301876129e5565b6131e46020830186612fa6565b6131f160408301856129e5565b6131fe60608301846129e5565b95945050505050565b6000602082019050818103600083015261322081612a0b565b9050919050565b6000602082019050818103600083015261324081612a4b565b9050919050565b6000602082019050818103600083015261326081612acb565b9050919050565b6000602082019050818103600083015261328081612b0b565b9050919050565b600060208201905081810360008301526132a081612b4b565b9050919050565b600060208201905081810360008301526132c081612b8b565b9050919050565b600060208201905081810360008301526132e081612bf1565b9050919050565b6000602082019050818103600083015261330081612c31565b9050919050565b6000602082019050818103600083015261332081612c71565b9050919050565b6000602082019050818103600083015261334081612cb1565b9050919050565b6000602082019050818103600083015261336081612cf1565b9050919050565b6000602082019050818103600083015261338081612d31565b9050919050565b600060208201905081810360008301526133a081612d71565b9050919050565b600060208201905081810360008301526133c081612db1565b9050919050565b600060208201905081810360008301526133e081612df1565b9050919050565b6000602082019050818103600083015261340081612e31565b9050919050565b6000602082019050818103600083015261342081612e71565b9050919050565b6000602082019050818103600083015261344081612eb1565b9050919050565b6000602082019050818103600083015261346081612ef1565b9050919050565b6000602082019050818103600083015261348081612f31565b9050919050565b600060208201905061349c6000830184612f80565b92915050565b60006040820190506134b76000830185612f80565b6134c460208301846129c7565b9392505050565b60006060820190506134e06000830186612f80565b6134ed6020830185612f80565b6134fa6040830184612f80565b949350505050565b600082825260208201905092915050565b600081905092915050565b600061352982613548565b9050919050565b6000819050919050565b600061ffff82169050919050565b600073ffffffffffffffffffffffffffffffffffffffff82169050919050565b6000819050919050565b600060ff82169050919050565b600061358a82613591565b9050919050565b600061359c826135a3565b9050919050565b60006135ae82613548565b9050919050565b6000819050919050565b6000819050919050565b6135d28161351e565b81146135dd57600080fd5b50565b6135e981613530565b81146135f457600080fd5b50565b61360081613568565b811461360b57600080fd5b50565b61361781613572565b811461362257600080fd5b5056fea365627a7a72305820e8cf25287fc363cf5a9b4c80db3ef04e2f362d33a2ad31d9ee9f7917ceed14806c6578706572696d656e74616cf564736f6c634300050a0040",
  "source": "pragma solidity ^0.5.0;\npragma experimental ABIEncoderV2; // Needed for using bytes[] parameter type.\n\ncontract OpenMarketFeed {\n  struct MarketFeedSource {\n    bytes32 marketId;\n  }\n\n  // Anyone can create a new MarketFeed with `createMarketFeed()`.\n  // Only the managers of a MarketFeed can edit parameters (whitelists and config) of the marketFeed.\n  // Anyone can post updates to the marketFeed data with `post()`, but the data is only accepted if it meets the marketFeed's configured criteria.\n  struct MarketFeedConfig {\n    bytes32 marketId;\n    mapping (bytes32 => bytes32) sourceToMarketId;\n\n    // Whitelists, all editable only by managers\n    mapping (bytes32 => address[]) sourceToSigners;\n    mapping (address => bytes32) signerToSource;\n\n    mapping (bytes32 => uint16) sourceToId;\n    mapping (uint16 => bytes32) idToSource;\n    // Source IDs are assigned in incrementing order in a packed manner in the range [1, 511].\n    // If a source is deleted, the last source is reassigned its ID and the last source ID is freed up.\n    uint16 lastSourceId;\n\n    mapping (address => bool) readers;\n    mapping (address => bool) managers;\n\n    uint256 minRequiredSources;\n  }\n\n  struct MarketFeedData {\n    // Last accepted data\n    uint256 price;\n    // uint256[] rawPrices;\n    uint256 blockTime;\n    uint256 epochTime;\n  }\n\n  /*************** State attributes ***************/\n\n  // A map from marketFeed name to MarketFeed.\n  mapping (bytes32 => MarketFeedConfig) public marketFeeds_config;\n  mapping (bytes32 => MarketFeedData) marketFeeds_data;\n\n  /*************** Emitted Events *****************/\n\n  // when a market feed is created\n  event MarketFeedCreation(bytes32 marketFeed, bytes32 marketId, uint256 minRequiredSources, address creator);\n\n  // when a source is added\n  event SourceAddition(bytes32 indexed marketFeed, bytes32 source, bytes32 sourceMarketId, address indexed manager);\n\n  // when a source is removed\n  event SourceRemoval(bytes32 indexed marketFeed, bytes32 source, address indexed manager);\n\n  // when a signer is added\n  event SignerAddition(bytes32 indexed marketFeed, bytes32 source, address signer, address indexed manager);\n\n  // when a signer is removed\n  event SignerRemoval(bytes32 indexed marketFeed, bytes32 source, address signer, address manager);\n\n  // when min required sources is updated\n  event MinRequiredSourcesUpdated(bytes32 indexed marketFeed, uint256 newMin, address manager);\n\n  // when a valid source reports a price\n  event SourceReported(bytes32 marketFeed, bytes32 source, address reporter, uint256 epochTime);\n\n  // when contract writes a median price\n  event MedianPriceWritten(bytes32 marketFeed, uint256 val, uint256 age, address reporterAddress);\n\n  /*********************** Modifiers *******************/\n\n  modifier managersOnly(bytes32 marketFeed) {\n    require(marketFeeds_config[marketFeed].managers[msg.sender], 'not a manager');\n    _;\n  }\n\n  modifier readersOnly(bytes32 marketFeed) {\n    require(marketFeeds_config[marketFeed].readers[msg.sender], \"unauthorized reader\");\n    _;\n  }\n\n  /*********************** Public methods *******************/\n\n  constructor() public {}\n\n  /*********************** External methods *******************/\n\n  // Posts a new sorted price list for a marketFeed.\n  function post(bytes32 marketFeed, bytes32[] calldata marketIds, uint256[] calldata prices, uint256[] calldata epochTime,\n      bytes[] calldata signatures) external {\n    checkAcceptablePrice(marketFeed, prices, epochTime);\n\n    MarketFeedConfig storage m = marketFeeds_config[marketFeed];\n    require(prices.length >= m.minRequiredSources, \"Not enough sources\");\n\n    // 512-bit vector to keep track of sources.\n    // Each ID goes into a single slot in the 2 block vector of [bloom1, bloom0].\n    // IDs are in [1, 511].\n    uint256 bloom1 = 0;\n    uint256 bloom0 = 0;\n\n    for (uint i = 0; i < prices.length; i++) {\n      // Check that signer is authorized.\n      address signer = recover(marketIds[i], prices[i], epochTime[i], signatures[i]);\n      bytes32 source = m.signerToSource[signer];\n      require(source != 0, \"Signature by invalid source\");\n      require(m.sourceToMarketId[source] == marketIds[i], \"Invalid market ID for source\");\n\n      emit SourceReported(marketFeed, source, signer, epochTime[i]);\n\n      uint16 sourceId = m.sourceToId[m.signerToSource[signer]] - 1;\n      if (sourceId <= 255) {\n        uint8 slot = uint8(sourceId); // Lower byte\n        require((bloom0 >> slot) % 2 == 0, \"Source already signed\");\n        bloom0 += uint256(2) ** slot;\n      } else {\n        uint8 slot = uint8(sourceId >> 8); // Upper byte\n        require((bloom1 >> slot) % 2 == 0, \"Source already signed\");\n        bloom1 += uint256(2) ** slot;\n      }\n    }\n\n    acceptPrice(marketFeed, marketIds, prices, epochTime);\n  }\n\n  function getPrice(bytes32 marketFeed) external view readersOnly(marketFeed) returns (uint256) {\n    require(marketFeeds_data[marketFeed].price > 0, \"Invalid price feed\");\n    return marketFeeds_data[marketFeed].price;\n  }\n\n  function getPriceAndTime(bytes32 marketFeed) external view readersOnly(marketFeed)\n      returns (uint256 price, uint256 blockTime, uint256 epochTime) {\n    MarketFeedData storage m = marketFeeds_data[marketFeed];\n    require(m.price > 0, \"Invalid price feed\");\n    return (m.price, m.blockTime, m.epochTime);\n  }\n\n  // function getRawPrices(bytes32 marketFeed) external view readersOnly(marketFeed) returns (uint256[] memory) {\n  //   require(marketFeeds_data[marketFeed].price > 0, \"Invalid price feed\");\n  //   return marketFeeds_data[marketFeed].rawPrices;\n  // }\n\n  // Initializes a new MarketFeed with the sender as the sole manager and reader.\n  function createMarketFeed(bytes32 name, bytes32 marketId, uint256 minRequiredSources) external {\n    require(marketFeeds_config[name].minRequiredSources == 0, \"MarketFeed already exists\");\n    require(minRequiredSources > 0, \"Must require  > 0 sources\");\n    marketFeeds_config[name].marketId = marketId;\n    marketFeeds_config[name].managers[msg.sender] = true;\n    marketFeeds_config[name].readers[msg.sender] = true;\n    marketFeeds_config[name].minRequiredSources = minRequiredSources;\n\n    emit MarketFeedCreation(name, marketId, minRequiredSources, msg.sender);\n  }\n\n  function addManager(bytes32 marketFeed, address m) external managersOnly(marketFeed) {\n    marketFeeds_config[marketFeed].managers[m] = true;\n  }\n\n  function removeManager(bytes32 marketFeed, address m) external managersOnly(marketFeed) {\n    marketFeeds_config[marketFeed].managers[m] = false;\n  }\n\n  function addSource(bytes32 marketFeed, bytes32 src, bytes32 sourceMarketId) public managersOnly(marketFeed) {\n    require(src != 0, \"Source cannot be 0\");\n    MarketFeedConfig storage m = marketFeeds_config[marketFeed];\n    require(m.sourceToId[src] == 0, \"Source already exists\");\n    require(m.lastSourceId < 512, \"Reached max of 511 sources\");\n    m.lastSourceId++;\n    m.sourceToId[src] = marketFeeds_config[marketFeed].lastSourceId;\n    m.idToSource[m.lastSourceId] = src;\n    m.sourceToMarketId[src] = sourceMarketId;\n\n    emit SourceAddition(marketFeed, src, sourceMarketId, msg.sender);\n  }\n\n  function removeSource(bytes32 marketFeed, bytes32 src) public managersOnly(marketFeed) {\n    MarketFeedConfig storage m = marketFeeds_config[marketFeed];\n\n    // Reassign source in last slot to take the removed source's ID.\n    uint16 idToReassign = m.sourceToId[src];\n    bytes32 lastSource = m.idToSource[m.lastSourceId];\n\n    m.sourceToId[src] = 0;\n    m.idToSource[m.lastSourceId] = 0;\n\n    m.sourceToId[lastSource] = idToReassign;\n    m.idToSource[idToReassign] = lastSource;\n\n    // Delete source's signers.\n    address[] storage signersToDelete = m.sourceToSigners[src];\n    for (uint i = 0; i < signersToDelete.length; i++) {\n      address signer = signersToDelete[i];\n      delete m.signerToSource[signer];\n    }\n    delete m.sourceToSigners[src];\n\n    m.lastSourceId--;\n\n    emit SourceRemoval(marketFeed, src, msg.sender);\n  }\n\n  function addSigner(bytes32 marketFeed, bytes32 src, address signer) public managersOnly(marketFeed) {\n    require(signer != address(0), \"No signer 0\");\n\n    MarketFeedConfig storage m = marketFeeds_config[marketFeed];\n    require(m.sourceToId[src] != 0, \"Invalid source for marketFeed\");\n    m.signerToSource[signer] = src;\n    m.sourceToSigners[src].push(signer);\n\n    emit SignerAddition(marketFeed, src, signer, msg.sender);\n  }\n\n  function removeSigner(bytes32 marketFeed, address signer) external managersOnly(marketFeed) {\n    MarketFeedConfig storage m = marketFeeds_config[marketFeed];\n    bytes32 src = m.signerToSource[signer];\n    address[] storage sourcesSigners = m.sourceToSigners[src];\n\n    for (uint i = 0; i < sourcesSigners.length; i++) {\n      if (sourcesSigners[i] == signer) {\n        sourcesSigners[i] = sourcesSigners[sourcesSigners.length - 1];\n        sourcesSigners.length--;\n        break;\n      }\n    }\n    delete m.signerToSource[signer];\n\n    emit SignerRemoval(marketFeed, src, signer, msg.sender);\n  }\n\n  // Convenience function for adding sources and signers at the same time.\n  // Adds source if it doesn't exist yet.\n  function batchAddSourceAndSigner(\n    bytes32 marketFeed,\n    bytes32[] calldata sources,\n    bytes32[] calldata sourceMarketIds,\n    address[] calldata signers\n  ) external managersOnly(marketFeed) {\n    require(sources.length == sourceMarketIds.length && sources.length == signers.length, \"Input lists must be of equal length\");\n    for (uint i = 0; i < sources.length; i++) {\n      if (marketFeeds_config[marketFeed].sourceToId[sources[i]] == 0) {\n        addSource(marketFeed, sources[i], sourceMarketIds[i]);\n      }\n      addSigner(marketFeed, sources[i], signers[i]);\n    }\n  }\n\n  function setMinRequiredSources(bytes32 marketFeed, uint256 newMin) external managersOnly(marketFeed) {\n    require(newMin > 0, \"min must be positive\");\n    marketFeeds_config[marketFeed].minRequiredSources = newMin;\n\n    emit MinRequiredSourcesUpdated(marketFeed, newMin, msg.sender);\n  }\n\n  function addReader(bytes32 marketFeed, address r) external managersOnly(marketFeed) {\n    require (r != address(0), \"No contract 0\");\n    marketFeeds_config[marketFeed].readers[r] = true;\n  }\n\n  function removeReader(bytes32 marketFeed, address r) external managersOnly(marketFeed) {\n    marketFeeds_config[marketFeed].readers[r] = false;\n  }\n\n  /*********************** Internal methods *******************/\n\n  function checkAcceptablePrice(bytes32 marketFeed, uint256[] memory prices, uint256[] memory epochTime) internal view {\n    uint256 prevPrice = 0;\n    uint256 lastUpdatedTime = marketFeeds_data[marketFeed].epochTime;\n\n    for (uint i = 0; i < prices.length; i++) {\n        require(epochTime[i] > lastUpdatedTime, \"Price must be newer than last\");\n        require(epochTime[i] < block.timestamp, \"Price cannot be after blocktime\");\n        require(prices[i] >= prevPrice, \"List must be sorted\");\n        prevPrice = prices[i];\n    }\n  }\n\n  // Recovers the signer of the marketFeed price data.\n  function recover(bytes32 marketId, uint256 price, uint256 time, bytes memory signature) internal pure returns (address) {\n    (bytes32 r, bytes32 s, uint8 v) = abi.decode(signature, (bytes32, bytes32, uint8));\n    return ecrecover(\n        keccak256(abi.encodePacked(\"\\x19Ethereum Signed Message:\\n32\", keccak256(abi.encodePacked(price, time, marketId)))),\n        v, r, s\n    );\n  }\n\n  // @dev This function was split out of `post()` due to stack variable count limitations.\n  function acceptPrice(bytes32 marketFeed, bytes32[] memory marketIds, uint256[] memory prices, uint256[] memory epochTime) internal {\n    // Set price to median.\n    uint256 medianPrice;\n    uint256 midPoint = prices.length >> 1;\n    if (prices.length % 2 == 0) {\n      medianPrice = (prices[midPoint - 1] + prices[midPoint]) / 2;\n    } else {\n      medianPrice = prices[prices.length >> 1];\n    }\n    marketFeeds_data[marketFeed].price = medianPrice;\n\n    marketFeeds_data[marketFeed].blockTime = block.timestamp;\n    marketFeeds_data[marketFeed].epochTime = uint256(epochTime[prices.length >> 1]);\n\n    emit MedianPriceWritten(marketFeed, marketFeeds_data[marketFeed].price, marketFeeds_data[marketFeed].blockTime, msg.sender);\n  }\n}\n",
  "sourcePath": "/Users/sendrecv/sproj/leverest/contracts/pricefeed/OpenMarketFeed.sol",
  "compiler": {
    "name": "solc",
    "version": "0.5.10+commit.5a6ea5b1.Emscripten.clang"
  },
  "schemaVersion": "3.0.8",
  "updatedAt": "2019-07-30T21:07:13.128Z",
  "devdoc": {
    "methods": {}
  },
  "userdoc": {
    "methods": {
      "constructor": "********************* Public methods ******************",
      "post(bytes32,bytes32[],uint256[],uint256[],bytes[])": {
        "notice": "********************* External methods ******************"
      }
    }
  }
}