{
  "contractName": "OpenMarketFeed",
  "abi": [
    {
      "constant": true,
      "inputs": [
        {
          "name": "",
          "type": "bytes32"
        }
      ],
      "name": "marketFeeds_config",
      "outputs": [
        {
          "name": "marketId",
          "type": "bytes32"
        },
        {
          "name": "lastSourceId",
          "type": "uint16"
        },
        {
          "name": "minRequiredSources",
          "type": "uint256"
        }
      ],
      "payable": false,
      "stateMutability": "view",
      "type": "function"
    },
    {
      "inputs": [],
      "payable": false,
      "stateMutability": "nonpayable",
      "type": "constructor"
    },
    {
      "anonymous": false,
      "inputs": [
        {
          "indexed": true,
          "name": "manager",
          "type": "address"
        },
        {
          "indexed": true,
          "name": "marketFeed",
          "type": "bytes32"
        },
        {
          "indexed": false,
          "name": "minRequiredSources",
          "type": "uint256"
        }
      ],
      "name": "MarketFeedCreation",
      "type": "event"
    },
    {
      "anonymous": false,
      "inputs": [
        {
          "indexed": true,
          "name": "manager",
          "type": "address"
        },
        {
          "indexed": true,
          "name": "marketFeed",
          "type": "bytes32"
        },
        {
          "indexed": true,
          "name": "newManager",
          "type": "address"
        }
      ],
      "name": "ManagerAddition",
      "type": "event"
    },
    {
      "anonymous": false,
      "inputs": [
        {
          "indexed": true,
          "name": "manager",
          "type": "address"
        },
        {
          "indexed": true,
          "name": "marketFeed",
          "type": "bytes32"
        },
        {
          "indexed": true,
          "name": "firedManager",
          "type": "address"
        }
      ],
      "name": "ManagerRemoval",
      "type": "event"
    },
    {
      "anonymous": false,
      "inputs": [
        {
          "indexed": true,
          "name": "manager",
          "type": "address"
        },
        {
          "indexed": true,
          "name": "marketFeed",
          "type": "bytes32"
        },
        {
          "indexed": true,
          "name": "source",
          "type": "bytes32"
        },
        {
          "indexed": false,
          "name": "sourceMarketId",
          "type": "bytes32"
        }
      ],
      "name": "SourceAddition",
      "type": "event"
    },
    {
      "anonymous": false,
      "inputs": [
        {
          "indexed": true,
          "name": "manager",
          "type": "address"
        },
        {
          "indexed": true,
          "name": "marketFeed",
          "type": "bytes32"
        },
        {
          "indexed": true,
          "name": "source",
          "type": "bytes32"
        }
      ],
      "name": "SourceRemoval",
      "type": "event"
    },
    {
      "anonymous": false,
      "inputs": [
        {
          "indexed": true,
          "name": "manager",
          "type": "address"
        },
        {
          "indexed": true,
          "name": "marketFeed",
          "type": "bytes32"
        },
        {
          "indexed": true,
          "name": "source",
          "type": "bytes32"
        },
        {
          "indexed": false,
          "name": "signer",
          "type": "address"
        }
      ],
      "name": "SignerAddition",
      "type": "event"
    },
    {
      "anonymous": false,
      "inputs": [
        {
          "indexed": true,
          "name": "manager",
          "type": "address"
        },
        {
          "indexed": true,
          "name": "marketFeed",
          "type": "bytes32"
        },
        {
          "indexed": true,
          "name": "source",
          "type": "bytes32"
        },
        {
          "indexed": false,
          "name": "signer",
          "type": "address"
        }
      ],
      "name": "SignerRemoval",
      "type": "event"
    },
    {
      "anonymous": false,
      "inputs": [
        {
          "indexed": true,
          "name": "manager",
          "type": "address"
        },
        {
          "indexed": true,
          "name": "marketFeed",
          "type": "bytes32"
        },
        {
          "indexed": true,
          "name": "newReader",
          "type": "address"
        }
      ],
      "name": "ReaderAddition",
      "type": "event"
    },
    {
      "anonymous": false,
      "inputs": [
        {
          "indexed": true,
          "name": "manager",
          "type": "address"
        },
        {
          "indexed": true,
          "name": "marketFeed",
          "type": "bytes32"
        },
        {
          "indexed": true,
          "name": "firedReader",
          "type": "address"
        }
      ],
      "name": "ReaderRemoval",
      "type": "event"
    },
    {
      "anonymous": false,
      "inputs": [
        {
          "indexed": true,
          "name": "manager",
          "type": "address"
        },
        {
          "indexed": true,
          "name": "marketFeed",
          "type": "bytes32"
        },
        {
          "indexed": false,
          "name": "newMin",
          "type": "uint256"
        }
      ],
      "name": "MinRequiredSourcesUpdated",
      "type": "event"
    },
    {
      "anonymous": false,
      "inputs": [
        {
          "indexed": true,
          "name": "marketFeed",
          "type": "bytes32"
        },
        {
          "indexed": true,
          "name": "signerAddress",
          "type": "address"
        },
        {
          "indexed": false,
          "name": "price",
          "type": "uint256"
        },
        {
          "indexed": false,
          "name": "epochTime",
          "type": "uint256"
        }
      ],
      "name": "SignerReported",
      "type": "event"
    },
    {
      "anonymous": false,
      "inputs": [
        {
          "indexed": true,
          "name": "reporterAddress",
          "type": "address"
        },
        {
          "indexed": true,
          "name": "marketFeed",
          "type": "bytes32"
        },
        {
          "indexed": false,
          "name": "price",
          "type": "uint256"
        },
        {
          "indexed": false,
          "name": "epochTime",
          "type": "uint256"
        },
        {
          "indexed": false,
          "name": "signerAddresses",
          "type": "address[]"
        },
        {
          "indexed": false,
          "name": "signerPrices",
          "type": "uint256[]"
        }
      ],
      "name": "MedianPriceWritten",
      "type": "event"
    },
    {
      "constant": false,
      "inputs": [
        {
          "name": "marketFeed",
          "type": "bytes32"
        },
        {
          "name": "marketIds",
          "type": "bytes32[]"
        },
        {
          "name": "prices",
          "type": "uint256[]"
        },
        {
          "name": "epochTime",
          "type": "uint256[]"
        },
        {
          "name": "signatures",
          "type": "bytes[]"
        }
      ],
      "name": "post",
      "outputs": [],
      "payable": false,
      "stateMutability": "nonpayable",
      "type": "function"
    },
    {
      "constant": true,
      "inputs": [
        {
          "name": "marketFeed",
          "type": "bytes32"
        }
      ],
      "name": "getPrice",
      "outputs": [
        {
          "name": "",
          "type": "uint256"
        }
      ],
      "payable": false,
      "stateMutability": "view",
      "type": "function"
    },
    {
      "constant": true,
      "inputs": [
        {
          "name": "marketFeed",
          "type": "bytes32"
        }
      ],
      "name": "getPriceAndTime",
      "outputs": [
        {
          "name": "price",
          "type": "uint256"
        },
        {
          "name": "blockTime",
          "type": "uint256"
        },
        {
          "name": "epochTime",
          "type": "uint256"
        }
      ],
      "payable": false,
      "stateMutability": "view",
      "type": "function"
    },
    {
      "constant": false,
      "inputs": [
        {
          "name": "name",
          "type": "bytes32"
        },
        {
          "name": "marketId",
          "type": "bytes32"
        },
        {
          "name": "minRequiredSources",
          "type": "uint256"
        }
      ],
      "name": "createMarketFeed",
      "outputs": [],
      "payable": false,
      "stateMutability": "nonpayable",
      "type": "function"
    },
    {
      "constant": false,
      "inputs": [
        {
          "name": "marketFeed",
          "type": "bytes32"
        },
        {
          "name": "m",
          "type": "address"
        }
      ],
      "name": "addManager",
      "outputs": [],
      "payable": false,
      "stateMutability": "nonpayable",
      "type": "function"
    },
    {
      "constant": false,
      "inputs": [
        {
          "name": "marketFeed",
          "type": "bytes32"
        },
        {
          "name": "m",
          "type": "address"
        }
      ],
      "name": "removeManager",
      "outputs": [],
      "payable": false,
      "stateMutability": "nonpayable",
      "type": "function"
    },
    {
      "constant": false,
      "inputs": [
        {
          "name": "marketFeed",
          "type": "bytes32"
        },
        {
          "name": "src",
          "type": "bytes32"
        },
        {
          "name": "sourceMarketId",
          "type": "bytes32"
        }
      ],
      "name": "addSource",
      "outputs": [],
      "payable": false,
      "stateMutability": "nonpayable",
      "type": "function"
    },
    {
      "constant": false,
      "inputs": [
        {
          "name": "marketFeed",
          "type": "bytes32"
        },
        {
          "name": "src",
          "type": "bytes32"
        }
      ],
      "name": "removeSource",
      "outputs": [],
      "payable": false,
      "stateMutability": "nonpayable",
      "type": "function"
    },
    {
      "constant": false,
      "inputs": [
        {
          "name": "marketFeed",
          "type": "bytes32"
        },
        {
          "name": "src",
          "type": "bytes32"
        },
        {
          "name": "signer",
          "type": "address"
        }
      ],
      "name": "addSigner",
      "outputs": [],
      "payable": false,
      "stateMutability": "nonpayable",
      "type": "function"
    },
    {
      "constant": false,
      "inputs": [
        {
          "name": "marketFeed",
          "type": "bytes32"
        },
        {
          "name": "signer",
          "type": "address"
        }
      ],
      "name": "removeSigner",
      "outputs": [],
      "payable": false,
      "stateMutability": "nonpayable",
      "type": "function"
    },
    {
      "constant": false,
      "inputs": [
        {
          "name": "marketFeed",
          "type": "bytes32"
        },
        {
          "name": "sources",
          "type": "bytes32[]"
        },
        {
          "name": "sourceMarketIds",
          "type": "bytes32[]"
        },
        {
          "name": "signers",
          "type": "address[]"
        }
      ],
      "name": "batchAddSourceAndSigner",
      "outputs": [],
      "payable": false,
      "stateMutability": "nonpayable",
      "type": "function"
    },
    {
      "constant": false,
      "inputs": [
        {
          "name": "marketFeed",
          "type": "bytes32"
        },
        {
          "name": "newMin",
          "type": "uint256"
        }
      ],
      "name": "setMinRequiredSources",
      "outputs": [],
      "payable": false,
      "stateMutability": "nonpayable",
      "type": "function"
    },
    {
      "constant": false,
      "inputs": [
        {
          "name": "marketFeed",
          "type": "bytes32"
        },
        {
          "name": "r",
          "type": "address"
        }
      ],
      "name": "addReader",
      "outputs": [],
      "payable": false,
      "stateMutability": "nonpayable",
      "type": "function"
    },
    {
      "constant": false,
      "inputs": [
        {
          "name": "marketFeed",
          "type": "bytes32"
        },
        {
          "name": "r",
          "type": "address"
        }
      ],
      "name": "removeReader",
      "outputs": [],
      "payable": false,
      "stateMutability": "nonpayable",
      "type": "function"
    }
  ],
  "bytecode": "0x608060405234801561001057600080fd5b506138c6806100206000396000f3fe608060405234801561001057600080fd5b5060043610610112576000357c010000000000000000000000000000000000000000000000000000000090048063683f303a116100b4578063b21aa96c11610083578063b21aa96c1461028b578063c2d13bc5146102a7578063f9f64b87146102c3578063fcb58b11146102df57610112565b8063683f303a1461021b5780638a30ad93146102375780639da1e7fc14610253578063b0b052c21461026f57610112565b806334c3fc0b116100f057806334c3fc0b146101955780634a07d97e146101c7578063544fe5a1146101e357806361962d92146101ff57610112565b806315522820146101175780631ed9d1a91461014957806331d98b3f14610165575b600080fd5b610131600480360361012c9190810190612821565b6102fb565b604051610140939291906136ed565b60405180910390f35b610163600480360361015e9190810190612886565b61041c565b005b61017f600480360361017a9190810190612821565b6105fe565b60405161018c919061367f565b60405180910390f35b6101af60048036036101aa9190810190612821565b610718565b6040516101be93929190613383565b60405180910390f35b6101e160048036036101dc9190810190612a63565b610750565b005b6101fd60048036036101f89190810190612b9f565b6109f7565b005b6102196004803603610214919081019061293f565b610b48565b005b6102356004803603610230919081019061284a565b611102565b005b610251600480360361024c919081019061284a565b61126d565b005b61026d60048036036102689190810190612a27565b611448565b005b6102896004803603610284919081019061284a565b611776565b005b6102a560048036036102a0919081019061284a565b6118e1565b005b6102c160048036036102bc9190810190612b01565b611a4c565b005b6102dd60048036036102d89190810190612ab2565b611c45565b005b6102f960048036036102f4919081019061284a565b611f35565b005b60008060008360008082815260200190815260200160002060070160003373ffffffffffffffffffffffffffffffffffffffff1673ffffffffffffffffffffffffffffffffffffffff16815260200190815260200160002060009054906101000a900460ff166103a0576040517f08c379a0000000000000000000000000000000000000000000000000000000008152600401610397906134df565b60405180910390fd5b600060016000878152602001908152602001600020905060008160000154116103fe576040517f08c379a00000000000000000000000000000000000000000000000000000000081526004016103f5906135ff565b60405180910390fd5b80600001548160010154826002015494509450945050509193909250565b8660008082815260200190815260200160002060080160003373ffffffffffffffffffffffffffffffffffffffff1673ffffffffffffffffffffffffffffffffffffffff16815260200190815260200160002060009054906101000a900460ff166104bc576040517f08c379a00000000000000000000000000000000000000000000000000000000081526004016104b39061365f565b60405180910390fd5b84849050878790501480156104d657508282905087879050145b610515576040517f08c379a000000000000000000000000000000000000000000000000000000000815260040161050c906134bf565b60405180910390fd5b60008090505b878790508110156105f35760008060008b815260200190815260200160002060040160008a8a8581811061054b57fe5b90506020020135815260200190815260200160002060009054906101000a900461ffff1661ffff1614156105a9576105a88989898481811061058957fe5b9050602002013588888581811061059c57fe5b90506020020135611c45565b5b6105e6898989848181106105b957fe5b905060200201358686858181106105cc57fe5b90506020020160206105e191908101906127f8565b610750565b808060010191505061051b565b505050505050505050565b60008160008082815260200190815260200160002060070160003373ffffffffffffffffffffffffffffffffffffffff1673ffffffffffffffffffffffffffffffffffffffff16815260200190815260200160002060009054906101000a900460ff166106a0576040517f08c379a0000000000000000000000000000000000000000000000000000000008152600401610697906134df565b60405180910390fd5b60006001600085815260200190815260200160002060000154116106f9576040517f08c379a00000000000000000000000000000000000000000000000000000000081526004016106f0906135ff565b60405180910390fd5b6001600084815260200190815260200160002060000154915050919050565b60006020528060005260406000206000915090508060000154908060060160009054906101000a900461ffff16908060090154905083565b8260008082815260200190815260200160002060080160003373ffffffffffffffffffffffffffffffffffffffff1673ffffffffffffffffffffffffffffffffffffffff16815260200190815260200160002060009054906101000a900460ff166107f0576040517f08c379a00000000000000000000000000000000000000000000000000000000081526004016107e79061365f565b60405180910390fd5b600073ffffffffffffffffffffffffffffffffffffffff168273ffffffffffffffffffffffffffffffffffffffff161415610860576040517f08c379a00000000000000000000000000000000000000000000000000000000081526004016108579061363f565b60405180910390fd5b60008060008681526020019081526020016000209050600081600401600086815260200190815260200160002060009054906101000a900461ffff1661ffff1614156108e1576040517f08c379a00000000000000000000000000000000000000000000000000000000081526004016108d89061357f565b60405180910390fd5b838160030160008573ffffffffffffffffffffffffffffffffffffffff1673ffffffffffffffffffffffffffffffffffffffff168152602001908152602001600020819055508060020160008581526020019081526020016000208390806001815401808255809150509060018203906000526020600020016000909192909190916101000a81548173ffffffffffffffffffffffffffffffffffffffff021916908373ffffffffffffffffffffffffffffffffffffffff1602179055505083853373ffffffffffffffffffffffffffffffffffffffff167f6b1709948f0f41fbabae4f0c313418d060186480e2a2bcfb87770facec752415866040516109e8919061334d565b60405180910390a45050505050565b8160008082815260200190815260200160002060080160003373ffffffffffffffffffffffffffffffffffffffff1673ffffffffffffffffffffffffffffffffffffffff16815260200190815260200160002060009054906101000a900460ff16610a97576040517f08c379a0000000000000000000000000000000000000000000000000000000008152600401610a8e9061365f565b60405180910390fd5b60008211610ada576040517f08c379a0000000000000000000000000000000000000000000000000000000008152600401610ad19061349f565b60405180910390fd5b8160008085815260200190815260200160002060090181905550823373ffffffffffffffffffffffffffffffffffffffff167f2872f09cca4cf4696920496bfb8b8f70cc09688c23b1bd6cd5491a42278b9ef984604051610b3b919061367f565b60405180910390a3505050565b610bd589878780806020026020016040519081016040528093929190818152602001838360200280828437600081840152601f19601f82011690508083019250505050505050868680806020026020016040519081016040528093929190818152602001838360200280828437600081840152601f19601f8201169050808301925050505050505061221d565b60008060008b815260200190815260200160002090508060090154878790501015610c35576040517f08c379a0000000000000000000000000000000000000000000000000000000008152600401610c2c9061359f565b60405180910390fd5b60008090506000809050606089899050604051908082528060200260200182016040528015610c735781602001602082028038833980820191505090505b50905060008090505b8a8a9050811015611022576000610d6d8e8e84818110610c9857fe5b905060200201358d8d85818110610cab57fe5b905060200201358c8c86818110610cbe57fe5b905060200201358b8b87818110610cd157fe5b9050602002810180356001602003833603038112610cee57600080fd5b8083019250508135905060208201915067ffffffffffffffff811115610d1357600080fd5b600181023603821315610d2557600080fd5b8080601f016020809104026020016040519081016040528093929190818152602001838380828437600081840152601f19601f8201169050808301925050505050505061237b565b905080838381518110610d7c57fe5b602002602001019073ffffffffffffffffffffffffffffffffffffffff16908173ffffffffffffffffffffffffffffffffffffffff168152505060008660030160008373ffffffffffffffffffffffffffffffffffffffff1673ffffffffffffffffffffffffffffffffffffffff1681526020019081526020016000205490506000600102811415610e43576040517f08c379a0000000000000000000000000000000000000000000000000000000008152600401610e3a9061347f565b60405180910390fd5b8e8e84818110610e4f57fe5b905060200201358760010160008381526020019081526020016000205414610eac576040517f08c379a0000000000000000000000000000000000000000000000000000000008152600401610ea3906135df565b60405180910390fd5b600060018860040160008a60030160008773ffffffffffffffffffffffffffffffffffffffff1673ffffffffffffffffffffffffffffffffffffffff16815260200190815260200160002054815260200190815260200160002060009054906101000a900461ffff1603905060ff8161ffff1611610f95576000819050600060028260ff1689908060020a820491505081610f4357fe5b0614610f84576040517f08c379a0000000000000000000000000000000000000000000000000000000008152600401610f7b9061351f565b60405180910390fd5b8060ff1660020a8701965050611012565b600060088261ffff16908060020a82049150509050600060028260ff168a908060020a820491505081610fc457fe5b0614611005576040517f08c379a0000000000000000000000000000000000000000000000000000000008152600401610ffc9061351f565b60405180910390fd5b8060ff1660020a88019750505b5050508080600101915050610c7c565b506110f38d8d8d80806020026020016040519081016040528093929190818152602001838360200280828437600081840152601f19601f82011690508083019250505050505050838d8d80806020026020016040519081016040528093929190818152602001838360200280828437600081840152601f19601f820116905080830192505050505050508c8c80806020026020016040519081016040528093929190818152602001838360200280828437600081840152601f19601f82011690508083019250505050505050612447565b50505050505050505050505050565b8160008082815260200190815260200160002060080160003373ffffffffffffffffffffffffffffffffffffffff1673ffffffffffffffffffffffffffffffffffffffff16815260200190815260200160002060009054906101000a900460ff166111a2576040517f08c379a00000000000000000000000000000000000000000000000000000000081526004016111999061365f565b60405180910390fd5b600080600085815260200190815260200160002060070160008473ffffffffffffffffffffffffffffffffffffffff1673ffffffffffffffffffffffffffffffffffffffff16815260200190815260200160002060006101000a81548160ff0219169083151502179055508173ffffffffffffffffffffffffffffffffffffffff16833373ffffffffffffffffffffffffffffffffffffffff167fda84d50676cadb9cef699fb523a85e2d1179685a1d6ae1503763f1d9ae72609060405160405180910390a4505050565b8160008082815260200190815260200160002060080160003373ffffffffffffffffffffffffffffffffffffffff1673ffffffffffffffffffffffffffffffffffffffff16815260200190815260200160002060009054906101000a900460ff1661130d576040517f08c379a00000000000000000000000000000000000000000000000000000000081526004016113049061365f565b60405180910390fd5b600073ffffffffffffffffffffffffffffffffffffffff168273ffffffffffffffffffffffffffffffffffffffff16141561137d576040517f08c379a0000000000000000000000000000000000000000000000000000000008152600401611374906135bf565b60405180910390fd5b600160008085815260200190815260200160002060070160008473ffffffffffffffffffffffffffffffffffffffff1673ffffffffffffffffffffffffffffffffffffffff16815260200190815260200160002060006101000a81548160ff0219169083151502179055508173ffffffffffffffffffffffffffffffffffffffff16833373ffffffffffffffffffffffffffffffffffffffff167ffb6475ced741683cd12211262e0dbd5fabc36be42d317f87aa9e83df7242a8fc60405160405180910390a4505050565b8160008082815260200190815260200160002060080160003373ffffffffffffffffffffffffffffffffffffffff1673ffffffffffffffffffffffffffffffffffffffff16815260200190815260200160002060009054906101000a900460ff166114e8576040517f08c379a00000000000000000000000000000000000000000000000000000000081526004016114df9061365f565b60405180910390fd5b60008060008581526020019081526020016000209050600081600401600085815260200190815260200160002060009054906101000a900461ffff16905060008260050160008460060160009054906101000a900461ffff1661ffff1661ffff168152602001908152602001600020549050600083600401600087815260200190815260200160002060006101000a81548161ffff021916908361ffff16021790555060006001028360050160008560060160009054906101000a900461ffff1661ffff1661ffff168152602001908152602001600020819055508183600401600083815260200190815260200160002060006101000a81548161ffff021916908361ffff160217905550808360050160008461ffff1661ffff168152602001908152602001600020819055506000836002016000878152602001908152602001600020905060008090505b81805490508110156116ce57600082828154811061164e57fe5b9060005260206000200160009054906101000a900473ffffffffffffffffffffffffffffffffffffffff1690508560030160008273ffffffffffffffffffffffffffffffffffffffff1673ffffffffffffffffffffffffffffffffffffffff16815260200190815260200160002060009055508080600101915050611634565b5083600201600087815260200190815260200160002060006116f091906125f5565b83600601600081819054906101000a900461ffff16809291906001900391906101000a81548161ffff021916908361ffff1602179055505085873373ffffffffffffffffffffffffffffffffffffffff167fc1a9fc62b8033041c11ff0c436c83008f1e4ec6fec7db3d036a78571dfe64d1260405160405180910390a450505050505050565b8160008082815260200190815260200160002060080160003373ffffffffffffffffffffffffffffffffffffffff1673ffffffffffffffffffffffffffffffffffffffff16815260200190815260200160002060009054906101000a900460ff16611816576040517f08c379a000000000000000000000000000000000000000000000000000000000815260040161180d9061365f565b60405180910390fd5b600160008085815260200190815260200160002060080160008473ffffffffffffffffffffffffffffffffffffffff1673ffffffffffffffffffffffffffffffffffffffff16815260200190815260200160002060006101000a81548160ff0219169083151502179055508173ffffffffffffffffffffffffffffffffffffffff16833373ffffffffffffffffffffffffffffffffffffffff167f2596a56cf263a4dd9bc8a72774f71037c1aaee5e27b4ac660f84fec19d7de5f760405160405180910390a4505050565b8160008082815260200190815260200160002060080160003373ffffffffffffffffffffffffffffffffffffffff1673ffffffffffffffffffffffffffffffffffffffff16815260200190815260200160002060009054906101000a900460ff16611981576040517f08c379a00000000000000000000000000000000000000000000000000000000081526004016119789061365f565b60405180910390fd5b600080600085815260200190815260200160002060080160008473ffffffffffffffffffffffffffffffffffffffff1673ffffffffffffffffffffffffffffffffffffffff16815260200190815260200160002060006101000a81548160ff0219169083151502179055508173ffffffffffffffffffffffffffffffffffffffff16833373ffffffffffffffffffffffffffffffffffffffff167f046097ebaced0801e580cbd6f896b21319151cc80b4de4ff0445b7640b0d0dc660405160405180910390a4505050565b60008060008581526020019081526020016000206009015414611aa4576040517f08c379a0000000000000000000000000000000000000000000000000000000008152600401611a9b9061345f565b60405180910390fd5b60008111611ae7576040517f08c379a0000000000000000000000000000000000000000000000000000000008152600401611ade9061361f565b60405180910390fd5b8160008085815260200190815260200160002060000181905550600160008085815260200190815260200160002060080160003373ffffffffffffffffffffffffffffffffffffffff1673ffffffffffffffffffffffffffffffffffffffff16815260200190815260200160002060006101000a81548160ff021916908315150217905550600160008085815260200190815260200160002060070160003373ffffffffffffffffffffffffffffffffffffffff1673ffffffffffffffffffffffffffffffffffffffff16815260200190815260200160002060006101000a81548160ff0219169083151502179055508060008085815260200190815260200160002060090181905550823373ffffffffffffffffffffffffffffffffffffffff167f95743a7ff6e9b46c0dc41043e8fcd550191b8c32a90f928a97102315514cd4d683604051611c38919061367f565b60405180910390a3505050565b8260008082815260200190815260200160002060080160003373ffffffffffffffffffffffffffffffffffffffff1673ffffffffffffffffffffffffffffffffffffffff16815260200190815260200160002060009054906101000a900460ff16611ce5576040517f08c379a0000000000000000000000000000000000000000000000000000000008152600401611cdc9061365f565b60405180910390fd5b6000600102831415611d2c576040517f08c379a0000000000000000000000000000000000000000000000000000000008152600401611d239061353f565b60405180910390fd5b60008060008681526020019081526020016000209050600081600401600086815260200190815260200160002060009054906101000a900461ffff1661ffff1614611dac576040517f08c379a0000000000000000000000000000000000000000000000000000000008152600401611da3906133ff565b60405180910390fd5b6102008160060160009054906101000a900461ffff1661ffff1610611e06576040517f08c379a0000000000000000000000000000000000000000000000000000000008152600401611dfd906134ff565b60405180910390fd5b80600601600081819054906101000a900461ffff168092919060010191906101000a81548161ffff021916908361ffff1602179055505060008086815260200190815260200160002060060160009054906101000a900461ffff1681600401600086815260200190815260200160002060006101000a81548161ffff021916908361ffff160217905550838160050160008360060160009054906101000a900461ffff1661ffff1661ffff16815260200190815260200160002081905550828160010160008681526020019081526020016000208190555083853373ffffffffffffffffffffffffffffffffffffffff167fd7200eacb82a167d6f9d2e66741919ca80e097199bfdad7064c39e136f923e3b86604051611f269190613368565b60405180910390a45050505050565b8160008082815260200190815260200160002060080160003373ffffffffffffffffffffffffffffffffffffffff1673ffffffffffffffffffffffffffffffffffffffff16815260200190815260200160002060009054906101000a900460ff16611fd5576040517f08c379a0000000000000000000000000000000000000000000000000000000008152600401611fcc9061365f565b60405180910390fd5b6000806000858152602001908152602001600020905060008160030160008573ffffffffffffffffffffffffffffffffffffffff1673ffffffffffffffffffffffffffffffffffffffff1681526020019081526020016000205490506000826002016000838152602001908152602001600020905060008090505b818054905081101561217f578573ffffffffffffffffffffffffffffffffffffffff1682828154811061207f57fe5b9060005260206000200160009054906101000a900473ffffffffffffffffffffffffffffffffffffffff1673ffffffffffffffffffffffffffffffffffffffff16141561217257816001838054905003815481106120d957fe5b9060005260206000200160009054906101000a900473ffffffffffffffffffffffffffffffffffffffff1682828154811061211057fe5b9060005260206000200160006101000a81548173ffffffffffffffffffffffffffffffffffffffff021916908373ffffffffffffffffffffffffffffffffffffffff1602179055508180548091906001900361216c9190612616565b5061217f565b8080600101915050612050565b508260030160008673ffffffffffffffffffffffffffffffffffffffff1673ffffffffffffffffffffffffffffffffffffffff1681526020019081526020016000206000905581863373ffffffffffffffffffffffffffffffffffffffff167f83b30ec2f4a7e34db581007fa2892f7da39ede2fb1903d8196ba04b1f169138d8860405161220d919061334d565b60405180910390a4505050505050565b600080905060006001600086815260200190815260200160002060020154905060008090505b8451811015612373578184828151811061225957fe5b6020026020010151116122a1576040517f08c379a00000000000000000000000000000000000000000000000000000000081526004016122989061341f565b60405180910390fd5b61012c42018482815181106122b257fe5b6020026020010151106122fa576040517f08c379a00000000000000000000000000000000000000000000000000000000081526004016122f19061343f565b60405180910390fd5b8285828151811061230757fe5b60200260200101511015612350576040517f08c379a00000000000000000000000000000000000000000000000000000000081526004016123479061355f565b60405180910390fd5b84818151811061235c57fe5b602002602001015192508080600101915050612243565b505050505050565b600080600080848060200190516123959190810190612b50565b925092509250600187878a6040516020016123b293929190613310565b604051602081830303815290604052805190602001206040516020016123d891906132ea565b604051602081830303815290604052805190602001208285856040516000815260200160405260405161240e94939291906133ba565b6020604051602081039080840390855afa158015612430573d6000803e3d6000fd5b505050602060405103519350505050949350505050565b600080600060018551908060020a820491505090506000600286518161246957fe5b0614156124ec5760006002438161247c57fe5b0614156124ba5784600182038151811061249257fe5b602002602001015192508360018203815181106124ab57fe5b602002602001015191506124e7565b8481815181106124c657fe5b602002602001015192508381815181106124dc57fe5b602002602001015191505b612519565b8481815181106124f857fe5b6020026020010151925083818151811061250e57fe5b602002602001015191505b82600160008a81526020019081526020016000206000018190555081600160008a81526020019081526020016000206002018190555042600160008a815260200190815260200160002060010181905550873373ffffffffffffffffffffffffffffffffffffffff167ffaa90db93b6c8172b136c1e01fc5a1073f437dac0d900e1873dc7a7f802c217f600160008c815260200190815260200160002060000154600160008d8152602001908152602001600020600201548a8a6040516125e3949392919061369a565b60405180910390a35050505050505050565b50805460008255906000526020600020908101906126139190612642565b50565b81548183558181111561263d5781836000526020600020918201910161263c9190612642565b5b505050565b61266491905b80821115612660576000816000905550600101612648565b5090565b90565b60008135905061267681613827565b92915050565b60008083601f84011261268e57600080fd5b8235905067ffffffffffffffff8111156126a757600080fd5b6020830191508360208202830111156126bf57600080fd5b9250929050565b60008083601f8401126126d857600080fd5b8235905067ffffffffffffffff8111156126f157600080fd5b60208301915083602082028301111561270957600080fd5b9250929050565b60008083601f84011261272257600080fd5b8235905067ffffffffffffffff81111561273b57600080fd5b60208301915083602082028301111561275357600080fd5b9250929050565b60008083601f84011261276c57600080fd5b8235905067ffffffffffffffff81111561278557600080fd5b60208301915083602082028301111561279d57600080fd5b9250929050565b6000813590506127b38161383e565b92915050565b6000815190506127c88161383e565b92915050565b6000813590506127dd81613855565b92915050565b6000815190506127f28161386c565b92915050565b60006020828403121561280a57600080fd5b600061281884828501612667565b91505092915050565b60006020828403121561283357600080fd5b6000612841848285016127a4565b91505092915050565b6000806040838503121561285d57600080fd5b600061286b858286016127a4565b925050602061287c85828601612667565b9150509250929050565b60008060008060008060006080888a0312156128a157600080fd5b60006128af8a828b016127a4565b975050602088013567ffffffffffffffff8111156128cc57600080fd5b6128d88a828b016126c6565b9650965050604088013567ffffffffffffffff8111156128f757600080fd5b6129038a828b016126c6565b9450945050606088013567ffffffffffffffff81111561292257600080fd5b61292e8a828b0161267c565b925092505092959891949750929550565b600080600080600080600080600060a08a8c03121561295d57600080fd5b600061296b8c828d016127a4565b99505060208a013567ffffffffffffffff81111561298857600080fd5b6129948c828d016126c6565b985098505060408a013567ffffffffffffffff8111156129b357600080fd5b6129bf8c828d0161275a565b965096505060608a013567ffffffffffffffff8111156129de57600080fd5b6129ea8c828d0161275a565b945094505060808a013567ffffffffffffffff811115612a0957600080fd5b612a158c828d01612710565b92509250509295985092959850929598565b60008060408385031215612a3a57600080fd5b6000612a48858286016127a4565b9250506020612a59858286016127a4565b9150509250929050565b600080600060608486031215612a7857600080fd5b6000612a86868287016127a4565b9350506020612a97868287016127a4565b9250506040612aa886828701612667565b9150509250925092565b600080600060608486031215612ac757600080fd5b6000612ad5868287016127a4565b9350506020612ae6868287016127a4565b9250506040612af7868287016127a4565b9150509250925092565b600080600060608486031215612b1657600080fd5b6000612b24868287016127a4565b9350506020612b35868287016127a4565b9250506040612b46868287016127ce565b9150509250925092565b600080600060608486031215612b6557600080fd5b6000612b73868287016127b9565b9350506020612b84868287016127b9565b9250506040612b95868287016127e3565b9150509250925092565b60008060408385031215612bb257600080fd5b6000612bc0858286016127a4565b9250506020612bd1858286016127ce565b9150509250929050565b6000612be78383612c0b565b60208301905092915050565b6000612bff83836132a6565b60208301905092915050565b612c14816137b2565b82525050565b612c23816137b2565b82525050565b6000612c3482613744565b612c3e8185613774565b9350612c4983613724565b8060005b83811015612c7a578151612c618882612bdb565b9750612c6c8361375a565b925050600181019050612c4d565b5085935050505092915050565b6000612c928261374f565b612c9c8185613785565b9350612ca783613734565b8060005b83811015612cd8578151612cbf8882612bf3565b9750612cca83613767565b925050600181019050612cab565b5085935050505092915050565b612cee816137c4565b82525050565b612d05612d00826137c4565b613813565b82525050565b6000612d18601583613796565b91507f536f7572636520616c72656164792065786973747300000000000000000000006000830152602082019050919050565b6000612d58601d83613796565b91507f5072696365206d757374206265206e65776572207468616e206c6173740000006000830152602082019050919050565b6000612d98601c836137a7565b91507f19457468657265756d205369676e6564204d6573736167653a0a3332000000006000830152601c82019050919050565b6000612dd8603d83613796565b91507f50726963652074696d657374616d702063616e6e6f74206265206d6f7265207460008301527f68616e2035206d696e7574657320616674657220626c6f636b74696d650000006020830152604082019050919050565b6000612e3e601983613796565b91507f4d61726b65744665656420616c726561647920657869737473000000000000006000830152602082019050919050565b6000612e7e601b83613796565b91507f5369676e617475726520627920696e76616c696420736f7572636500000000006000830152602082019050919050565b6000612ebe601483613796565b91507f6d696e206d75737420626520706f7369746976650000000000000000000000006000830152602082019050919050565b6000612efe602383613796565b91507f496e707574206c69737473206d757374206265206f6620657175616c206c656e60008301527f67746800000000000000000000000000000000000000000000000000000000006020830152604082019050919050565b6000612f64601383613796565b91507f756e617574686f72697a656420726561646572000000000000000000000000006000830152602082019050919050565b6000612fa4601a83613796565b91507f52656163686564206d6178206f662035313120736f75726365730000000000006000830152602082019050919050565b6000612fe4601583613796565b91507f536f7572636520616c7265616479207369676e656400000000000000000000006000830152602082019050919050565b6000613024601283613796565b91507f536f757263652063616e6e6f74206265203000000000000000000000000000006000830152602082019050919050565b6000613064601383613796565b91507f4c697374206d75737420626520736f72746564000000000000000000000000006000830152602082019050919050565b60006130a4601d83613796565b91507f496e76616c696420736f7572636520666f72206d61726b6574466565640000006000830152602082019050919050565b60006130e4601283613796565b91507f4e6f7420656e6f75676820736f757263657300000000000000000000000000006000830152602082019050919050565b6000613124600d83613796565b91507f4e6f20636f6e74726163742030000000000000000000000000000000000000006000830152602082019050919050565b6000613164601c83613796565b91507f496e76616c6964206d61726b657420494420666f7220736f75726365000000006000830152602082019050919050565b60006131a4601283613796565b91507f496e76616c6964207072696365206665656400000000000000000000000000006000830152602082019050919050565b60006131e4601983613796565b91507f4d757374207265717569726520203e203020736f7572636573000000000000006000830152602082019050919050565b6000613224600b83613796565b91507f4e6f207369676e657220300000000000000000000000000000000000000000006000830152602082019050919050565b6000613264600d83613796565b91507f6e6f742061206d616e61676572000000000000000000000000000000000000006000830152602082019050919050565b6132a0816137ce565b82525050565b6132af816137fc565b82525050565b6132be816137fc565b82525050565b6132d56132d0826137fc565b61381d565b82525050565b6132e481613806565b82525050565b60006132f582612d8b565b91506133018284612cf4565b60208201915081905092915050565b600061331c82866132c4565b60208201915061332c82856132c4565b60208201915061333c8284612cf4565b602082019150819050949350505050565b60006020820190506133626000830184612c1a565b92915050565b600060208201905061337d6000830184612ce5565b92915050565b60006060820190506133986000830186612ce5565b6133a56020830185613297565b6133b260408301846132b5565b949350505050565b60006080820190506133cf6000830187612ce5565b6133dc60208301866132db565b6133e96040830185612ce5565b6133f66060830184612ce5565b95945050505050565b6000602082019050818103600083015261341881612d0b565b9050919050565b6000602082019050818103600083015261343881612d4b565b9050919050565b6000602082019050818103600083015261345881612dcb565b9050919050565b6000602082019050818103600083015261347881612e31565b9050919050565b6000602082019050818103600083015261349881612e71565b9050919050565b600060208201905081810360008301526134b881612eb1565b9050919050565b600060208201905081810360008301526134d881612ef1565b9050919050565b600060208201905081810360008301526134f881612f57565b9050919050565b6000602082019050818103600083015261351881612f97565b9050919050565b6000602082019050818103600083015261353881612fd7565b9050919050565b6000602082019050818103600083015261355881613017565b9050919050565b6000602082019050818103600083015261357881613057565b9050919050565b6000602082019050818103600083015261359881613097565b9050919050565b600060208201905081810360008301526135b8816130d7565b9050919050565b600060208201905081810360008301526135d881613117565b9050919050565b600060208201905081810360008301526135f881613157565b9050919050565b6000602082019050818103600083015261361881613197565b9050919050565b60006020820190508181036000830152613638816131d7565b9050919050565b6000602082019050818103600083015261365881613217565b9050919050565b6000602082019050818103600083015261367881613257565b9050919050565b600060208201905061369460008301846132b5565b92915050565b60006080820190506136af60008301876132b5565b6136bc60208301866132b5565b81810360408301526136ce8185612c29565b905081810360608301526136e28184612c87565b905095945050505050565b600060608201905061370260008301866132b5565b61370f60208301856132b5565b61371c60408301846132b5565b949350505050565b6000819050602082019050919050565b6000819050602082019050919050565b600081519050919050565b600081519050919050565b6000602082019050919050565b6000602082019050919050565b600082825260208201905092915050565b600082825260208201905092915050565b600082825260208201905092915050565b600081905092915050565b60006137bd826137dc565b9050919050565b6000819050919050565b600061ffff82169050919050565b600073ffffffffffffffffffffffffffffffffffffffff82169050919050565b6000819050919050565b600060ff82169050919050565b6000819050919050565b6000819050919050565b613830816137b2565b811461383b57600080fd5b50565b613847816137c4565b811461385257600080fd5b50565b61385e816137fc565b811461386957600080fd5b50565b61387581613806565b811461388057600080fd5b5056fea365627a7a723058201116f7aa3e289dd89eb2224c9c025db65dc8a46dfdbd3a526a5c644c20af11ba6c6578706572696d656e74616cf564736f6c634300050a0040",
  "source": "pragma solidity ^0.5.0;\npragma experimental ABIEncoderV2; // Needed for using bytes[] parameter type.\n\ncontract OpenMarketFeed {\n  struct MarketFeedSource {\n    bytes32 marketId;\n  }\n\n  // Anyone can create a new MarketFeed with `createMarketFeed()`.\n  // Only the managers of a MarketFeed can edit parameters (whitelists and config) of the marketFeed.\n  // Anyone can post updates to the marketFeed data with `post()`, but the data is only accepted if it meets the marketFeed's configured criteria.\n  struct MarketFeedConfig {\n    bytes32 marketId;\n    mapping (bytes32 => bytes32) sourceToMarketId;\n\n    // Whitelists, all editable only by managers\n    mapping (bytes32 => address[]) sourceToSigners;\n    mapping (address => bytes32) signerToSource;\n\n    mapping (bytes32 => uint16) sourceToId;\n    mapping (uint16 => bytes32) idToSource;\n    // Source IDs are assigned in incrementing order in a packed manner in the range [1, 511].\n    // If a source is deleted, the last source is reassigned its ID and the last source ID is freed up.\n    uint16 lastSourceId;\n\n    mapping (address => bool) readers;\n    mapping (address => bool) managers;\n\n    uint256 minRequiredSources;\n  }\n\n  struct MarketFeedData {\n    // Last accepted data\n    uint256 price;\n    // uint256[] rawPrices;\n    uint256 blockTime;\n    uint256 epochTime;\n  }\n\n  /*************** State attributes ***************/\n\n  // A map from marketFeed name to MarketFeed.\n  mapping (bytes32 => MarketFeedConfig) public marketFeeds_config;\n  mapping (bytes32 => MarketFeedData) marketFeeds_data;\n\n  /*************** Emitted Events *****************/\n\n  // when a market feed is created\n  event MarketFeedCreation(\n    address indexed manager,\n    bytes32 indexed marketFeed,\n    uint256 minRequiredSources\n  );\n\n  // when an existing manager adds a new manager\n  event ManagerAddition(\n    address indexed manager,\n    bytes32 indexed marketFeed,\n    address indexed newManager\n  );\n\n  // when an existing manager removes a existing manager\n  event ManagerRemoval(\n    address indexed manager,\n    bytes32 indexed marketFeed,\n    address indexed firedManager\n  );\n\n  // when a source is added\n  event SourceAddition(\n    address indexed manager,\n    bytes32 indexed marketFeed,\n    bytes32 indexed source,\n    bytes32 sourceMarketId\n  );\n\n  // when a source is removed\n  event SourceRemoval(\n    address indexed manager,\n    bytes32 indexed marketFeed,\n    bytes32 indexed source\n  );\n\n  // when a signer is added\n  event SignerAddition(\n    address indexed manager,\n    bytes32 indexed marketFeed,\n    bytes32 indexed source,\n    address signer\n  );\n\n  // when a signer is removed\n  event SignerRemoval(\n    address indexed manager,\n    bytes32 indexed marketFeed,\n    bytes32 indexed source,\n    address signer\n  );\n\n  // when a reader is added\n  event ReaderAddition(\n    address indexed manager,\n    bytes32 indexed marketFeed,\n    address indexed newReader\n  );\n\n  // when a reader is removed\n  event ReaderRemoval(\n    address indexed manager,\n    bytes32 indexed marketFeed,\n    address indexed firedReader\n  );\n\n  // when min required sources is updated\n  event MinRequiredSourcesUpdated(\n    address indexed manager,\n    bytes32 indexed marketFeed,\n    uint256 newMin\n  );\n\n  // when a valid source reports a price\n  event SignerReported(\n    bytes32 indexed marketFeed,\n    address indexed signerAddress,\n    uint256 price,\n    uint256 epochTime\n  );\n\n  // when contract writes a median price\n  event MedianPriceWritten(\n    address indexed reporterAddress,\n    bytes32 indexed marketFeed,\n    uint256 price,\n    uint256 epochTime,\n    address[] signerAddresses,\n    uint256[] signerPrices\n  );\n\n  /*********************** Modifiers *******************/\n\n  modifier managersOnly(bytes32 marketFeed) {\n    require(marketFeeds_config[marketFeed].managers[msg.sender], 'not a manager');\n    _;\n  }\n\n  modifier readersOnly(bytes32 marketFeed) {\n    require(marketFeeds_config[marketFeed].readers[msg.sender], \"unauthorized reader\");\n    _;\n  }\n\n  /*********************** Public methods *******************/\n\n  constructor() public {}\n\n  /*********************** External methods *******************/\n\n  // Posts a new sorted price list for a marketFeed.\n  function post(bytes32 marketFeed, bytes32[] calldata marketIds, uint256[] calldata prices, uint256[] calldata epochTime,\n      bytes[] calldata signatures) external {\n    checkAcceptablePrice(marketFeed, prices, epochTime);\n\n    MarketFeedConfig storage m = marketFeeds_config[marketFeed];\n    require(prices.length >= m.minRequiredSources, \"Not enough sources\");\n\n    // 512-bit vector to keep track of sources.\n    // Each ID goes into a single slot in the 2 block vector of [bloom1, bloom0].\n    // IDs are in [1, 511].\n    uint256 bloom1 = 0;\n    uint256 bloom0 = 0;\n\n    address[] memory signers = new address[](prices.length);\n\n    for (uint i = 0; i < prices.length; i++) {\n      // Check that signer is authorized.\n      address signer = recover(marketIds[i], prices[i], epochTime[i], signatures[i]);\n      signers[i] = signer;\n\n      bytes32 source = m.signerToSource[signer];\n      require(source != 0, \"Signature by invalid source\");\n      require(m.sourceToMarketId[source] == marketIds[i], \"Invalid market ID for source\");\n\n      // emit SignerReported(marketFeed, signer, prices[i], epochTime[i]);\n\n      uint16 sourceId = m.sourceToId[m.signerToSource[signer]] - 1;\n      if (sourceId <= 255) {\n        uint8 slot = uint8(sourceId); // Lower byte\n        require((bloom0 >> slot) % 2 == 0, \"Source already signed\");\n        bloom0 += uint256(2) ** slot;\n      } else {\n        uint8 slot = uint8(sourceId >> 8); // Upper byte\n        require((bloom1 >> slot) % 2 == 0, \"Source already signed\");\n        bloom1 += uint256(2) ** slot;\n      }\n    }\n\n    acceptPrice(marketFeed, marketIds, signers, prices, epochTime);\n  }\n\n  function getPrice(bytes32 marketFeed) external view readersOnly(marketFeed) returns (uint256) {\n    require(marketFeeds_data[marketFeed].price > 0, \"Invalid price feed\");\n    return marketFeeds_data[marketFeed].price;\n  }\n\n  function getPriceAndTime(bytes32 marketFeed) external view readersOnly(marketFeed)\n      returns (uint256 price, uint256 blockTime, uint256 epochTime) {\n    MarketFeedData storage m = marketFeeds_data[marketFeed];\n    require(m.price > 0, \"Invalid price feed\");\n    return (m.price, m.blockTime, m.epochTime);\n  }\n\n  // function getRawPrices(bytes32 marketFeed) external view readersOnly(marketFeed) returns (uint256[] memory) {\n  //   require(marketFeeds_data[marketFeed].price > 0, \"Invalid price feed\");\n  //   return marketFeeds_data[marketFeed].rawPrices;\n  // }\n\n  // Initializes a new MarketFeed with the sender as the sole manager and reader.\n  function createMarketFeed(bytes32 name, bytes32 marketId, uint256 minRequiredSources) external {\n    require(marketFeeds_config[name].minRequiredSources == 0, \"MarketFeed already exists\");\n    require(minRequiredSources > 0, \"Must require  > 0 sources\");\n    marketFeeds_config[name].marketId = marketId;\n    marketFeeds_config[name].managers[msg.sender] = true;\n    marketFeeds_config[name].readers[msg.sender] = true;\n    marketFeeds_config[name].minRequiredSources = minRequiredSources;\n\n    emit MarketFeedCreation(msg.sender, name, minRequiredSources);\n  }\n\n  function addManager(bytes32 marketFeed, address m) external managersOnly(marketFeed) {\n    marketFeeds_config[marketFeed].managers[m] = true;\n\n    emit ManagerAddition(msg.sender, marketFeed, m);\n  }\n\n  function removeManager(bytes32 marketFeed, address m) external managersOnly(marketFeed) {\n    marketFeeds_config[marketFeed].managers[m] = false;\n\n    emit ManagerRemoval(msg.sender, marketFeed, m);\n  }\n\n  function addSource(bytes32 marketFeed, bytes32 src, bytes32 sourceMarketId) public managersOnly(marketFeed) {\n    require(src != 0, \"Source cannot be 0\");\n    MarketFeedConfig storage m = marketFeeds_config[marketFeed];\n    require(m.sourceToId[src] == 0, \"Source already exists\");\n    require(m.lastSourceId < 512, \"Reached max of 511 sources\");\n    m.lastSourceId++;\n    m.sourceToId[src] = marketFeeds_config[marketFeed].lastSourceId;\n    m.idToSource[m.lastSourceId] = src;\n    m.sourceToMarketId[src] = sourceMarketId;\n\n    emit SourceAddition(msg.sender, marketFeed, src, sourceMarketId);\n  }\n\n  function removeSource(bytes32 marketFeed, bytes32 src) public managersOnly(marketFeed) {\n    MarketFeedConfig storage m = marketFeeds_config[marketFeed];\n\n    // Reassign source in last slot to take the removed source's ID.\n    uint16 idToReassign = m.sourceToId[src];\n    bytes32 lastSource = m.idToSource[m.lastSourceId];\n\n    m.sourceToId[src] = 0;\n    m.idToSource[m.lastSourceId] = 0;\n\n    m.sourceToId[lastSource] = idToReassign;\n    m.idToSource[idToReassign] = lastSource;\n\n    // Delete source's signers.\n    address[] storage signersToDelete = m.sourceToSigners[src];\n    for (uint i = 0; i < signersToDelete.length; i++) {\n      address signer = signersToDelete[i];\n      delete m.signerToSource[signer];\n    }\n    delete m.sourceToSigners[src];\n\n    m.lastSourceId--;\n\n    emit SourceRemoval(msg.sender, marketFeed, src);\n  }\n\n  function addSigner(bytes32 marketFeed, bytes32 src, address signer) public managersOnly(marketFeed) {\n    require(signer != address(0), \"No signer 0\");\n\n    MarketFeedConfig storage m = marketFeeds_config[marketFeed];\n    require(m.sourceToId[src] != 0, \"Invalid source for marketFeed\");\n    m.signerToSource[signer] = src;\n    m.sourceToSigners[src].push(signer);\n\n    emit SignerAddition(msg.sender, marketFeed, src, signer);\n  }\n\n  function removeSigner(bytes32 marketFeed, address signer) external managersOnly(marketFeed) {\n    MarketFeedConfig storage m = marketFeeds_config[marketFeed];\n    bytes32 src = m.signerToSource[signer];\n    address[] storage sourcesSigners = m.sourceToSigners[src];\n\n    for (uint i = 0; i < sourcesSigners.length; i++) {\n      if (sourcesSigners[i] == signer) {\n        sourcesSigners[i] = sourcesSigners[sourcesSigners.length - 1];\n        sourcesSigners.length--;\n        break;\n      }\n    }\n    delete m.signerToSource[signer];\n\n    emit SignerRemoval(msg.sender, marketFeed, src, signer);\n  }\n\n  // Convenience function for adding sources and signers at the same time.\n  // Adds source if it doesn't exist yet.\n  function batchAddSourceAndSigner(\n    bytes32 marketFeed,\n    bytes32[] calldata sources,\n    bytes32[] calldata sourceMarketIds,\n    address[] calldata signers\n  ) external managersOnly(marketFeed) {\n    require(sources.length == sourceMarketIds.length && sources.length == signers.length, \"Input lists must be of equal length\");\n    for (uint i = 0; i < sources.length; i++) {\n      if (marketFeeds_config[marketFeed].sourceToId[sources[i]] == 0) {\n        addSource(marketFeed, sources[i], sourceMarketIds[i]);\n      }\n      addSigner(marketFeed, sources[i], signers[i]);\n    }\n  }\n\n  function setMinRequiredSources(bytes32 marketFeed, uint256 newMin) external managersOnly(marketFeed) {\n    require(newMin > 0, \"min must be positive\");\n    marketFeeds_config[marketFeed].minRequiredSources = newMin;\n\n    emit MinRequiredSourcesUpdated(msg.sender, marketFeed, newMin);\n  }\n\n  function addReader(bytes32 marketFeed, address r) external managersOnly(marketFeed) {\n    require (r != address(0), \"No contract 0\");\n    marketFeeds_config[marketFeed].readers[r] = true;\n\n    emit ReaderAddition(msg.sender, marketFeed, r);\n  }\n\n  function removeReader(bytes32 marketFeed, address r) external managersOnly(marketFeed) {\n    marketFeeds_config[marketFeed].readers[r] = false;\n\n    emit ReaderRemoval(msg.sender, marketFeed, r);\n  }\n\n  /*********************** Internal methods *******************/\n\n  function checkAcceptablePrice(bytes32 marketFeed, uint256[] memory prices, uint256[] memory epochTime) internal view {\n    uint256 prevPrice = 0;\n    uint256 lastUpdatedTime = marketFeeds_data[marketFeed].epochTime;\n\n    for (uint i = 0; i < prices.length; i++) {\n        require(epochTime[i] > lastUpdatedTime, \"Price must be newer than last\");\n        require(\n          epochTime[i] < (block.timestamp + 300),\n          \"Price timestamp cannot be more than 5 minutes after blocktime\"\n        );\n        require(prices[i] >= prevPrice, \"List must be sorted\");\n        prevPrice = prices[i];\n    }\n  }\n\n  // Recovers the signer of the marketFeed price data.\n  function recover(bytes32 marketId, uint256 price, uint256 time, bytes memory signature) internal pure returns (address) {\n    (bytes32 r, bytes32 s, uint8 v) = abi.decode(signature, (bytes32, bytes32, uint8));\n    return ecrecover(\n        keccak256(abi.encodePacked(\"\\x19Ethereum Signed Message:\\n32\", keccak256(abi.encodePacked(price, time, marketId)))),\n        v, r, s\n    );\n  }\n\n  // @dev This function was split out of `post()` due to stack variable count limitations.\n  function acceptPrice(\n    bytes32 marketFeed,\n    bytes32[] memory marketIds,\n    address[] memory signers,\n    uint256[] memory prices,\n    uint256[] memory epochTime\n  ) internal {\n\n    // Set price to median.\n    uint256 medianPrice;\n    uint256 medianEpochTime;\n    uint256 midPoint = prices.length >> 1;\n\n    if (prices.length % 2 == 0) {\n      if (block.number % 2 == 0) {\n        // lower price of middle two\n        medianPrice = prices[midPoint - 1];\n        medianEpochTime = epochTime[midPoint - 1];\n      } else {\n        // higher price of middle two\n        medianPrice = prices[midPoint];\n        medianEpochTime = epochTime[midPoint];\n      }\n    } else {\n      medianPrice = prices[midPoint];\n      medianEpochTime = epochTime[midPoint];\n    }\n\n    marketFeeds_data[marketFeed].price = medianPrice;\n    marketFeeds_data[marketFeed].epochTime = medianEpochTime;\n\n    marketFeeds_data[marketFeed].blockTime = block.timestamp;\n\n    emit MedianPriceWritten(\n      msg.sender,\n      marketFeed,\n      marketFeeds_data[marketFeed].price,\n      marketFeeds_data[marketFeed].epochTime,\n      signers,\n      prices\n    );\n  }\n}\n",
  "sourcePath": "/Users/sendrecv/sproj/dirtoracle/contracts/OpenMarketFeed.sol",
  "compiler": {
    "name": "solc",
    "version": "0.5.10+commit.5a6ea5b1.Emscripten.clang"
  },
  "schemaVersion": "3.0.8",
  "updatedAt": "2019-08-02T21:09:59.973Z",
  "devdoc": {
    "methods": {}
  },
  "userdoc": {
    "methods": {
      "constructor": "********************* Public methods ******************",
      "post(bytes32,bytes32[],uint256[],uint256[],bytes[])": {
        "notice": "********************* External methods ******************"
      }
    }
  }
}