{
  "contractName": "OpenMarketFeed",
  "abi": [
    {
      "inputs": [],
      "payable": false,
      "stateMutability": "nonpayable",
      "type": "constructor"
    },
    {
      "anonymous": false,
      "inputs": [
        {
          "indexed": true,
          "name": "manager",
          "type": "address"
        },
        {
          "indexed": true,
          "name": "marketFeed",
          "type": "bytes32"
        },
        {
          "indexed": false,
          "name": "minRequiredSources",
          "type": "uint16"
        }
      ],
      "name": "MarketFeedCreation",
      "type": "event"
    },
    {
      "anonymous": false,
      "inputs": [
        {
          "indexed": true,
          "name": "manager",
          "type": "address"
        },
        {
          "indexed": true,
          "name": "marketFeed",
          "type": "bytes32"
        },
        {
          "indexed": true,
          "name": "newManager",
          "type": "address"
        }
      ],
      "name": "ManagerAddition",
      "type": "event"
    },
    {
      "anonymous": false,
      "inputs": [
        {
          "indexed": true,
          "name": "manager",
          "type": "address"
        },
        {
          "indexed": true,
          "name": "marketFeed",
          "type": "bytes32"
        },
        {
          "indexed": true,
          "name": "firedManager",
          "type": "address"
        }
      ],
      "name": "ManagerRemoval",
      "type": "event"
    },
    {
      "anonymous": false,
      "inputs": [
        {
          "indexed": true,
          "name": "manager",
          "type": "address"
        },
        {
          "indexed": true,
          "name": "marketFeed",
          "type": "bytes32"
        },
        {
          "indexed": true,
          "name": "source",
          "type": "bytes32"
        },
        {
          "indexed": false,
          "name": "sourceMarketId",
          "type": "bytes32"
        }
      ],
      "name": "SourceAddition",
      "type": "event"
    },
    {
      "anonymous": false,
      "inputs": [
        {
          "indexed": true,
          "name": "manager",
          "type": "address"
        },
        {
          "indexed": true,
          "name": "marketFeed",
          "type": "bytes32"
        },
        {
          "indexed": true,
          "name": "source",
          "type": "bytes32"
        }
      ],
      "name": "SourceRemoval",
      "type": "event"
    },
    {
      "anonymous": false,
      "inputs": [
        {
          "indexed": true,
          "name": "manager",
          "type": "address"
        },
        {
          "indexed": true,
          "name": "marketFeed",
          "type": "bytes32"
        },
        {
          "indexed": true,
          "name": "source",
          "type": "bytes32"
        },
        {
          "indexed": false,
          "name": "signer",
          "type": "address"
        }
      ],
      "name": "SignerAddition",
      "type": "event"
    },
    {
      "anonymous": false,
      "inputs": [
        {
          "indexed": true,
          "name": "manager",
          "type": "address"
        },
        {
          "indexed": true,
          "name": "marketFeed",
          "type": "bytes32"
        },
        {
          "indexed": true,
          "name": "source",
          "type": "bytes32"
        },
        {
          "indexed": false,
          "name": "signer",
          "type": "address"
        }
      ],
      "name": "SignerRemoval",
      "type": "event"
    },
    {
      "anonymous": false,
      "inputs": [
        {
          "indexed": true,
          "name": "manager",
          "type": "address"
        },
        {
          "indexed": true,
          "name": "marketFeed",
          "type": "bytes32"
        },
        {
          "indexed": true,
          "name": "newReader",
          "type": "address"
        }
      ],
      "name": "ReaderAddition",
      "type": "event"
    },
    {
      "anonymous": false,
      "inputs": [
        {
          "indexed": true,
          "name": "manager",
          "type": "address"
        },
        {
          "indexed": true,
          "name": "marketFeed",
          "type": "bytes32"
        },
        {
          "indexed": true,
          "name": "firedReader",
          "type": "address"
        }
      ],
      "name": "ReaderRemoval",
      "type": "event"
    },
    {
      "anonymous": false,
      "inputs": [
        {
          "indexed": true,
          "name": "manager",
          "type": "address"
        },
        {
          "indexed": true,
          "name": "marketFeed",
          "type": "bytes32"
        },
        {
          "indexed": false,
          "name": "newMin",
          "type": "uint16"
        }
      ],
      "name": "MinRequiredSourcesUpdated",
      "type": "event"
    },
    {
      "anonymous": false,
      "inputs": [
        {
          "indexed": false,
          "name": "manager",
          "type": "address"
        },
        {
          "indexed": false,
          "name": "marketFeed",
          "type": "bytes32"
        },
        {
          "indexed": false,
          "name": "isFree",
          "type": "bool"
        }
      ],
      "name": "IsFreeUpdated",
      "type": "event"
    },
    {
      "anonymous": false,
      "inputs": [
        {
          "indexed": true,
          "name": "marketFeed",
          "type": "bytes32"
        },
        {
          "indexed": true,
          "name": "signerAddress",
          "type": "address"
        },
        {
          "indexed": false,
          "name": "value",
          "type": "int128"
        },
        {
          "indexed": false,
          "name": "epochTime",
          "type": "uint256"
        }
      ],
      "name": "SignerReported",
      "type": "event"
    },
    {
      "anonymous": false,
      "inputs": [
        {
          "indexed": true,
          "name": "reporterAddress",
          "type": "address"
        },
        {
          "indexed": true,
          "name": "marketFeed",
          "type": "bytes32"
        },
        {
          "indexed": false,
          "name": "value",
          "type": "int128"
        },
        {
          "indexed": false,
          "name": "epochTime",
          "type": "uint256"
        },
        {
          "indexed": false,
          "name": "signerAddresses",
          "type": "address[]"
        },
        {
          "indexed": false,
          "name": "signerValues",
          "type": "int128[]"
        }
      ],
      "name": "MedianValueWritten",
      "type": "event"
    },
    {
      "constant": false,
      "inputs": [
        {
          "name": "marketFeed",
          "type": "bytes32"
        },
        {
          "name": "marketIds",
          "type": "bytes32[]"
        },
        {
          "name": "values",
          "type": "int128[]"
        },
        {
          "name": "epochTime",
          "type": "uint256[]"
        },
        {
          "name": "signatures",
          "type": "bytes[]"
        }
      ],
      "name": "post",
      "outputs": [],
      "payable": false,
      "stateMutability": "nonpayable",
      "type": "function"
    },
    {
      "constant": true,
      "inputs": [
        {
          "name": "marketFeed",
          "type": "bytes32"
        }
      ],
      "name": "getValue",
      "outputs": [
        {
          "name": "",
          "type": "int128"
        }
      ],
      "payable": false,
      "stateMutability": "view",
      "type": "function"
    },
    {
      "constant": true,
      "inputs": [
        {
          "name": "marketFeed",
          "type": "bytes32"
        }
      ],
      "name": "getValueAndTime",
      "outputs": [
        {
          "name": "value",
          "type": "int128"
        },
        {
          "name": "blockTime",
          "type": "uint256"
        },
        {
          "name": "epochTime",
          "type": "uint256"
        }
      ],
      "payable": false,
      "stateMutability": "view",
      "type": "function"
    },
    {
      "constant": false,
      "inputs": [
        {
          "name": "name",
          "type": "bytes32"
        },
        {
          "name": "minRequiredSources",
          "type": "uint16"
        },
        {
          "name": "isFree",
          "type": "bool"
        }
      ],
      "name": "createMarketFeed",
      "outputs": [],
      "payable": false,
      "stateMutability": "nonpayable",
      "type": "function"
    },
    {
      "constant": false,
      "inputs": [
        {
          "name": "marketFeed",
          "type": "bytes32"
        },
        {
          "name": "m",
          "type": "address"
        }
      ],
      "name": "addManager",
      "outputs": [],
      "payable": false,
      "stateMutability": "nonpayable",
      "type": "function"
    },
    {
      "constant": false,
      "inputs": [
        {
          "name": "marketFeed",
          "type": "bytes32"
        },
        {
          "name": "m",
          "type": "address"
        }
      ],
      "name": "removeManager",
      "outputs": [],
      "payable": false,
      "stateMutability": "nonpayable",
      "type": "function"
    },
    {
      "constant": false,
      "inputs": [
        {
          "name": "marketFeed",
          "type": "bytes32"
        },
        {
          "name": "src",
          "type": "bytes32"
        },
        {
          "name": "sourceMarketId",
          "type": "bytes32"
        }
      ],
      "name": "addSource",
      "outputs": [],
      "payable": false,
      "stateMutability": "nonpayable",
      "type": "function"
    },
    {
      "constant": false,
      "inputs": [
        {
          "name": "marketFeed",
          "type": "bytes32"
        },
        {
          "name": "src",
          "type": "bytes32"
        }
      ],
      "name": "removeSource",
      "outputs": [],
      "payable": false,
      "stateMutability": "nonpayable",
      "type": "function"
    },
    {
      "constant": false,
      "inputs": [
        {
          "name": "marketFeed",
          "type": "bytes32"
        },
        {
          "name": "src",
          "type": "bytes32"
        },
        {
          "name": "signer",
          "type": "address"
        }
      ],
      "name": "addSigner",
      "outputs": [],
      "payable": false,
      "stateMutability": "nonpayable",
      "type": "function"
    },
    {
      "constant": false,
      "inputs": [
        {
          "name": "marketFeed",
          "type": "bytes32"
        },
        {
          "name": "signer",
          "type": "address"
        }
      ],
      "name": "removeSigner",
      "outputs": [],
      "payable": false,
      "stateMutability": "nonpayable",
      "type": "function"
    },
    {
      "constant": false,
      "inputs": [
        {
          "name": "marketFeed",
          "type": "bytes32"
        },
        {
          "name": "sources",
          "type": "bytes32[]"
        },
        {
          "name": "sourceMarketIds",
          "type": "bytes32[]"
        },
        {
          "name": "signers",
          "type": "address[]"
        }
      ],
      "name": "batchAddSourceAndSigner",
      "outputs": [],
      "payable": false,
      "stateMutability": "nonpayable",
      "type": "function"
    },
    {
      "constant": false,
      "inputs": [
        {
          "name": "marketFeed",
          "type": "bytes32"
        },
        {
          "name": "newMin",
          "type": "uint16"
        }
      ],
      "name": "setMinRequiredSources",
      "outputs": [],
      "payable": false,
      "stateMutability": "nonpayable",
      "type": "function"
    },
    {
      "constant": false,
      "inputs": [
        {
          "name": "marketFeed",
          "type": "bytes32"
        },
        {
          "name": "isFree",
          "type": "bool"
        }
      ],
      "name": "setIsFree",
      "outputs": [],
      "payable": false,
      "stateMutability": "nonpayable",
      "type": "function"
    },
    {
      "constant": false,
      "inputs": [
        {
          "name": "marketFeed",
          "type": "bytes32"
        },
        {
          "name": "r",
          "type": "address"
        }
      ],
      "name": "addReader",
      "outputs": [],
      "payable": false,
      "stateMutability": "nonpayable",
      "type": "function"
    },
    {
      "constant": false,
      "inputs": [
        {
          "name": "marketFeed",
          "type": "bytes32"
        },
        {
          "name": "r",
          "type": "address"
        }
      ],
      "name": "removeReader",
      "outputs": [],
      "payable": false,
      "stateMutability": "nonpayable",
      "type": "function"
    }
  ],
  "bytecode": "0x608060405234801561001057600080fd5b50614244806100206000396000f3fe608060405234801561001057600080fd5b50600436106100f55760003560e01c8063b0b052c211610097578063f3bf4f3111610066578063f3bf4f3114610242578063f9aa153a14610274578063f9f64b8714610290578063fcb58b11146102ac576100f5565b8063b0b052c2146101d2578063b21aa96c146101ee578063ec3a60da1461020a578063edf8429914610226576100f5565b806369843940116100d3578063698439401461014e5780638a30ad931461017e5780638d5fbf811461019a5780639da1e7fc146101b6576100f5565b80631ed9d1a9146100fa5780634a07d97e14610116578063683f303a14610132575b600080fd5b610114600480360361010f9190810190612d6c565b6102c8565b005b610130600480360361012b9190810190612f85565b61055c565b005b61014c60048036036101479190810190612d30565b6108e5565b005b61016860048036036101639190810190612d07565b610ac0565b6040516101759190613be6565b60405180910390f35b61019860048036036101939190810190612d30565b610bbc565b005b6101b460048036036101af9190810190612f0d565b610d97565b005b6101d060048036036101cb9190810190612f49565b610ea4565b005b6101ec60048036036101e79190810190612d30565b6111d1565b005b61020860048036036102039190810190612d30565b61133c565b005b610224600480360361021f91908101906130ae565b611546565b005b610240600480360361023b9190810190612e25565b61177f565b005b61025c60048036036102579190810190612d07565b611cfe565b60405161026b93929190613c54565b60405180910390f35b61028e60048036036102899190810190613072565b611e13565b005b6102aa60048036036102a59190810190612fd4565b611fc6565b005b6102c660048036036102c19190810190612d30565b612354565b005b8660008082815260200190815260200160002060070160003373ffffffffffffffffffffffffffffffffffffffff1673ffffffffffffffffffffffffffffffffffffffff16815260200190815260200160002060009054906101000a900460ff16610368576040517f08c379a000000000000000000000000000000000000000000000000000000000815260040161035f90613fcb565b60405180910390fd5b848490508787905014801561038257508282905087879050145b6103c1576040517f08c379a00000000000000000000000000000000000000000000000000000000081526004016103b890613d6b565b60405180910390fd5b6000878790501415610408576040517f08c379a00000000000000000000000000000000000000000000000000000000081526004016103ff90613e4b565b60405180910390fd5b60008060008a815260200190815260200160002060080160009054906101000a900461ffff1661ffff161415610473576040517f08c379a000000000000000000000000000000000000000000000000000000000815260040161046a90613d4b565b60405180910390fd5b60008090505b878790508110156105515760008060008b815260200190815260200160002060030160008a8a858181106104a957fe5b90506020020135815260200190815260200160002060009054906101000a900461ffff1661ffff16141561050757610506898989848181106104e757fe5b905060200201358888858181106104fa57fe5b90506020020135611fc6565b5b6105448989898481811061051757fe5b9050602002013586868581811061052a57fe5b905060200201602061053f9190810190612cde565b61055c565b8080600101915050610479565b505050505050505050565b8260008082815260200190815260200160002060070160003373ffffffffffffffffffffffffffffffffffffffff1673ffffffffffffffffffffffffffffffffffffffff16815260200190815260200160002060009054906101000a900460ff166105fc576040517f08c379a00000000000000000000000000000000000000000000000000000000081526004016105f390613fcb565b60405180910390fd5b600073ffffffffffffffffffffffffffffffffffffffff168273ffffffffffffffffffffffffffffffffffffffff16141561066c576040517f08c379a000000000000000000000000000000000000000000000000000000000815260040161066390613f8b565b60405180910390fd5b60008060008681526020019081526020016000209050600081600301600086815260200190815260200160002060009054906101000a900461ffff1661ffff1614156106ed576040517f08c379a00000000000000000000000000000000000000000000000000000000081526004016106e490613e8b565b60405180910390fd5b6000801b8160020160008573ffffffffffffffffffffffffffffffffffffffff1673ffffffffffffffffffffffffffffffffffffffff1681526020019081526020016000205414610773576040517f08c379a000000000000000000000000000000000000000000000000000000000815260040161076a90613ecb565b60405180910390fd5b60148160010160008681526020019081526020016000208054905011156107cf576040517f08c379a00000000000000000000000000000000000000000000000000000000081526004016107c690613d0b565b60405180910390fd5b838160020160008573ffffffffffffffffffffffffffffffffffffffff1673ffffffffffffffffffffffffffffffffffffffff168152602001908152602001600020819055508060010160008581526020019081526020016000208390806001815401808255809150509060018203906000526020600020016000909192909190916101000a81548173ffffffffffffffffffffffffffffffffffffffff021916908373ffffffffffffffffffffffffffffffffffffffff1602179055505083853373ffffffffffffffffffffffffffffffffffffffff167f6b1709948f0f41fbabae4f0c313418d060186480e2a2bcfb87770facec752415866040516108d69190613b34565b60405180910390a45050505050565b8160008082815260200190815260200160002060070160003373ffffffffffffffffffffffffffffffffffffffff1673ffffffffffffffffffffffffffffffffffffffff16815260200190815260200160002060009054906101000a900460ff16610985576040517f08c379a000000000000000000000000000000000000000000000000000000000815260040161097c90613fcb565b60405180910390fd5b600073ffffffffffffffffffffffffffffffffffffffff168273ffffffffffffffffffffffffffffffffffffffff1614156109f5576040517f08c379a00000000000000000000000000000000000000000000000000000000081526004016109ec90613e0b565b60405180910390fd5b600080600085815260200190815260200160002060060160008473ffffffffffffffffffffffffffffffffffffffff1673ffffffffffffffffffffffffffffffffffffffff16815260200190815260200160002060006101000a81548160ff0219169083151502179055508173ffffffffffffffffffffffffffffffffffffffff16833373ffffffffffffffffffffffffffffffffffffffff167fda84d50676cadb9cef699fb523a85e2d1179685a1d6ae1503763f1d9ae72609060405160405180910390a4505050565b600081600080600083815260200190815260200160002090508060080160029054906101000a900460ff16610b8f5760008083815260200190815260200160002060060160003373ffffffffffffffffffffffffffffffffffffffff1673ffffffffffffffffffffffffffffffffffffffff16815260200190815260200160002060009054906101000a900460ff16610b8e576040517f08c379a0000000000000000000000000000000000000000000000000000000008152600401610b8590613d8b565b60405180910390fd5b5b6001600085815260200190815260200160002060000160009054906101000a9004600f0b92505050919050565b8160008082815260200190815260200160002060070160003373ffffffffffffffffffffffffffffffffffffffff1673ffffffffffffffffffffffffffffffffffffffff16815260200190815260200160002060009054906101000a900460ff16610c5c576040517f08c379a0000000000000000000000000000000000000000000000000000000008152600401610c5390613fcb565b60405180910390fd5b600073ffffffffffffffffffffffffffffffffffffffff168273ffffffffffffffffffffffffffffffffffffffff161415610ccc576040517f08c379a0000000000000000000000000000000000000000000000000000000008152600401610cc390613f2b565b60405180910390fd5b600160008085815260200190815260200160002060060160008473ffffffffffffffffffffffffffffffffffffffff1673ffffffffffffffffffffffffffffffffffffffff16815260200190815260200160002060006101000a81548160ff0219169083151502179055508173ffffffffffffffffffffffffffffffffffffffff16833373ffffffffffffffffffffffffffffffffffffffff167ffb6475ced741683cd12211262e0dbd5fabc36be42d317f87aa9e83df7242a8fc60405160405180910390a4505050565b8160008082815260200190815260200160002060070160003373ffffffffffffffffffffffffffffffffffffffff1673ffffffffffffffffffffffffffffffffffffffff16815260200190815260200160002060009054906101000a900460ff16610e37576040517f08c379a0000000000000000000000000000000000000000000000000000000008152600401610e2e90613fcb565b60405180910390fd5b8160008085815260200190815260200160002060080160026101000a81548160ff0219169083151502179055507fe83c3bc8e2d0a141db4c6ab89d9a5ca986a4edc0bdb1a74e753265c13dc7db35338484604051610e9793929190613b4f565b60405180910390a1505050565b8160008082815260200190815260200160002060070160003373ffffffffffffffffffffffffffffffffffffffff1673ffffffffffffffffffffffffffffffffffffffff16815260200190815260200160002060009054906101000a900460ff16610f44576040517f08c379a0000000000000000000000000000000000000000000000000000000008152600401610f3b90613fcb565b60405180910390fd5b60008060008581526020019081526020016000209050600081600301600085815260200190815260200160002060009054906101000a900461ffff16905060008260040160008460050160009054906101000a900461ffff1661ffff1661ffff168152602001908152602001600020549050600083600301600087815260200190815260200160002060006101000a81548161ffff021916908361ffff1602179055506000801b8360040160008560050160009054906101000a900461ffff1661ffff1661ffff168152602001908152602001600020819055508183600301600083815260200190815260200160002060006101000a81548161ffff021916908361ffff160217905550808360040160008461ffff1661ffff168152602001908152602001600020819055506000836001016000878152602001908152602001600020905060008090505b81805490508110156111295760008282815481106110a957fe5b9060005260206000200160009054906101000a900473ffffffffffffffffffffffffffffffffffffffff1690508560020160008273ffffffffffffffffffffffffffffffffffffffff1673ffffffffffffffffffffffffffffffffffffffff1681526020019081526020016000206000905550808060010191505061108f565b50836001016000878152602001908152602001600020600061114b9190612a67565b83600501600081819054906101000a900461ffff16809291906001900391906101000a81548161ffff021916908361ffff1602179055505085873373ffffffffffffffffffffffffffffffffffffffff167fc1a9fc62b8033041c11ff0c436c83008f1e4ec6fec7db3d036a78571dfe64d1260405160405180910390a450505050505050565b8160008082815260200190815260200160002060070160003373ffffffffffffffffffffffffffffffffffffffff1673ffffffffffffffffffffffffffffffffffffffff16815260200190815260200160002060009054906101000a900460ff16611271576040517f08c379a000000000000000000000000000000000000000000000000000000000815260040161126890613fcb565b60405180910390fd5b600160008085815260200190815260200160002060070160008473ffffffffffffffffffffffffffffffffffffffff1673ffffffffffffffffffffffffffffffffffffffff16815260200190815260200160002060006101000a81548160ff0219169083151502179055508173ffffffffffffffffffffffffffffffffffffffff16833373ffffffffffffffffffffffffffffffffffffffff167f2596a56cf263a4dd9bc8a72774f71037c1aaee5e27b4ac660f84fec19d7de5f760405160405180910390a4505050565b8160008082815260200190815260200160002060070160003373ffffffffffffffffffffffffffffffffffffffff1673ffffffffffffffffffffffffffffffffffffffff16815260200190815260200160002060009054906101000a900460ff166113dc576040517f08c379a00000000000000000000000000000000000000000000000000000000081526004016113d390613fcb565b60405180910390fd5b60008084815260200190815260200160002060070160008373ffffffffffffffffffffffffffffffffffffffff1673ffffffffffffffffffffffffffffffffffffffff16815260200190815260200160002060009054906101000a900460ff1661147b576040517f08c379a000000000000000000000000000000000000000000000000000000000815260040161147290613fab565b60405180910390fd5b600080600085815260200190815260200160002060070160008473ffffffffffffffffffffffffffffffffffffffff1673ffffffffffffffffffffffffffffffffffffffff16815260200190815260200160002060006101000a81548160ff0219169083151502179055508173ffffffffffffffffffffffffffffffffffffffff16833373ffffffffffffffffffffffffffffffffffffffff167f046097ebaced0801e580cbd6f896b21319151cc80b4de4ff0445b7640b0d0dc660405160405180910390a4505050565b600080600085815260200190815260200160002060080160009054906101000a900461ffff1661ffff16146115b0576040517f08c379a00000000000000000000000000000000000000000000000000000000081526004016115a790613ccb565b60405180910390fd5b6102008261ffff16106115f8576040517f08c379a00000000000000000000000000000000000000000000000000000000081526004016115ef90613f0b565b60405180910390fd5b600160008085815260200190815260200160002060070160003373ffffffffffffffffffffffffffffffffffffffff1673ffffffffffffffffffffffffffffffffffffffff16815260200190815260200160002060006101000a81548160ff021916908315150217905550600160008085815260200190815260200160002060060160003373ffffffffffffffffffffffffffffffffffffffff1673ffffffffffffffffffffffffffffffffffffffff16815260200190815260200160002060006101000a81548160ff0219169083151502179055508060008085815260200190815260200160002060080160026101000a81548160ff0219169083151502179055508160008085815260200190815260200160002060080160006101000a81548161ffff021916908361ffff160217905550823373ffffffffffffffffffffffffffffffffffffffff167f03bbdc1fd5bc12b1622fb721be3c12f41df6a6fd965190ef6a0a4057030ba332846040516117729190613feb565b60405180910390a3505050565b61180c89878780806020026020016040519081016040528093929190818152602001838360200280828437600081840152601f19601f82011690508083019250505050505050868680806020026020016040519081016040528093929190818152602001838360200280828437600081840152601f19601f8201169050808301925050505050505061263c565b60008060008b815260200190815260200160002090508060080160009054906101000a900461ffff1661ffff1687879050101561187e576040517f08c379a000000000000000000000000000000000000000000000000000000000815260040161187590613eeb565b60405180910390fd5b600080905060008090506060898990506040519080825280602002602001820160405280156118bc5781602001602082028038833980820191505090505b50905060008090505b8a8a9050811015611c605760006119c48e8e848181106118e157fe5b905060200201358d8d858181106118f457fe5b905060200201602061190991908101906130fd565b8c8c8681811061191557fe5b905060200201358b8b8781811061192857fe5b905060200281018035600160200383360303811261194557600080fd5b8083019250508135905060208201915067ffffffffffffffff81111561196a57600080fd5b60018102360382131561197c57600080fd5b8080601f016020809104026020016040519081016040528093929190818152602001838380828437600081840152601f19601f820116905080830192505050505050506127b4565b9050808383815181106119d357fe5b602002602001019073ffffffffffffffffffffffffffffffffffffffff16908173ffffffffffffffffffffffffffffffffffffffff168152505060008660020160008373ffffffffffffffffffffffffffffffffffffffff1673ffffffffffffffffffffffffffffffffffffffff1681526020019081526020016000205490506000801b811415611a99576040517f08c379a0000000000000000000000000000000000000000000000000000000008152600401611a9090613ceb565b60405180910390fd5b8e8e84818110611aa557fe5b905060200201358760000160008381526020019081526020016000205414611b02576040517f08c379a0000000000000000000000000000000000000000000000000000000008152600401611af990613f6b565b60405180910390fd5b600060018860030160008a60020160008773ffffffffffffffffffffffffffffffffffffffff1673ffffffffffffffffffffffffffffffffffffffff16815260200190815260200160002054815260200190815260200160002060009054906101000a900461ffff1603905060ff8161ffff1611611be3576000819050600060028260ff1689901c81611b9157fe5b0614611bd2576040517f08c379a0000000000000000000000000000000000000000000000000000000008152600401611bc990613dcb565b60405180910390fd5b8060ff1660020a8701965050611c50565b600060088261ffff16901c9050600060028260ff168a901c81611c0257fe5b0614611c43576040517f08c379a0000000000000000000000000000000000000000000000000000000008152600401611c3a90613dcb565b60405180910390fd5b8060ff1660020a88019750505b50505080806001019150506118c5565b50611cef8d828c8c80806020026020016040519081016040528093929190818152602001838360200280828437600081840152601f19601f820116905080830192505050505050508b8b80806020026020016040519081016040528093929190818152602001838360200280828437600081840152601f19601f82011690508083019250505050505050612880565b50505050505050505050505050565b600080600083600080600083815260200190815260200160002090508060080160029054906101000a900460ff16611dd05760008083815260200190815260200160002060060160003373ffffffffffffffffffffffffffffffffffffffff1673ffffffffffffffffffffffffffffffffffffffff16815260200190815260200160002060009054906101000a900460ff16611dcf576040517f08c379a0000000000000000000000000000000000000000000000000000000008152600401611dc690613d8b565b60405180910390fd5b5b60006001600088815260200190815260200160002090508060000160009054906101000a9004600f0b816001015482600201549550955095505050509193909250565b8160008082815260200190815260200160002060070160003373ffffffffffffffffffffffffffffffffffffffff1673ffffffffffffffffffffffffffffffffffffffff16815260200190815260200160002060009054906101000a900460ff16611eb3576040517f08c379a0000000000000000000000000000000000000000000000000000000008152600401611eaa90613fcb565b60405180910390fd5b60008261ffff1611611efa576040517f08c379a0000000000000000000000000000000000000000000000000000000008152600401611ef190613d2b565b60405180910390fd5b6102008261ffff1610611f42576040517f08c379a0000000000000000000000000000000000000000000000000000000008152600401611f3990613e2b565b60405180910390fd5b8160008085815260200190815260200160002060080160006101000a81548161ffff021916908361ffff160217905550823373ffffffffffffffffffffffffffffffffffffffff167f49675ae7e9f659087ef6ee7bf7338315e5691b56baac3fa09982657842e79eb584604051611fb99190613feb565b60405180910390a3505050565b8260008082815260200190815260200160002060070160003373ffffffffffffffffffffffffffffffffffffffff1673ffffffffffffffffffffffffffffffffffffffff16815260200190815260200160002060009054906101000a900460ff16612066576040517f08c379a000000000000000000000000000000000000000000000000000000000815260040161205d90613fcb565b60405180910390fd5b6000801b8314156120ac576040517f08c379a00000000000000000000000000000000000000000000000000000000081526004016120a390613deb565b60405180910390fd5b6000801b8214156120f2576040517f08c379a00000000000000000000000000000000000000000000000000000000081526004016120e990613f4b565b60405180910390fd5b6000806000868152602001908152602001600020905060008160080160009054906101000a900461ffff1661ffff1611612161576040517f08c379a000000000000000000000000000000000000000000000000000000000815260040161215890613d4b565b60405180910390fd5b600081600301600086815260200190815260200160002060009054906101000a900461ffff1661ffff16146121cb576040517f08c379a00000000000000000000000000000000000000000000000000000000081526004016121c290613c8b565b60405180910390fd5b6102008160050160009054906101000a900461ffff1661ffff1610612225576040517f08c379a000000000000000000000000000000000000000000000000000000000815260040161221c90613dab565b60405180910390fd5b80600501600081819054906101000a900461ffff168092919060010191906101000a81548161ffff021916908361ffff1602179055505060008086815260200190815260200160002060050160009054906101000a900461ffff1681600301600086815260200190815260200160002060006101000a81548161ffff021916908361ffff160217905550838160040160008360050160009054906101000a900461ffff1661ffff1661ffff16815260200190815260200160002081905550828160000160008681526020019081526020016000208190555083853373ffffffffffffffffffffffffffffffffffffffff167fd7200eacb82a167d6f9d2e66741919ca80e097199bfdad7064c39e136f923e3b866040516123459190613b86565b60405180910390a45050505050565b8160008082815260200190815260200160002060070160003373ffffffffffffffffffffffffffffffffffffffff1673ffffffffffffffffffffffffffffffffffffffff16815260200190815260200160002060009054906101000a900460ff166123f4576040517f08c379a00000000000000000000000000000000000000000000000000000000081526004016123eb90613fcb565b60405180910390fd5b6000806000858152602001908152602001600020905060008160020160008573ffffffffffffffffffffffffffffffffffffffff1673ffffffffffffffffffffffffffffffffffffffff1681526020019081526020016000205490506000826001016000838152602001908152602001600020905060008090505b818054905081101561259e578573ffffffffffffffffffffffffffffffffffffffff1682828154811061249e57fe5b9060005260206000200160009054906101000a900473ffffffffffffffffffffffffffffffffffffffff1673ffffffffffffffffffffffffffffffffffffffff16141561259157816001838054905003815481106124f857fe5b9060005260206000200160009054906101000a900473ffffffffffffffffffffffffffffffffffffffff1682828154811061252f57fe5b9060005260206000200160006101000a81548173ffffffffffffffffffffffffffffffffffffffff021916908373ffffffffffffffffffffffffffffffffffffffff1602179055508180548091906001900361258b9190612a88565b5061259e565b808060010191505061246f565b508260020160008673ffffffffffffffffffffffffffffffffffffffff1673ffffffffffffffffffffffffffffffffffffffff1681526020019081526020016000206000905581863373ffffffffffffffffffffffffffffffffffffffff167f83b30ec2f4a7e34db581007fa2892f7da39ede2fb1903d8196ba04b1f169138d8860405161262c9190613b34565b60405180910390a4505050505050565b60008260008151811061264b57fe5b6020026020010151905060006001600086815260200190815260200160002060020154905060008090505b84518110156127ac578184828151811061268c57fe5b6020026020010151116126d4576040517f08c379a00000000000000000000000000000000000000000000000000000000081526004016126cb90613eab565b60405180910390fd5b61012c42018482815181106126e557fe5b60200260200101511061272d576040517f08c379a000000000000000000000000000000000000000000000000000000000815260040161272490613cab565b60405180910390fd5b82600f0b85828151811061273d57fe5b6020026020010151600f0b1215612789576040517f08c379a000000000000000000000000000000000000000000000000000000000815260040161278090613e6b565b60405180910390fd5b84818151811061279557fe5b602002602001015192508080600101915050612676565b505050505050565b600080600080848060200190516127ce9190810190613023565b925092509250600187878a6040516020016127eb93929190613ad1565b604051602081830303815290604052805190602001206040516020016128119190613b0e565b60405160208183030381529060405280519060200120828585604051600081526020016040526040516128479493929190613ba1565b6020604051602081039080840390855afa158015612869573d6000803e3d6000fd5b505050602060405103519350505050949350505050565b600080600060018551901c90506000600286518161289a57fe5b06141561291d576000600243816128ad57fe5b0614156128eb578460018203815181106128c357fe5b602002602001015192508360018203815181106128dc57fe5b60200260200101519150612918565b8481815181106128f757fe5b6020026020010151925083818151811061290d57fe5b602002602001015191505b61294a565b84818151811061292957fe5b6020026020010151925083818151811061293f57fe5b602002602001015191505b826001600089815260200190815260200160002060000160006101000a8154816fffffffffffffffffffffffffffffffff0219169083600f0b6fffffffffffffffffffffffffffffffff160217905550816001600089815260200190815260200160002060020181905550426001600089815260200190815260200160002060010181905550863373ffffffffffffffffffffffffffffffffffffffff167f59fe40ef51603559cd2e841aa91192007423ced71bd36682786fdf79a10df913600160008b815260200190815260200160002060000160009054906101000a9004600f0b600160008c8152602001908152602001600020600201548a8a604051612a569493929190613c01565b60405180910390a350505050505050565b5080546000825590600052602060002090810190612a859190612ab4565b50565b815481835581811115612aaf57818360005260206000209182019101612aae9190612ab4565b5b505050565b612ad691905b80821115612ad2576000816000905550600101612aba565b5090565b90565b600081359050612ae881614177565b92915050565b60008083601f840112612b0057600080fd5b8235905067ffffffffffffffff811115612b1957600080fd5b602083019150836020820283011115612b3157600080fd5b9250929050565b60008083601f840112612b4a57600080fd5b8235905067ffffffffffffffff811115612b6357600080fd5b602083019150836020820283011115612b7b57600080fd5b9250929050565b60008083601f840112612b9457600080fd5b8235905067ffffffffffffffff811115612bad57600080fd5b602083019150836020820283011115612bc557600080fd5b9250929050565b60008083601f840112612bde57600080fd5b8235905067ffffffffffffffff811115612bf757600080fd5b602083019150836020820283011115612c0f57600080fd5b9250929050565b60008083601f840112612c2857600080fd5b8235905067ffffffffffffffff811115612c4157600080fd5b602083019150836020820283011115612c5957600080fd5b9250929050565b600081359050612c6f8161418e565b92915050565b600081359050612c84816141a5565b92915050565b600081519050612c99816141a5565b92915050565b600081359050612cae816141bc565b92915050565b600081359050612cc3816141d3565b92915050565b600081519050612cd8816141ea565b92915050565b600060208284031215612cf057600080fd5b6000612cfe84828501612ad9565b91505092915050565b600060208284031215612d1957600080fd5b6000612d2784828501612c75565b91505092915050565b60008060408385031215612d4357600080fd5b6000612d5185828601612c75565b9250506020612d6285828601612ad9565b9150509250929050565b60008060008060008060006080888a031215612d8757600080fd5b6000612d958a828b01612c75565b975050602088013567ffffffffffffffff811115612db257600080fd5b612dbe8a828b01612b38565b9650965050604088013567ffffffffffffffff811115612ddd57600080fd5b612de98a828b01612b38565b9450945050606088013567ffffffffffffffff811115612e0857600080fd5b612e148a828b01612aee565b925092505092959891949750929550565b600080600080600080600080600060a08a8c031215612e4357600080fd5b6000612e518c828d01612c75565b99505060208a013567ffffffffffffffff811115612e6e57600080fd5b612e7a8c828d01612b38565b985098505060408a013567ffffffffffffffff811115612e9957600080fd5b612ea58c828d01612bcc565b965096505060608a013567ffffffffffffffff811115612ec457600080fd5b612ed08c828d01612c16565b945094505060808a013567ffffffffffffffff811115612eef57600080fd5b612efb8c828d01612b82565b92509250509295985092959850929598565b60008060408385031215612f2057600080fd5b6000612f2e85828601612c75565b9250506020612f3f85828601612c60565b9150509250929050565b60008060408385031215612f5c57600080fd5b6000612f6a85828601612c75565b9250506020612f7b85828601612c75565b9150509250929050565b600080600060608486031215612f9a57600080fd5b6000612fa886828701612c75565b9350506020612fb986828701612c75565b9250506040612fca86828701612ad9565b9150509250925092565b600080600060608486031215612fe957600080fd5b6000612ff786828701612c75565b935050602061300886828701612c75565b925050604061301986828701612c75565b9150509250925092565b60008060006060848603121561303857600080fd5b600061304686828701612c8a565b935050602061305786828701612c8a565b925050604061306886828701612cc9565b9150509250925092565b6000806040838503121561308557600080fd5b600061309385828601612c75565b92505060206130a485828601612cb4565b9150509250929050565b6000806000606084860312156130c357600080fd5b60006130d186828701612c75565b93505060206130e286828701612cb4565b92505060406130f386828701612c60565b9150509250925092565b60006020828403121561310f57600080fd5b600061311d84828501612c9f565b91505092915050565b60006131328383613165565b60208301905092915050565b600061314a8383613274565b60208301905092915050565b61315f8161410e565b82525050565b61316e81614094565b82525050565b61317d81614094565b82525050565b600061318e82614026565b6131988185614056565b93506131a383614006565b8060005b838110156131d45781516131bb8882613126565b97506131c68361403c565b9250506001810190506131a7565b5085935050505092915050565b60006131ec82614031565b6131f68185614067565b935061320183614016565b8060005b83811015613232578151613219888261313e565b975061322483614049565b925050600181019050613205565b5085935050505092915050565b613248816140a6565b82525050565b613257816140b2565b82525050565b61326e613269826140b2565b614144565b82525050565b61327d816140bc565b82525050565b61328c816140bc565b82525050565b6132a361329e826140bc565b61414e565b82525050565b60006132b6601583614078565b91507f536f7572636520616c72656164792065786973747300000000000000000000006000830152602082019050919050565b60006132f6603d83614078565b91507f56616c75652074696d657374616d702063616e6e6f74206265206d6f7265207460008301527f68616e2035206d696e7574657320616674657220626c6f636b74696d650000006020830152604082019050919050565b600061335c601c83614089565b91507f19457468657265756d205369676e6564204d6573736167653a0a3332000000006000830152601c82019050919050565b600061339c601983614078565b91507f4d61726b65744665656420616c726561647920657869737473000000000000006000830152602082019050919050565b60006133dc601b83614078565b91507f5369676e617475726520627920696e76616c696420736f7572636500000000006000830152602082019050919050565b600061341c602783614078565b91507f536f757263652063616e6e6f742068617665206d6f7265207468616e2032302060008301527f5369676e657273000000000000000000000000000000000000000000000000006020830152604082019050919050565b6000613482601483614078565b91507f6d696e206d75737420626520706f7369746976650000000000000000000000006000830152602082019050919050565b60006134c2601983614078565b91507f4d61726b65746665656420646f6573206e6f74206578697374000000000000006000830152602082019050919050565b6000613502602383614078565b91507f496e707574206c69737473206d757374206265206f6620657175616c206c656e60008301527f67746800000000000000000000000000000000000000000000000000000000006020830152604082019050919050565b6000613568601383614078565b91507f756e617574686f72697a656420726561646572000000000000000000000000006000830152602082019050919050565b60006135a8601a83614078565b91507f52656163686564206d6178206f662035313120736f75726365730000000000006000830152602082019050919050565b60006135e8601583614078565b91507f536f7572636520616c7265616479207369676e656400000000000000000000006000830152602082019050919050565b6000613628601283614078565b91507f536f757263652063616e6e6f74206265203000000000000000000000000000006000830152602082019050919050565b6000613668601e83614078565b91507f52656164657220616464726573732073686f756c64206e6f74206265203000006000830152602082019050919050565b60006136a8601983614078565b91507f6d696e206d757374206265206c657373207468616e20353132000000000000006000830152602082019050919050565b60006136e8602b83614078565b91507f536f7572636520616e64205369676e6572206c697374732073686f756c64206e60008301527f6f7420626520656d7074790000000000000000000000000000000000000000006020830152604082019050919050565b600061374e601383614078565b91507f4c697374206d75737420626520736f72746564000000000000000000000000006000830152602082019050919050565b600061378e601d83614078565b91507f496e76616c696420736f7572636520666f72206d61726b6574466565640000006000830152602082019050919050565b60006137ce601d83614078565b91507f56616c7565206d757374206265206e65776572207468616e206c6173740000006000830152602082019050919050565b600061380e602383614078565b91507f5369676e657220616c726561647920616464656420746f207468697320536f7560008301527f72636500000000000000000000000000000000000000000000000000000000006020830152604082019050919050565b6000613874601283614078565b91507f4e6f7420656e6f75676820736f757263657300000000000000000000000000006000830152602082019050919050565b60006138b4601b83614078565b91507f4d757374207265717569726520203c2035313220736f757263657300000000006000830152602082019050919050565b60006138f4600d83614078565b91507f4e6f20636f6e74726163742030000000000000000000000000000000000000006000830152602082019050919050565b6000613934601a83614078565b91507f736f757263654d61726b657449642063616e6e6f7420626520300000000000006000830152602082019050919050565b6000613974601c83614078565b91507f496e76616c6964206d61726b657420494420666f7220736f75726365000000006000830152602082019050919050565b60006139b4600b83614078565b91507f4e6f207369676e657220300000000000000000000000000000000000000000006000830152602082019050919050565b60006139f4602483614078565b91507f4d61726b657466656564206f72204d616e6167657220646f6573206e6f74206560008301527f78697374000000000000000000000000000000000000000000000000000000006020830152604082019050919050565b6000613a5a600d83614078565b91507f6e6f742061206d616e61676572000000000000000000000000000000000000006000830152602082019050919050565b613a96816140c9565b82525050565b613aa5816140f7565b82525050565b613abc613ab7826140f7565b614160565b82525050565b613acb81614101565b82525050565b6000613add8286613292565b601082019150613aed8285613aab565b602082019150613afd828461325d565b602082019150819050949350505050565b6000613b198261334f565b9150613b25828461325d565b60208201915081905092915050565b6000602082019050613b496000830184613174565b92915050565b6000606082019050613b646000830186613156565b613b71602083018561324e565b613b7e604083018461323f565b949350505050565b6000602082019050613b9b600083018461324e565b92915050565b6000608082019050613bb6600083018761324e565b613bc36020830186613ac2565b613bd0604083018561324e565b613bdd606083018461324e565b95945050505050565b6000602082019050613bfb6000830184613283565b92915050565b6000608082019050613c166000830187613283565b613c236020830186613a9c565b8181036040830152613c358185613183565b90508181036060830152613c4981846131e1565b905095945050505050565b6000606082019050613c696000830186613283565b613c766020830185613a9c565b613c836040830184613a9c565b949350505050565b60006020820190508181036000830152613ca4816132a9565b9050919050565b60006020820190508181036000830152613cc4816132e9565b9050919050565b60006020820190508181036000830152613ce48161338f565b9050919050565b60006020820190508181036000830152613d04816133cf565b9050919050565b60006020820190508181036000830152613d248161340f565b9050919050565b60006020820190508181036000830152613d4481613475565b9050919050565b60006020820190508181036000830152613d64816134b5565b9050919050565b60006020820190508181036000830152613d84816134f5565b9050919050565b60006020820190508181036000830152613da48161355b565b9050919050565b60006020820190508181036000830152613dc48161359b565b9050919050565b60006020820190508181036000830152613de4816135db565b9050919050565b60006020820190508181036000830152613e048161361b565b9050919050565b60006020820190508181036000830152613e248161365b565b9050919050565b60006020820190508181036000830152613e448161369b565b9050919050565b60006020820190508181036000830152613e64816136db565b9050919050565b60006020820190508181036000830152613e8481613741565b9050919050565b60006020820190508181036000830152613ea481613781565b9050919050565b60006020820190508181036000830152613ec4816137c1565b9050919050565b60006020820190508181036000830152613ee481613801565b9050919050565b60006020820190508181036000830152613f0481613867565b9050919050565b60006020820190508181036000830152613f24816138a7565b9050919050565b60006020820190508181036000830152613f44816138e7565b9050919050565b60006020820190508181036000830152613f6481613927565b9050919050565b60006020820190508181036000830152613f8481613967565b9050919050565b60006020820190508181036000830152613fa4816139a7565b9050919050565b60006020820190508181036000830152613fc4816139e7565b9050919050565b60006020820190508181036000830152613fe481613a4d565b9050919050565b60006020820190506140006000830184613a8d565b92915050565b6000819050602082019050919050565b6000819050602082019050919050565b600081519050919050565b600081519050919050565b6000602082019050919050565b6000602082019050919050565b600082825260208201905092915050565b600082825260208201905092915050565b600082825260208201905092915050565b600081905092915050565b600061409f826140d7565b9050919050565b60008115159050919050565b6000819050919050565b600081600f0b9050919050565b600061ffff82169050919050565b600073ffffffffffffffffffffffffffffffffffffffff82169050919050565b6000819050919050565b600060ff82169050919050565b600061411982614120565b9050919050565b600061412b82614132565b9050919050565b600061413d826140d7565b9050919050565b6000819050919050565b60006141598261416a565b9050919050565b6000819050919050565b60008160801b9050919050565b61418081614094565b811461418b57600080fd5b50565b614197816140a6565b81146141a257600080fd5b50565b6141ae816140b2565b81146141b957600080fd5b50565b6141c5816140bc565b81146141d057600080fd5b50565b6141dc816140c9565b81146141e757600080fd5b50565b6141f381614101565b81146141fe57600080fd5b5056fea365627a7a72305820a5860f566c5708fe6b478710bbb98d249d72aa223cb578ec8f1edabc1af4a6056c6578706572696d656e74616cf564736f6c634300050a0040",
  "source": "pragma solidity ^0.5.0;\npragma experimental ABIEncoderV2; // Needed for using bytes[] parameter type.\n\ncontract OpenMarketFeed {\n\n  // Anyone can create a new MarketFeed with `createMarketFeed()`.\n  // Only the managers of a MarketFeed can edit parameters (whitelists and config) of the marketFeed.\n  // Anyone can post updates to the marketFeed data with `post()`, but the data is only accepted if it meets the marketFeed's configured criteria.\n  struct MarketFeedConfig {\n    mapping (bytes32 => bytes32) sourceToMarketId;\n\n    // Whitelists, all editable only by managers\n    mapping (bytes32 => address[]) sourceToSigners;\n    mapping (address => bytes32) signerToSource;\n\n    mapping (bytes32 => uint16) sourceToId;\n    mapping (uint16 => bytes32) idToSource;\n    // Source IDs are assigned in incrementing order in a packed manner in the range [1, 511].\n    // If a source is deleted, the last source is reassigned its ID and the last source ID is freed up.\n    uint16 lastSourceId;\n\n    mapping (address => bool) readers;\n    mapping (address => bool) managers;\n\n    uint16 minRequiredSources;\n\n    bool isFree; // If True, any address may read from this Marketfeed at no cost.\n  }\n\n  struct MarketFeedData {\n    // Last accepted data\n    int128 value;\n    uint256 blockTime;\n    uint256 epochTime;\n  }\n\n  /*************** State attributes ***************/\n\n  // A map from marketFeed name to MarketFeed.\n  mapping (bytes32 => MarketFeedConfig) internal marketFeeds_config;\n  mapping (bytes32 => MarketFeedData) internal marketFeeds_data;\n\n  /*************** Emitted Events *****************/\n\n  // when a market feed is created\n  event MarketFeedCreation(\n    address indexed manager,\n    bytes32 indexed marketFeed,\n    uint16 minRequiredSources\n  );\n\n  // when an existing manager adds a new manager\n  event ManagerAddition(\n    address indexed manager,\n    bytes32 indexed marketFeed,\n    address indexed newManager\n  );\n\n  // when an existing manager removes a existing manager\n  event ManagerRemoval(\n    address indexed manager,\n    bytes32 indexed marketFeed,\n    address indexed firedManager\n  );\n\n  // when a source is added\n  event SourceAddition(\n    address indexed manager,\n    bytes32 indexed marketFeed,\n    bytes32 indexed source,\n    bytes32 sourceMarketId\n  );\n\n  // when a source is removed\n  event SourceRemoval(\n    address indexed manager,\n    bytes32 indexed marketFeed,\n    bytes32 indexed source\n  );\n\n  // when a signer is added\n  event SignerAddition(\n    address indexed manager,\n    bytes32 indexed marketFeed,\n    bytes32 indexed source,\n    address signer\n  );\n\n  // when a signer is removed\n  event SignerRemoval(\n    address indexed manager,\n    bytes32 indexed marketFeed,\n    bytes32 indexed source,\n    address signer\n  );\n\n  // when a reader is added\n  event ReaderAddition(\n    address indexed manager,\n    bytes32 indexed marketFeed,\n    address indexed newReader\n  );\n\n  // when a reader is removed\n  event ReaderRemoval(\n    address indexed manager,\n    bytes32 indexed marketFeed,\n    address indexed firedReader\n  );\n\n  // when min required sources is updated\n  event MinRequiredSourcesUpdated(\n    address indexed manager,\n    bytes32 indexed marketFeed,\n    uint16 newMin\n  );\n\n  event IsFreeUpdated(\n    address manager,\n    bytes32 marketFeed,\n    bool isFree\n  );\n\n  // when a valid source reports a value\n  event SignerReported(\n    bytes32 indexed marketFeed,\n    address indexed signerAddress,\n    int128 value,\n    uint256 epochTime\n  );\n\n  // when contract writes a median value\n  event MedianValueWritten(\n    address indexed reporterAddress,\n    bytes32 indexed marketFeed,\n    int128 value,\n    uint256 epochTime,\n    address[] signerAddresses,\n    int128[] signerValues\n  );\n\n  /*********************** Modifiers *******************/\n\n  modifier managersOnly(bytes32 marketFeed) {\n    require(marketFeeds_config[marketFeed].managers[msg.sender], 'not a manager');\n    _;\n  }\n\n  modifier readersOnly(bytes32 marketFeed) {\n    MarketFeedConfig storage m = marketFeeds_config[marketFeed];\n    if (!m.isFree) {\n      require(\n        marketFeeds_config[marketFeed].readers[msg.sender],\n        \"unauthorized reader\"\n      );\n    }\n    _;\n  }\n\n  /*********************** Public methods *******************/\n\n  constructor() public {}\n\n  /*********************** External methods *******************/\n\n  // Posts a new sorted value list for a marketFeed.\n  function post(bytes32 marketFeed, bytes32[] calldata marketIds, int128[] calldata values, uint256[] calldata epochTime,\n      bytes[] calldata signatures) external {\n    checkAcceptableValue(marketFeed, values, epochTime);\n\n    MarketFeedConfig storage m = marketFeeds_config[marketFeed];\n    require(values.length >= m.minRequiredSources, \"Not enough sources\");\n\n    // 512-bit vector to keep track of sources.\n    // Each ID goes into a single slot in the 2 block vector of [bloom1, bloom0].\n    // IDs are in [1, 511].\n    uint256 bloom1 = 0;\n    uint256 bloom0 = 0;\n\n    address[] memory signers = new address[](values.length);\n\n    for (uint i = 0; i < values.length; i++) {\n      // Check that signer is authorized.\n      address signer = recover(marketIds[i], values[i], epochTime[i], signatures[i]);\n      signers[i] = signer;\n\n      bytes32 source = m.signerToSource[signer];\n      require(source != 0, \"Signature by invalid source\");\n      require(m.sourceToMarketId[source] == marketIds[i], \"Invalid market ID for source\");\n\n      // emit SignerReported(marketFeed, signer, values[i], epochTime[i]);\n\n      uint16 sourceId = m.sourceToId[m.signerToSource[signer]] - 1;\n      if (sourceId <= 255) {\n        uint8 slot = uint8(sourceId); // Lower byte\n        require((bloom0 >> slot) % 2 == 0, \"Source already signed\");\n        bloom0 += uint256(2) ** slot;\n      } else {\n        uint8 slot = uint8(sourceId >> 8); // Upper byte\n        require((bloom1 >> slot) % 2 == 0, \"Source already signed\");\n        bloom1 += uint256(2) ** slot;\n      }\n    }\n\n    acceptValue(marketFeed, signers, values, epochTime);\n  }\n\n  function getValue(bytes32 marketFeed) external view readersOnly(marketFeed) returns (int128) {\n    return marketFeeds_data[marketFeed].value;\n  }\n\n  function getValueAndTime(bytes32 marketFeed) external view readersOnly(marketFeed)\n      returns (int128 value, uint256 blockTime, uint256 epochTime) {\n    MarketFeedData storage m = marketFeeds_data[marketFeed];\n    return (m.value, m.blockTime, m.epochTime);\n  }\n\n  // Initializes a new MarketFeed with the sender as the sole manager and reader.\n  function createMarketFeed(\n    bytes32 name,\n    uint16 minRequiredSources,\n    bool isFree\n  )\n    external\n  {\n    require(marketFeeds_config[name].minRequiredSources == 0, \"MarketFeed already exists\");\n    require(minRequiredSources < 512, \"Must require  < 512 sources\");\n    marketFeeds_config[name].managers[msg.sender] = true;\n    marketFeeds_config[name].readers[msg.sender] = true;\n    marketFeeds_config[name].isFree = isFree;\n    marketFeeds_config[name].minRequiredSources = minRequiredSources;\n\n    emit MarketFeedCreation(msg.sender, name, minRequiredSources);\n  }\n\n  function addManager(bytes32 marketFeed, address m) external managersOnly(marketFeed) {\n    marketFeeds_config[marketFeed].managers[m] = true;\n\n    emit ManagerAddition(msg.sender, marketFeed, m);\n  }\n\n  function removeManager(bytes32 marketFeed, address m) external managersOnly(marketFeed) {\n    require(\n      marketFeeds_config[marketFeed].managers[m],\n      \"Marketfeed or Manager does not exist\"\n    );\n    marketFeeds_config[marketFeed].managers[m] = false;\n\n    emit ManagerRemoval(msg.sender, marketFeed, m);\n  }\n\n  function addSource(bytes32 marketFeed, bytes32 src, bytes32 sourceMarketId) public managersOnly(marketFeed) {\n    require(src != 0, \"Source cannot be 0\");\n    require(sourceMarketId != 0, \"sourceMarketId cannot be 0\");\n    MarketFeedConfig storage m = marketFeeds_config[marketFeed];\n    require(m.minRequiredSources > 0, \"Marketfeed does not exist\");\n    require(m.sourceToId[src] == 0, \"Source already exists\");\n    require(m.lastSourceId < 512, \"Reached max of 511 sources\");\n    m.lastSourceId++;\n    m.sourceToId[src] = marketFeeds_config[marketFeed].lastSourceId;\n    m.idToSource[m.lastSourceId] = src;\n    m.sourceToMarketId[src] = sourceMarketId;\n\n    emit SourceAddition(msg.sender, marketFeed, src, sourceMarketId);\n  }\n\n  function removeSource(bytes32 marketFeed, bytes32 src) public managersOnly(marketFeed) {\n    MarketFeedConfig storage m = marketFeeds_config[marketFeed];\n\n    // Reassign source in last slot to take the removed source's ID.\n    uint16 idToReassign = m.sourceToId[src];\n    bytes32 lastSource = m.idToSource[m.lastSourceId];\n\n    m.sourceToId[src] = 0;\n    m.idToSource[m.lastSourceId] = 0;\n\n    m.sourceToId[lastSource] = idToReassign;\n    m.idToSource[idToReassign] = lastSource;\n\n    // Delete source's signers.\n    address[] storage signersToDelete = m.sourceToSigners[src];\n    for (uint i = 0; i < signersToDelete.length; i++) {\n      address signer = signersToDelete[i];\n      delete m.signerToSource[signer];\n    }\n    delete m.sourceToSigners[src];\n\n    m.lastSourceId--;\n\n    emit SourceRemoval(msg.sender, marketFeed, src);\n  }\n\n  function addSigner(bytes32 marketFeed, bytes32 src, address signer) public managersOnly(marketFeed) {\n    require(signer != address(0), \"No signer 0\");\n\n    MarketFeedConfig storage m = marketFeeds_config[marketFeed];\n    require(m.sourceToId[src] != 0, \"Invalid source for marketFeed\");\n    require(m.signerToSource[signer] == 0, \"Signer already added to this Source\");\n    require(\n      m.sourceToSigners[src].length <= 20,\n      \"Source cannot have more than 20 Signers\"\n    );\n    m.signerToSource[signer] = src;\n    m.sourceToSigners[src].push(signer);\n\n    emit SignerAddition(msg.sender, marketFeed, src, signer);\n  }\n\n  function removeSigner(bytes32 marketFeed, address signer) external managersOnly(marketFeed) {\n    MarketFeedConfig storage m = marketFeeds_config[marketFeed];\n    bytes32 src = m.signerToSource[signer];\n    address[] storage sourcesSigners = m.sourceToSigners[src];\n\n    for (uint i = 0; i < sourcesSigners.length; i++) {\n      if (sourcesSigners[i] == signer) {\n        sourcesSigners[i] = sourcesSigners[sourcesSigners.length - 1];\n        sourcesSigners.length--;\n        break;\n      }\n    }\n    delete m.signerToSource[signer];\n\n    emit SignerRemoval(msg.sender, marketFeed, src, signer);\n  }\n\n  // Convenience function for adding sources and signers at the same time.\n  // Adds source if it doesn't exist yet.\n  function batchAddSourceAndSigner(\n    bytes32 marketFeed,\n    bytes32[] calldata sources,\n    bytes32[] calldata sourceMarketIds,\n    address[] calldata signers\n  ) external managersOnly(marketFeed) {\n    require(sources.length == sourceMarketIds.length && sources.length == signers.length, \"Input lists must be of equal length\");\n    require(sources.length != 0, \"Source and Signer lists should not be empty\");\n    require(\n      marketFeeds_config[marketFeed].minRequiredSources != 0,\n      \"Marketfeed does not exist\"\n    );\n    for (uint i = 0; i < sources.length; i++) {\n      if (marketFeeds_config[marketFeed].sourceToId[sources[i]] == 0) {\n        addSource(marketFeed, sources[i], sourceMarketIds[i]);\n      }\n      addSigner(marketFeed, sources[i], signers[i]);\n    }\n  }\n\n  function setMinRequiredSources(bytes32 marketFeed, uint16 newMin) external managersOnly(marketFeed) {\n    require(newMin > 0, \"min must be positive\");\n    require(newMin < 512, \"min must be less than 512\");\n    marketFeeds_config[marketFeed].minRequiredSources = newMin;\n\n    emit MinRequiredSourcesUpdated(msg.sender, marketFeed, newMin);\n  }\n\n  function setIsFree(bytes32 marketFeed, bool isFree) external managersOnly(marketFeed) {\n    marketFeeds_config[marketFeed].isFree = isFree;\n    emit IsFreeUpdated(msg.sender, marketFeed, isFree);\n  }\n\n  function addReader(bytes32 marketFeed, address r) external managersOnly(marketFeed) {\n    require (r != address(0), \"No contract 0\");\n    marketFeeds_config[marketFeed].readers[r] = true;\n\n    emit ReaderAddition(msg.sender, marketFeed, r);\n  }\n\n  function removeReader(bytes32 marketFeed, address r) external managersOnly(marketFeed) {\n    require(r != address(0), \"Reader address should not be 0\");\n    marketFeeds_config[marketFeed].readers[r] = false;\n\n    emit ReaderRemoval(msg.sender, marketFeed, r);\n  }\n\n  /*********************** Internal methods *******************/\n\n  function checkAcceptableValue(bytes32 marketFeed, int128[] memory values, uint256[] memory epochTime) internal view {\n    int128 prevValue = values[0];\n    uint256 lastUpdatedTime = marketFeeds_data[marketFeed].epochTime;\n\n    for (uint i = 0; i < values.length; i++) {\n        require(epochTime[i] > lastUpdatedTime, \"Value must be newer than last\");\n        require(\n          epochTime[i] < (block.timestamp + 300),\n          \"Value timestamp cannot be more than 5 minutes after blocktime\"\n        );\n        require(values[i] >= prevValue, \"List must be sorted\");\n        prevValue = values[i];\n    }\n  }\n\n  // Recovers the signer of the marketFeed data.\n  function recover(\n    bytes32 marketId,\n    int128 value,\n    uint256 time,\n    bytes memory signature\n  )\n  internal pure returns (address)\n  {\n    (bytes32 r, bytes32 s, uint8 v) = abi.decode(\n      signature, (bytes32, bytes32, uint8)\n    );\n    return ecrecover(\n        keccak256(\n          abi.encodePacked(\n            \"\\x19Ethereum Signed Message:\\n32\",\n            keccak256(abi.encodePacked(value, time, marketId))\n          )\n        ),\n        v, r, s\n    );\n  }\n\n  // @dev This function was split out of `post()` due to stack variable count limitations.\n  function acceptValue(\n    bytes32 marketFeed,\n    address[] memory signers,\n    int128[] memory values,\n    uint256[] memory epochTime\n  ) internal {\n\n    // Set value to median.\n    int128 medianValue;\n    uint256 medianEpochTime;\n    uint256 midPoint = values.length >> 1;\n\n    if (values.length % 2 == 0) {\n      if (block.number % 2 == 0) {\n        // lower values of middle two\n        medianValue = values[midPoint - 1];\n        medianEpochTime = epochTime[midPoint - 1];\n      } else {\n        // higher values of middle two\n        medianValue = values[midPoint];\n        medianEpochTime = epochTime[midPoint];\n      }\n    } else {\n      medianValue = values[midPoint];\n      medianEpochTime = epochTime[midPoint];\n    }\n\n    marketFeeds_data[marketFeed].value = medianValue;\n    marketFeeds_data[marketFeed].epochTime = medianEpochTime;\n\n    marketFeeds_data[marketFeed].blockTime = block.timestamp;\n\n    emit MedianValueWritten(\n      msg.sender,\n      marketFeed,\n      marketFeeds_data[marketFeed].value,\n      marketFeeds_data[marketFeed].epochTime,\n      signers,\n      values\n    );\n  }\n}\n",
  "sourcePath": "/home/sendrecv/d/dirtoracle/contracts/OpenMarketFeed.sol",
  "compiler": {
    "name": "solc",
    "version": "0.5.10+commit.5a6ea5b1.Emscripten.clang"
  },
  "schemaVersion": "3.0.11",
  "updatedAt": "2019-08-07T03:49:50.662Z",
  "devdoc": {
    "methods": {}
  },
  "userdoc": {
    "methods": {
      "constructor": "********************* Public methods ******************",
      "post(bytes32,bytes32[],int128[],uint256[],bytes[])": {
        "notice": "********************* External methods ******************"
      }
    }
  }
}